{
  "_format": "hh-sol-artifact-1",
  "contractName": "NFTMarketplace",
  "sourceName": "contracts/NFTMarketplace.sol",
  "abi": [
    {
      "inputs": [],
      "stateMutability": "nonpayable",
      "type": "constructor"
    },
    {
      "anonymous": false,
      "inputs": [
        {
          "indexed": false,
          "internalType": "uint256",
          "name": "itemId",
          "type": "uint256"
        },
        {
          "indexed": false,
          "internalType": "address",
          "name": "nftContract",
          "type": "address"
        },
        {
          "indexed": true,
          "internalType": "uint256",
          "name": "tokenId",
          "type": "uint256"
        },
        {
          "indexed": false,
          "internalType": "address",
          "name": "seller",
          "type": "address"
        },
        {
          "indexed": false,
          "internalType": "address",
          "name": "owner",
          "type": "address"
        },
        {
          "indexed": false,
          "internalType": "uint256",
          "name": "price",
          "type": "uint256"
        },
        {
          "indexed": false,
          "internalType": "bool",
          "name": "sold",
          "type": "bool"
        }
      ],
      "name": "MarketItemCreated",
      "type": "event"
    },
    {
      "inputs": [
        {
          "internalType": "address",
          "name": "nftContract",
          "type": "address"
        },
        {
          "internalType": "uint256",
          "name": "tokenId",
          "type": "uint256"
        },
        {
          "internalType": "uint256",
          "name": "price",
          "type": "uint256"
        }
      ],
      "name": "createMarketItem",
      "outputs": [],
      "stateMutability": "payable",
      "type": "function"
    },
    {
      "inputs": [
        {
          "internalType": "address",
          "name": "nftContract",
          "type": "address"
        },
        {
          "internalType": "uint256",
          "name": "tokenId",
          "type": "uint256"
        }
      ],
      "name": "createMarketSale",
      "outputs": [],
      "stateMutability": "payable",
      "type": "function"
    },
    {
      "inputs": [],
      "name": "fetchItemsListed",
      "outputs": [
        {
          "components": [
            {
              "internalType": "uint256",
              "name": "itemId",
              "type": "uint256"
            },
            {
              "internalType": "address",
              "name": "nftContract",
              "type": "address"
            },
            {
              "internalType": "uint256",
              "name": "tokenId",
              "type": "uint256"
            },
            {
              "internalType": "address payable",
              "name": "seller",
              "type": "address"
            },
            {
              "internalType": "address payable",
              "name": "owner",
              "type": "address"
            },
            {
              "internalType": "uint256",
              "name": "price",
              "type": "uint256"
            },
            {
              "internalType": "bool",
              "name": "sold",
              "type": "bool"
            }
          ],
          "internalType": "struct NFTMarketplace.MarketItem[]",
          "name": "",
          "type": "tuple[]"
        }
      ],
      "stateMutability": "view",
      "type": "function"
    },
    {
      "inputs": [],
      "name": "fetchMarketItems",
      "outputs": [
        {
          "components": [
            {
              "internalType": "uint256",
              "name": "itemId",
              "type": "uint256"
            },
            {
              "internalType": "address",
              "name": "nftContract",
              "type": "address"
            },
            {
              "internalType": "uint256",
              "name": "tokenId",
              "type": "uint256"
            },
            {
              "internalType": "address payable",
              "name": "seller",
              "type": "address"
            },
            {
              "internalType": "address payable",
              "name": "owner",
              "type": "address"
            },
            {
              "internalType": "uint256",
              "name": "price",
              "type": "uint256"
            },
            {
              "internalType": "bool",
              "name": "sold",
              "type": "bool"
            }
          ],
          "internalType": "struct NFTMarketplace.MarketItem[]",
          "name": "",
          "type": "tuple[]"
        }
      ],
      "stateMutability": "view",
      "type": "function"
    },
    {
      "inputs": [],
      "name": "fetchMyNFTs",
      "outputs": [
        {
          "components": [
            {
              "internalType": "uint256",
              "name": "itemId",
              "type": "uint256"
            },
            {
              "internalType": "address",
              "name": "nftContract",
              "type": "address"
            },
            {
              "internalType": "uint256",
              "name": "tokenId",
              "type": "uint256"
            },
            {
              "internalType": "address payable",
              "name": "seller",
              "type": "address"
            },
            {
              "internalType": "address payable",
              "name": "owner",
              "type": "address"
            },
            {
              "internalType": "uint256",
              "name": "price",
              "type": "uint256"
            },
            {
              "internalType": "bool",
              "name": "sold",
              "type": "bool"
            }
          ],
          "internalType": "struct NFTMarketplace.MarketItem[]",
          "name": "",
          "type": "tuple[]"
        }
      ],
      "stateMutability": "view",
      "type": "function"
    },
    {
      "inputs": [
        {
          "internalType": "address",
          "name": "userAddress",
          "type": "address"
        }
      ],
      "name": "fetchNFTsByUserAddress",
      "outputs": [
        {
          "components": [
            {
              "internalType": "uint256",
              "name": "itemId",
              "type": "uint256"
            },
            {
              "internalType": "address",
              "name": "nftContract",
              "type": "address"
            },
            {
              "internalType": "uint256",
              "name": "tokenId",
              "type": "uint256"
            },
            {
              "internalType": "address payable",
              "name": "seller",
              "type": "address"
            },
            {
              "internalType": "address payable",
              "name": "owner",
              "type": "address"
            },
            {
              "internalType": "uint256",
              "name": "price",
              "type": "uint256"
            },
            {
              "internalType": "bool",
              "name": "sold",
              "type": "bool"
            }
          ],
          "internalType": "struct NFTMarketplace.MarketItem[]",
          "name": "",
          "type": "tuple[]"
        }
      ],
      "stateMutability": "view",
      "type": "function"
    },
    {
      "inputs": [],
      "name": "getListingPrice",
      "outputs": [
        {
          "internalType": "uint256",
          "name": "",
          "type": "uint256"
        }
      ],
      "stateMutability": "view",
      "type": "function"
    },
    {
      "inputs": [
        {
          "internalType": "address",
          "name": "nftContract",
          "type": "address"
        },
        {
          "internalType": "uint256",
          "name": "tokenId",
          "type": "uint256"
        },
        {
          "internalType": "uint256",
          "name": "price",
          "type": "uint256"
        }
      ],
      "name": "resellToken",
      "outputs": [],
      "stateMutability": "payable",
      "type": "function"
    },
    {
      "inputs": [
        {
          "internalType": "uint256",
          "name": "_listingPrice",
          "type": "uint256"
        }
      ],
      "name": "updateListingPrice",
      "outputs": [],
      "stateMutability": "payable",
      "type": "function"
    }
  ],
  "bytecode": "0x60806040526658d15e1762800060035534801561001b57600080fd5b50600160008190555033600460006101000a81548173ffffffffffffffffffffffffffffffffffffffff021916908373ffffffffffffffffffffffffffffffffffffffff160217905550612546806100746000396000f3fe6080604052600436106100865760003560e01c806358eb2df51161005957806358eb2df514610137578063ae677aa314610153578063b23e1ad91461016f578063c23b139e1461018b578063df299811146101a757610086565b80630f08efe01461008b57806312e85585146100b6578063202e3740146100e157806345f8fa801461010c575b600080fd5b34801561009757600080fd5b506100a06101e4565b6040516100ad9190611f29565b60405180910390f35b3480156100c257600080fd5b506100cb6104f9565b6040516100d8919061206b565b60405180910390f35b3480156100ed57600080fd5b506100f6610503565b6040516101039190611f29565b60405180910390f35b34801561011857600080fd5b5061012161089d565b60405161012e9190611f29565b60405180910390f35b610151600480360381019061014c9190611bd2565b610c37565b005b61016d60048036038101906101689190611c21565b611015565b005b61018960048036038101906101849190611bd2565b6110af565b005b6101a560048036038101906101a09190611b96565b611309565b005b3480156101b357600080fd5b506101ce60048036038101906101c99190611b6d565b6116a6565b6040516101db9190611f29565b60405180910390f35b606060006101f26001611a42565b905060006102006002611a42565b61020a6001611a42565b6102149190612187565b90506000808267ffffffffffffffff811115610259577f4e487b7100000000000000000000000000000000000000000000000000000000600052604160045260246000fd5b60405190808252806020026020018201604052801561029257816020015b61027f611ac2565b8152602001906001900390816102775790505b50905060005b848110156104ee573073ffffffffffffffffffffffffffffffffffffffff16600560006001846102c89190612131565b815260200190815260200160002060040160009054906101000a900473ffffffffffffffffffffffffffffffffffffffff1673ffffffffffffffffffffffffffffffffffffffff1614156104db5760006001826103259190612131565b90506000600560008381526020019081526020016000209050806040518060e0016040529081600082015481526020016001820160009054906101000a900473ffffffffffffffffffffffffffffffffffffffff1673ffffffffffffffffffffffffffffffffffffffff1673ffffffffffffffffffffffffffffffffffffffff168152602001600282015481526020016003820160009054906101000a900473ffffffffffffffffffffffffffffffffffffffff1673ffffffffffffffffffffffffffffffffffffffff1673ffffffffffffffffffffffffffffffffffffffff1681526020016004820160009054906101000a900473ffffffffffffffffffffffffffffffffffffffff1673ffffffffffffffffffffffffffffffffffffffff1673ffffffffffffffffffffffffffffffffffffffff168152602001600582015481526020016006820160009054906101000a900460ff1615151515815250508486815181106104be577f4e487b7100000000000000000000000000000000000000000000000000000000600052603260045260246000fd5b60200260200101819052506001856104d69190612131565b945050505b80806104e690612215565b915050610298565b508094505050505090565b6000600354905090565b606060006105116001611a42565b905060008060005b838110156105ba573373ffffffffffffffffffffffffffffffffffffffff16600560006001846105499190612131565b815260200190815260200160002060040160009054906101000a900473ffffffffffffffffffffffffffffffffffffffff1673ffffffffffffffffffffffffffffffffffffffff1614156105a7576001836105a49190612131565b92505b80806105b290612215565b915050610519565b5060008267ffffffffffffffff8111156105fd577f4e487b7100000000000000000000000000000000000000000000000000000000600052604160045260246000fd5b60405190808252806020026020018201604052801561063657816020015b610623611ac2565b81526020019060019003908161061b5790505b50905060005b84811015610892573373ffffffffffffffffffffffffffffffffffffffff166005600060018461066c9190612131565b815260200190815260200160002060040160009054906101000a900473ffffffffffffffffffffffffffffffffffffffff1673ffffffffffffffffffffffffffffffffffffffff16141561087f5760006001826106c99190612131565b90506000600560008381526020019081526020016000209050806040518060e0016040529081600082015481526020016001820160009054906101000a900473ffffffffffffffffffffffffffffffffffffffff1673ffffffffffffffffffffffffffffffffffffffff1673ffffffffffffffffffffffffffffffffffffffff168152602001600282015481526020016003820160009054906101000a900473ffffffffffffffffffffffffffffffffffffffff1673ffffffffffffffffffffffffffffffffffffffff1673ffffffffffffffffffffffffffffffffffffffff1681526020016004820160009054906101000a900473ffffffffffffffffffffffffffffffffffffffff1673ffffffffffffffffffffffffffffffffffffffff1673ffffffffffffffffffffffffffffffffffffffff168152602001600582015481526020016006820160009054906101000a900460ff161515151581525050848681518110610862577f4e487b7100000000000000000000000000000000000000000000000000000000600052603260045260246000fd5b602002602001018190525060018561087a9190612131565b945050505b808061088a90612215565b91505061063c565b508094505050505090565b606060006108ab6001611a42565b905060008060005b83811015610954573373ffffffffffffffffffffffffffffffffffffffff16600560006001846108e39190612131565b815260200190815260200160002060030160009054906101000a900473ffffffffffffffffffffffffffffffffffffffff1673ffffffffffffffffffffffffffffffffffffffff1614156109415760018361093e9190612131565b92505b808061094c90612215565b9150506108b3565b5060008267ffffffffffffffff811115610997577f4e487b7100000000000000000000000000000000000000000000000000000000600052604160045260246000fd5b6040519080825280602002602001820160405280156109d057816020015b6109bd611ac2565b8152602001906001900390816109b55790505b50905060005b84811015610c2c573373ffffffffffffffffffffffffffffffffffffffff1660056000600184610a069190612131565b815260200190815260200160002060030160009054906101000a900473ffffffffffffffffffffffffffffffffffffffff1673ffffffffffffffffffffffffffffffffffffffff161415610c19576000600182610a639190612131565b90506000600560008381526020019081526020016000209050806040518060e0016040529081600082015481526020016001820160009054906101000a900473ffffffffffffffffffffffffffffffffffffffff1673ffffffffffffffffffffffffffffffffffffffff1673ffffffffffffffffffffffffffffffffffffffff168152602001600282015481526020016003820160009054906101000a900473ffffffffffffffffffffffffffffffffffffffff1673ffffffffffffffffffffffffffffffffffffffff1673ffffffffffffffffffffffffffffffffffffffff1681526020016004820160009054906101000a900473ffffffffffffffffffffffffffffffffffffffff1673ffffffffffffffffffffffffffffffffffffffff1673ffffffffffffffffffffffffffffffffffffffff168152602001600582015481526020016006820160009054906101000a900460ff161515151581525050848681518110610bfc577f4e487b7100000000000000000000000000000000000000000000000000000000600052603260045260246000fd5b6020026020010181905250600185610c149190612131565b945050505b8080610c2490612215565b9150506109d6565b508094505050505090565b60026000541415610c7d576040517f08c379a0000000000000000000000000000000000000000000000000000000008152600401610c749061202b565b60405180910390fd5b60026000819055503373ffffffffffffffffffffffffffffffffffffffff16600460009054906101000a900473ffffffffffffffffffffffffffffffffffffffff1673ffffffffffffffffffffffffffffffffffffffff1614610d15576040517f08c379a0000000000000000000000000000000000000000000000000000000008152600401610d0c9061200b565b60405180910390fd5b60008111610d58576040517f08c379a0000000000000000000000000000000000000000000000000000000008152600401610d4f9061204b565b60405180910390fd5b6003543414610d9c576040517f08c379a0000000000000000000000000000000000000000000000000000000008152600401610d9390611fcb565b60405180910390fd5b610da66001611a50565b6000610db26001611a42565b90506040518060e001604052808281526020018573ffffffffffffffffffffffffffffffffffffffff1681526020018481526020013373ffffffffffffffffffffffffffffffffffffffff1681526020013073ffffffffffffffffffffffffffffffffffffffff16815260200183815260200160001515815250600560008581526020019081526020016000206000820151816000015560208201518160010160006101000a81548173ffffffffffffffffffffffffffffffffffffffff021916908373ffffffffffffffffffffffffffffffffffffffff1602179055506040820151816002015560608201518160030160006101000a81548173ffffffffffffffffffffffffffffffffffffffff021916908373ffffffffffffffffffffffffffffffffffffffff16021790555060808201518160040160006101000a81548173ffffffffffffffffffffffffffffffffffffffff021916908373ffffffffffffffffffffffffffffffffffffffff16021790555060a0820151816005015560c08201518160060160006101000a81548160ff0219169083151502179055509050508373ffffffffffffffffffffffffffffffffffffffff166323b872dd3330866040518463ffffffff1660e01b8152600401610f9293929190611ef2565b600060405180830381600087803b158015610fac57600080fd5b505af1158015610fc0573d6000803e3d6000fd5b50505050827f045dfa01dcba2b36aba1d3dc4a874f4b0c5d2fbeb8d2c4b34a7d88c8d8f929d182863330876000604051610fff96959493929190612086565b60405180910390a2506001600081905550505050565b3373ffffffffffffffffffffffffffffffffffffffff16600460009054906101000a900473ffffffffffffffffffffffffffffffffffffffff1673ffffffffffffffffffffffffffffffffffffffff16146110a5576040517f08c379a000000000000000000000000000000000000000000000000000000000815260040161109c90611feb565b60405180910390fd5b8060038190555050565b3373ffffffffffffffffffffffffffffffffffffffff166005600084815260200190815260200160002060040160009054906101000a900473ffffffffffffffffffffffffffffffffffffffff1673ffffffffffffffffffffffffffffffffffffffff1614611153576040517f08c379a000000000000000000000000000000000000000000000000000000000815260040161114a90611fab565b60405180910390fd5b6003543414611197576040517f08c379a000000000000000000000000000000000000000000000000000000000815260040161118e90611fcb565b60405180910390fd5b60006005600084815260200190815260200160002060060160006101000a81548160ff021916908315150217905550806005600084815260200190815260200160002060050181905550336005600084815260200190815260200160002060030160006101000a81548173ffffffffffffffffffffffffffffffffffffffff021916908373ffffffffffffffffffffffffffffffffffffffff160217905550306005600084815260200190815260200160002060040160006101000a81548173ffffffffffffffffffffffffffffffffffffffff021916908373ffffffffffffffffffffffffffffffffffffffff1602179055506112956002611a66565b8273ffffffffffffffffffffffffffffffffffffffff166323b872dd3330856040518463ffffffff1660e01b81526004016112d293929190611ef2565b600060405180830381600087803b1580156112ec57600080fd5b505af1158015611300573d6000803e3d6000fd5b50505050505050565b6002600054141561134f576040517f08c379a00000000000000000000000000000000000000000000000000000000081526004016113469061202b565b60405180910390fd5b600260008190555060006005600083815260200190815260200160002060050154905060006005600084815260200190815260200160002060030160009054906101000a900473ffffffffffffffffffffffffffffffffffffffff1690508134146113ef576040517f08c379a00000000000000000000000000000000000000000000000000000000081526004016113e690611f6b565b60405180910390fd5b3073ffffffffffffffffffffffffffffffffffffffff166005600085815260200190815260200160002060040160009054906101000a900473ffffffffffffffffffffffffffffffffffffffff1673ffffffffffffffffffffffffffffffffffffffff1614611493576040517f08c379a000000000000000000000000000000000000000000000000000000000815260040161148a90611f8b565b60405180910390fd5b336005600085815260200190815260200160002060040160006101000a81548173ffffffffffffffffffffffffffffffffffffffff021916908373ffffffffffffffffffffffffffffffffffffffff16021790555060016005600085815260200190815260200160002060060160006101000a81548160ff02191690831515021790555060006005600085815260200190815260200160002060030160006101000a81548173ffffffffffffffffffffffffffffffffffffffff021916908373ffffffffffffffffffffffffffffffffffffffff1602179055506115776002611a50565b8373ffffffffffffffffffffffffffffffffffffffff166323b872dd3033866040518463ffffffff1660e01b81526004016115b493929190611ef2565b600060405180830381600087803b1580156115ce57600080fd5b505af11580156115e2573d6000803e3d6000fd5b50505050600460009054906101000a900473ffffffffffffffffffffffffffffffffffffffff1673ffffffffffffffffffffffffffffffffffffffff166108fc6003549081150290604051600060405180830381858888f19350505050158015611650573d6000803e3d6000fd5b508073ffffffffffffffffffffffffffffffffffffffff166108fc349081150290604051600060405180830381858888f19350505050158015611697573d6000803e3d6000fd5b50505060016000819055505050565b606060006116b46001611a42565b905060008060005b8381101561175d578573ffffffffffffffffffffffffffffffffffffffff16600560006001846116ec9190612131565b815260200190815260200160002060040160009054906101000a900473ffffffffffffffffffffffffffffffffffffffff1673ffffffffffffffffffffffffffffffffffffffff16141561174a576001836117479190612131565b92505b808061175590612215565b9150506116bc565b5060008267ffffffffffffffff8111156117a0577f4e487b7100000000000000000000000000000000000000000000000000000000600052604160045260246000fd5b6040519080825280602002602001820160405280156117d957816020015b6117c6611ac2565b8152602001906001900390816117be5790505b50905060005b84811015611a35578673ffffffffffffffffffffffffffffffffffffffff166005600060018461180f9190612131565b815260200190815260200160002060040160009054906101000a900473ffffffffffffffffffffffffffffffffffffffff1673ffffffffffffffffffffffffffffffffffffffff161415611a2257600060018261186c9190612131565b90506000600560008381526020019081526020016000209050806040518060e0016040529081600082015481526020016001820160009054906101000a900473ffffffffffffffffffffffffffffffffffffffff1673ffffffffffffffffffffffffffffffffffffffff1673ffffffffffffffffffffffffffffffffffffffff168152602001600282015481526020016003820160009054906101000a900473ffffffffffffffffffffffffffffffffffffffff1673ffffffffffffffffffffffffffffffffffffffff1673ffffffffffffffffffffffffffffffffffffffff1681526020016004820160009054906101000a900473ffffffffffffffffffffffffffffffffffffffff1673ffffffffffffffffffffffffffffffffffffffff1673ffffffffffffffffffffffffffffffffffffffff168152602001600582015481526020016006820160009054906101000a900460ff161515151581525050848681518110611a05577f4e487b7100000000000000000000000000000000000000000000000000000000600052603260045260246000fd5b6020026020010181905250600185611a1d9190612131565b945050505b8080611a2d90612215565b9150506117df565b5080945050505050919050565b600081600001549050919050565b6001816000016000828254019250508190555050565b60008160000154905060008111611ab2576040517f08c379a0000000000000000000000000000000000000000000000000000000008152600401611aa990611f4b565b60405180910390fd5b6001810382600001819055505050565b6040518060e0016040528060008152602001600073ffffffffffffffffffffffffffffffffffffffff16815260200160008152602001600073ffffffffffffffffffffffffffffffffffffffff168152602001600073ffffffffffffffffffffffffffffffffffffffff168152602001600081526020016000151581525090565b600081359050611b52816124e2565b92915050565b600081359050611b67816124f9565b92915050565b600060208284031215611b7f57600080fd5b6000611b8d84828501611b43565b91505092915050565b60008060408385031215611ba957600080fd5b6000611bb785828601611b43565b9250506020611bc885828601611b58565b9150509250929050565b600080600060608486031215611be757600080fd5b6000611bf586828701611b43565b9350506020611c0686828701611b58565b9250506040611c1786828701611b58565b9150509250925092565b600060208284031215611c3357600080fd5b6000611c4184828501611b58565b91505092915050565b6000611c568383611e46565b60e08301905092915050565b611c6b816121cd565b82525050565b611c7a816121bb565b82525050565b611c89816121bb565b82525050565b6000611c9a826120f7565b611ca4818561210f565b9350611caf836120e7565b8060005b83811015611ce0578151611cc78882611c4a565b9750611cd283612102565b925050600181019050611cb3565b5085935050505092915050565b611cf6816121df565b82525050565b611d05816121df565b82525050565b6000611d18601b83612120565b9150611d238261228d565b602082019050919050565b6000611d3b604083612120565b9150611d46826122b6565b604082019050919050565b6000611d5e602683612120565b9150611d6982612305565b604082019050919050565b6000611d81602a83612120565b9150611d8c82612354565b604082019050919050565b6000611da4602483612120565b9150611daf826123a3565b604082019050919050565b6000611dc7603083612120565b9150611dd2826123f2565b604082019050919050565b6000611dea603c83612120565b9150611df582612441565b604082019050919050565b6000611e0d601f83612120565b9150611e1882612490565b602082019050919050565b6000611e30601c83612120565b9150611e3b826124b9565b602082019050919050565b60e082016000820151611e5c6000850182611ed4565b506020820151611e6f6020850182611c71565b506040820151611e826040850182611ed4565b506060820151611e956060850182611c62565b506080820151611ea86080850182611c62565b5060a0820151611ebb60a0850182611ed4565b5060c0820151611ece60c0850182611ced565b50505050565b611edd8161220b565b82525050565b611eec8161220b565b82525050565b6000606082019050611f076000830186611c80565b611f146020830185611c80565b611f216040830184611ee3565b949350505050565b60006020820190508181036000830152611f438184611c8f565b905092915050565b60006020820190508181036000830152611f6481611d0b565b9050919050565b60006020820190508181036000830152611f8481611d2e565b9050919050565b60006020820190508181036000830152611fa481611d51565b9050919050565b60006020820190508181036000830152611fc481611d74565b9050919050565b60006020820190508181036000830152611fe481611d97565b9050919050565b6000602082019050818103600083015261200481611dba565b9050919050565b6000602082019050818103600083015261202481611ddd565b9050919050565b6000602082019050818103600083015261204481611e00565b9050919050565b6000602082019050818103600083015261206481611e23565b9050919050565b60006020820190506120806000830184611ee3565b92915050565b600060c08201905061209b6000830189611ee3565b6120a86020830188611c80565b6120b56040830187611c80565b6120c26060830186611c80565b6120cf6080830185611ee3565b6120dc60a0830184611cfc565b979650505050505050565b6000819050602082019050919050565b600081519050919050565b6000602082019050919050565b600082825260208201905092915050565b600082825260208201905092915050565b600061213c8261220b565b91506121478361220b565b9250827fffffffffffffffffffffffffffffffffffffffffffffffffffffffffffffffff0382111561217c5761217b61225e565b5b828201905092915050565b60006121928261220b565b915061219d8361220b565b9250828210156121b0576121af61225e565b5b828203905092915050565b60006121c6826121eb565b9050919050565b60006121d8826121eb565b9050919050565b60008115159050919050565b600073ffffffffffffffffffffffffffffffffffffffff82169050919050565b6000819050919050565b60006122208261220b565b91507fffffffffffffffffffffffffffffffffffffffffffffffffffffffffffffffff8214156122535761225261225e565b5b600182019050919050565b7f4e487b7100000000000000000000000000000000000000000000000000000000600052601160045260246000fd5b7f436f756e7465723a2064656372656d656e74206f766572666c6f770000000000600082015250565b7f506c65617365207375626d6974207468652061736b696e67207072696365206960008201527f6e206f7264657220746f20636f6d706c65746520746865207075726368617365602082015250565b7f546865206974656d206e6565647320746f206265206c697374656420746f206260008201527f6520736f6c640000000000000000000000000000000000000000000000000000602082015250565b7f4f6e6c79206974656d206f776e65722063616e20706572666f726d207468697360008201527f206f7065726174696f6e00000000000000000000000000000000000000000000602082015250565b7f5072696365206d75737420626520657175616c20746f206c697374696e67207060008201527f7269636500000000000000000000000000000000000000000000000000000000602082015250565b7f4f6e6c79206d61726b6574706c616365206f776e65722063616e20757064617460008201527f65206c697374696e672070726963652e00000000000000000000000000000000602082015250565b7f4f6e6c79206d61726b6574706c616365206f776e65722063616e20637265617460008201527f65206e6577204e4654206d61726b6574206173736f63696174696f6e00000000602082015250565b7f5265656e7472616e637947756172643a207265656e7472616e742063616c6c00600082015250565b7f5072696365206d757374206265206174206c6561737420312077656900000000600082015250565b6124eb816121bb565b81146124f657600080fd5b50565b6125028161220b565b811461250d57600080fd5b5056fea26469706673582212207819ef87fd739e9b2dac46a133d97d3f287d704ae52b581ca444599e15ca579b64736f6c63430008040033",
  "linkReferences": {},
  "deployedLinkReferences": {}
}