{
  "_format": "hh-sol-artifact-1",
  "contractName": "NFTMarketplace",
  "sourceName": "contracts/NFTMarketplace.sol",
  "abi": [
    {
      "inputs": [],
      "stateMutability": "nonpayable",
      "type": "constructor"
    },
    {
      "anonymous": false,
      "inputs": [
        {
          "indexed": false,
          "internalType": "uint256",
          "name": "itemId",
          "type": "uint256"
        },
        {
          "indexed": false,
          "internalType": "address",
          "name": "nftContract",
          "type": "address"
        },
        {
          "indexed": true,
          "internalType": "uint256",
          "name": "tokenId",
          "type": "uint256"
        },
        {
          "indexed": false,
          "internalType": "address",
          "name": "seller",
          "type": "address"
        },
        {
          "indexed": false,
          "internalType": "address",
          "name": "owner",
          "type": "address"
        },
        {
          "indexed": false,
          "internalType": "uint256",
          "name": "price",
          "type": "uint256"
        },
        {
          "indexed": false,
          "internalType": "bool",
          "name": "sold",
          "type": "bool"
        }
      ],
      "name": "MarketItemCreated",
      "type": "event"
    },
    {
      "inputs": [
        {
          "internalType": "address",
          "name": "nftContract",
          "type": "address"
        },
        {
          "internalType": "uint256",
          "name": "tokenId",
          "type": "uint256"
        },
        {
          "internalType": "uint256",
          "name": "price",
          "type": "uint256"
        }
      ],
      "name": "createMarketItem",
      "outputs": [],
      "stateMutability": "payable",
      "type": "function"
    },
    {
      "inputs": [
        {
          "internalType": "address",
          "name": "nftContract",
          "type": "address"
        },
        {
          "internalType": "uint256",
          "name": "tokenId",
          "type": "uint256"
        }
      ],
      "name": "createMarketSale",
      "outputs": [],
      "stateMutability": "payable",
      "type": "function"
    },
    {
      "inputs": [],
      "name": "fetchItemsListed",
      "outputs": [
        {
          "components": [
            {
              "internalType": "uint256",
              "name": "itemId",
              "type": "uint256"
            },
            {
              "internalType": "address",
              "name": "nftContract",
              "type": "address"
            },
            {
              "internalType": "uint256",
              "name": "tokenId",
              "type": "uint256"
            },
            {
              "internalType": "address payable",
              "name": "seller",
              "type": "address"
            },
            {
              "internalType": "address payable",
              "name": "owner",
              "type": "address"
            },
            {
              "internalType": "uint256",
              "name": "price",
              "type": "uint256"
            },
            {
              "internalType": "bool",
              "name": "sold",
              "type": "bool"
            }
          ],
          "internalType": "struct NFTMarketplace.MarketItem[]",
          "name": "",
          "type": "tuple[]"
        }
      ],
      "stateMutability": "view",
      "type": "function"
    },
    {
      "inputs": [],
      "name": "fetchMarketItems",
      "outputs": [
        {
          "components": [
            {
              "internalType": "uint256",
              "name": "itemId",
              "type": "uint256"
            },
            {
              "internalType": "address",
              "name": "nftContract",
              "type": "address"
            },
            {
              "internalType": "uint256",
              "name": "tokenId",
              "type": "uint256"
            },
            {
              "internalType": "address payable",
              "name": "seller",
              "type": "address"
            },
            {
              "internalType": "address payable",
              "name": "owner",
              "type": "address"
            },
            {
              "internalType": "uint256",
              "name": "price",
              "type": "uint256"
            },
            {
              "internalType": "bool",
              "name": "sold",
              "type": "bool"
            }
          ],
          "internalType": "struct NFTMarketplace.MarketItem[]",
          "name": "",
          "type": "tuple[]"
        }
      ],
      "stateMutability": "view",
      "type": "function"
    },
    {
      "inputs": [],
      "name": "fetchMyNFTs",
      "outputs": [
        {
          "components": [
            {
              "internalType": "uint256",
              "name": "itemId",
              "type": "uint256"
            },
            {
              "internalType": "address",
              "name": "nftContract",
              "type": "address"
            },
            {
              "internalType": "uint256",
              "name": "tokenId",
              "type": "uint256"
            },
            {
              "internalType": "address payable",
              "name": "seller",
              "type": "address"
            },
            {
              "internalType": "address payable",
              "name": "owner",
              "type": "address"
            },
            {
              "internalType": "uint256",
              "name": "price",
              "type": "uint256"
            },
            {
              "internalType": "bool",
              "name": "sold",
              "type": "bool"
            }
          ],
          "internalType": "struct NFTMarketplace.MarketItem[]",
          "name": "",
          "type": "tuple[]"
        }
      ],
      "stateMutability": "view",
      "type": "function"
    },
    {
      "inputs": [
        {
          "internalType": "address",
          "name": "userAddress",
          "type": "address"
        }
      ],
      "name": "fetchNFTsByUserAddress",
      "outputs": [
        {
          "components": [
            {
              "internalType": "uint256",
              "name": "itemId",
              "type": "uint256"
            },
            {
              "internalType": "address",
              "name": "nftContract",
              "type": "address"
            },
            {
              "internalType": "uint256",
              "name": "tokenId",
              "type": "uint256"
            },
            {
              "internalType": "address payable",
              "name": "seller",
              "type": "address"
            },
            {
              "internalType": "address payable",
              "name": "owner",
              "type": "address"
            },
            {
              "internalType": "uint256",
              "name": "price",
              "type": "uint256"
            },
            {
              "internalType": "bool",
              "name": "sold",
              "type": "bool"
            }
          ],
          "internalType": "struct NFTMarketplace.MarketItem[]",
          "name": "",
          "type": "tuple[]"
        }
      ],
      "stateMutability": "view",
      "type": "function"
    },
    {
      "inputs": [],
      "name": "getListingPrice",
      "outputs": [
        {
          "internalType": "uint256",
          "name": "",
          "type": "uint256"
        }
      ],
      "stateMutability": "view",
      "type": "function"
    },
    {
      "inputs": [
        {
          "internalType": "address",
          "name": "nftContract",
          "type": "address"
        },
        {
          "internalType": "uint256",
          "name": "tokenId",
          "type": "uint256"
        },
        {
          "internalType": "uint256",
          "name": "price",
          "type": "uint256"
        }
      ],
      "name": "resellToken",
      "outputs": [],
      "stateMutability": "payable",
      "type": "function"
    },
    {
      "inputs": [
        {
          "internalType": "address",
          "name": "nftContract",
          "type": "address"
        },
        {
          "internalType": "uint256",
          "name": "tokenId",
          "type": "uint256"
        }
      ],
      "name": "unListNFT",
      "outputs": [],
      "stateMutability": "payable",
      "type": "function"
    },
    {
      "inputs": [
        {
          "internalType": "uint256",
          "name": "_listingPrice",
          "type": "uint256"
        }
      ],
      "name": "updateListingPrice",
      "outputs": [],
      "stateMutability": "payable",
      "type": "function"
    }
  ],
  "bytecode": "0x60806040526658d15e1762800060045534801561001b57600080fd5b50600160008190555033600560006101000a81548173ffffffffffffffffffffffffffffffffffffffff021916908373ffffffffffffffffffffffffffffffffffffffff1602179055506127bf806100746000396000f3fe6080604052600436106100915760003560e01c8063ae677aa311610059578063ae677aa31461015e578063b23e1ad91461017a578063c23b139e14610196578063df299811146101b2578063ef76f64a146101ef57610091565b80630f08efe01461009657806312e85585146100c1578063202e3740146100ec57806345f8fa801461011757806358eb2df514610142575b600080fd5b3480156100a257600080fd5b506100ab61020b565b6040516100b891906121a2565b60405180910390f35b3480156100cd57600080fd5b506100d6610520565b6040516100e391906122e4565b60405180910390f35b3480156100f857600080fd5b5061010161052a565b60405161010e91906121a2565b60405180910390f35b34801561012357600080fd5b5061012c6108c4565b60405161013991906121a2565b60405180910390f35b61015c60048036038101906101579190611e4b565b610c5e565b005b61017860048036038101906101739190611e9a565b61103c565b005b610194600480360381019061018f9190611e4b565b6110d6565b005b6101b060048036038101906101ab9190611e0f565b611330565b005b3480156101be57600080fd5b506101d960048036038101906101d49190611de6565b6116cd565b6040516101e691906121a2565b60405180910390f35b61020960048036038101906102049190611e0f565b611a69565b005b606060006102196001611cbb565b905060006102276002611cbb565b6102316001611cbb565b61023b9190612400565b90506000808267ffffffffffffffff811115610280577f4e487b7100000000000000000000000000000000000000000000000000000000600052604160045260246000fd5b6040519080825280602002602001820160405280156102b957816020015b6102a6611d3b565b81526020019060019003908161029e5790505b50905060005b84811015610515573073ffffffffffffffffffffffffffffffffffffffff16600660006001846102ef91906123aa565b815260200190815260200160002060040160009054906101000a900473ffffffffffffffffffffffffffffffffffffffff1673ffffffffffffffffffffffffffffffffffffffff16141561050257600060018261034c91906123aa565b90506000600660008381526020019081526020016000209050806040518060e0016040529081600082015481526020016001820160009054906101000a900473ffffffffffffffffffffffffffffffffffffffff1673ffffffffffffffffffffffffffffffffffffffff1673ffffffffffffffffffffffffffffffffffffffff168152602001600282015481526020016003820160009054906101000a900473ffffffffffffffffffffffffffffffffffffffff1673ffffffffffffffffffffffffffffffffffffffff1673ffffffffffffffffffffffffffffffffffffffff1681526020016004820160009054906101000a900473ffffffffffffffffffffffffffffffffffffffff1673ffffffffffffffffffffffffffffffffffffffff1673ffffffffffffffffffffffffffffffffffffffff168152602001600582015481526020016006820160009054906101000a900460ff1615151515815250508486815181106104e5577f4e487b7100000000000000000000000000000000000000000000000000000000600052603260045260246000fd5b60200260200101819052506001856104fd91906123aa565b945050505b808061050d9061248e565b9150506102bf565b508094505050505090565b6000600454905090565b606060006105386001611cbb565b905060008060005b838110156105e1573373ffffffffffffffffffffffffffffffffffffffff166006600060018461057091906123aa565b815260200190815260200160002060040160009054906101000a900473ffffffffffffffffffffffffffffffffffffffff1673ffffffffffffffffffffffffffffffffffffffff1614156105ce576001836105cb91906123aa565b92505b80806105d99061248e565b915050610540565b5060008267ffffffffffffffff811115610624577f4e487b7100000000000000000000000000000000000000000000000000000000600052604160045260246000fd5b60405190808252806020026020018201604052801561065d57816020015b61064a611d3b565b8152602001906001900390816106425790505b50905060005b848110156108b9573373ffffffffffffffffffffffffffffffffffffffff166006600060018461069391906123aa565b815260200190815260200160002060040160009054906101000a900473ffffffffffffffffffffffffffffffffffffffff1673ffffffffffffffffffffffffffffffffffffffff1614156108a65760006001826106f091906123aa565b90506000600660008381526020019081526020016000209050806040518060e0016040529081600082015481526020016001820160009054906101000a900473ffffffffffffffffffffffffffffffffffffffff1673ffffffffffffffffffffffffffffffffffffffff1673ffffffffffffffffffffffffffffffffffffffff168152602001600282015481526020016003820160009054906101000a900473ffffffffffffffffffffffffffffffffffffffff1673ffffffffffffffffffffffffffffffffffffffff1673ffffffffffffffffffffffffffffffffffffffff1681526020016004820160009054906101000a900473ffffffffffffffffffffffffffffffffffffffff1673ffffffffffffffffffffffffffffffffffffffff1673ffffffffffffffffffffffffffffffffffffffff168152602001600582015481526020016006820160009054906101000a900460ff161515151581525050848681518110610889577f4e487b7100000000000000000000000000000000000000000000000000000000600052603260045260246000fd5b60200260200101819052506001856108a191906123aa565b945050505b80806108b19061248e565b915050610663565b508094505050505090565b606060006108d26001611cbb565b905060008060005b8381101561097b573373ffffffffffffffffffffffffffffffffffffffff166006600060018461090a91906123aa565b815260200190815260200160002060030160009054906101000a900473ffffffffffffffffffffffffffffffffffffffff1673ffffffffffffffffffffffffffffffffffffffff1614156109685760018361096591906123aa565b92505b80806109739061248e565b9150506108da565b5060008267ffffffffffffffff8111156109be577f4e487b7100000000000000000000000000000000000000000000000000000000600052604160045260246000fd5b6040519080825280602002602001820160405280156109f757816020015b6109e4611d3b565b8152602001906001900390816109dc5790505b50905060005b84811015610c53573373ffffffffffffffffffffffffffffffffffffffff1660066000600184610a2d91906123aa565b815260200190815260200160002060030160009054906101000a900473ffffffffffffffffffffffffffffffffffffffff1673ffffffffffffffffffffffffffffffffffffffff161415610c40576000600182610a8a91906123aa565b90506000600660008381526020019081526020016000209050806040518060e0016040529081600082015481526020016001820160009054906101000a900473ffffffffffffffffffffffffffffffffffffffff1673ffffffffffffffffffffffffffffffffffffffff1673ffffffffffffffffffffffffffffffffffffffff168152602001600282015481526020016003820160009054906101000a900473ffffffffffffffffffffffffffffffffffffffff1673ffffffffffffffffffffffffffffffffffffffff1673ffffffffffffffffffffffffffffffffffffffff1681526020016004820160009054906101000a900473ffffffffffffffffffffffffffffffffffffffff1673ffffffffffffffffffffffffffffffffffffffff1673ffffffffffffffffffffffffffffffffffffffff168152602001600582015481526020016006820160009054906101000a900460ff161515151581525050848681518110610c23577f4e487b7100000000000000000000000000000000000000000000000000000000600052603260045260246000fd5b6020026020010181905250600185610c3b91906123aa565b945050505b8080610c4b9061248e565b9150506109fd565b508094505050505090565b60026000541415610ca4576040517f08c379a0000000000000000000000000000000000000000000000000000000008152600401610c9b906122a4565b60405180910390fd5b60026000819055503373ffffffffffffffffffffffffffffffffffffffff16600560009054906101000a900473ffffffffffffffffffffffffffffffffffffffff1673ffffffffffffffffffffffffffffffffffffffff1614610d3c576040517f08c379a0000000000000000000000000000000000000000000000000000000008152600401610d3390612284565b60405180910390fd5b60008111610d7f576040517f08c379a0000000000000000000000000000000000000000000000000000000008152600401610d76906122c4565b60405180910390fd5b6004543414610dc3576040517f08c379a0000000000000000000000000000000000000000000000000000000008152600401610dba90612244565b60405180910390fd5b610dcd6001611cc9565b6000610dd96001611cbb565b90506040518060e001604052808281526020018573ffffffffffffffffffffffffffffffffffffffff1681526020018481526020013373ffffffffffffffffffffffffffffffffffffffff1681526020013073ffffffffffffffffffffffffffffffffffffffff16815260200183815260200160001515815250600660008581526020019081526020016000206000820151816000015560208201518160010160006101000a81548173ffffffffffffffffffffffffffffffffffffffff021916908373ffffffffffffffffffffffffffffffffffffffff1602179055506040820151816002015560608201518160030160006101000a81548173ffffffffffffffffffffffffffffffffffffffff021916908373ffffffffffffffffffffffffffffffffffffffff16021790555060808201518160040160006101000a81548173ffffffffffffffffffffffffffffffffffffffff021916908373ffffffffffffffffffffffffffffffffffffffff16021790555060a0820151816005015560c08201518160060160006101000a81548160ff0219169083151502179055509050508373ffffffffffffffffffffffffffffffffffffffff166323b872dd3330866040518463ffffffff1660e01b8152600401610fb99392919061216b565b600060405180830381600087803b158015610fd357600080fd5b505af1158015610fe7573d6000803e3d6000fd5b50505050827f045dfa01dcba2b36aba1d3dc4a874f4b0c5d2fbeb8d2c4b34a7d88c8d8f929d182863330876000604051611026969594939291906122ff565b60405180910390a2506001600081905550505050565b3373ffffffffffffffffffffffffffffffffffffffff16600560009054906101000a900473ffffffffffffffffffffffffffffffffffffffff1673ffffffffffffffffffffffffffffffffffffffff16146110cc576040517f08c379a00000000000000000000000000000000000000000000000000000000081526004016110c390612264565b60405180910390fd5b8060048190555050565b3373ffffffffffffffffffffffffffffffffffffffff166006600084815260200190815260200160002060040160009054906101000a900473ffffffffffffffffffffffffffffffffffffffff1673ffffffffffffffffffffffffffffffffffffffff161461117a576040517f08c379a000000000000000000000000000000000000000000000000000000000815260040161117190612224565b60405180910390fd5b60045434146111be576040517f08c379a00000000000000000000000000000000000000000000000000000000081526004016111b590612244565b60405180910390fd5b60006006600084815260200190815260200160002060060160006101000a81548160ff021916908315150217905550806006600084815260200190815260200160002060050181905550336006600084815260200190815260200160002060030160006101000a81548173ffffffffffffffffffffffffffffffffffffffff021916908373ffffffffffffffffffffffffffffffffffffffff160217905550306006600084815260200190815260200160002060040160006101000a81548173ffffffffffffffffffffffffffffffffffffffff021916908373ffffffffffffffffffffffffffffffffffffffff1602179055506112bc6002611cdf565b8273ffffffffffffffffffffffffffffffffffffffff166323b872dd3330856040518463ffffffff1660e01b81526004016112f99392919061216b565b600060405180830381600087803b15801561131357600080fd5b505af1158015611327573d6000803e3d6000fd5b50505050505050565b60026000541415611376576040517f08c379a000000000000000000000000000000000000000000000000000000000815260040161136d906122a4565b60405180910390fd5b600260008190555060006006600083815260200190815260200160002060050154905060006006600084815260200190815260200160002060030160009054906101000a900473ffffffffffffffffffffffffffffffffffffffff169050813414611416576040517f08c379a000000000000000000000000000000000000000000000000000000000815260040161140d906121e4565b60405180910390fd5b3073ffffffffffffffffffffffffffffffffffffffff166006600085815260200190815260200160002060040160009054906101000a900473ffffffffffffffffffffffffffffffffffffffff1673ffffffffffffffffffffffffffffffffffffffff16146114ba576040517f08c379a00000000000000000000000000000000000000000000000000000000081526004016114b190612204565b60405180910390fd5b336006600085815260200190815260200160002060040160006101000a81548173ffffffffffffffffffffffffffffffffffffffff021916908373ffffffffffffffffffffffffffffffffffffffff16021790555060016006600085815260200190815260200160002060060160006101000a81548160ff02191690831515021790555060006006600085815260200190815260200160002060030160006101000a81548173ffffffffffffffffffffffffffffffffffffffff021916908373ffffffffffffffffffffffffffffffffffffffff16021790555061159e6002611cc9565b8373ffffffffffffffffffffffffffffffffffffffff166323b872dd3033866040518463ffffffff1660e01b81526004016115db9392919061216b565b600060405180830381600087803b1580156115f557600080fd5b505af1158015611609573d6000803e3d6000fd5b50505050600560009054906101000a900473ffffffffffffffffffffffffffffffffffffffff1673ffffffffffffffffffffffffffffffffffffffff166108fc6004549081150290604051600060405180830381858888f19350505050158015611677573d6000803e3d6000fd5b508073ffffffffffffffffffffffffffffffffffffffff166108fc349081150290604051600060405180830381858888f193505050501580156116be573d6000803e3d6000fd5b50505060016000819055505050565b606060006116db6001611cbb565b905060008060005b83811015611784578573ffffffffffffffffffffffffffffffffffffffff166006600060018461171391906123aa565b815260200190815260200160002060040160009054906101000a900473ffffffffffffffffffffffffffffffffffffffff1673ffffffffffffffffffffffffffffffffffffffff1614156117715760018361176e91906123aa565b92505b808061177c9061248e565b9150506116e3565b5060008267ffffffffffffffff8111156117c7577f4e487b7100000000000000000000000000000000000000000000000000000000600052604160045260246000fd5b60405190808252806020026020018201604052801561180057816020015b6117ed611d3b565b8152602001906001900390816117e55790505b50905060005b84811015611a5c578673ffffffffffffffffffffffffffffffffffffffff166006600060018461183691906123aa565b815260200190815260200160002060040160009054906101000a900473ffffffffffffffffffffffffffffffffffffffff1673ffffffffffffffffffffffffffffffffffffffff161415611a4957600060018261189391906123aa565b90506000600660008381526020019081526020016000209050806040518060e0016040529081600082015481526020016001820160009054906101000a900473ffffffffffffffffffffffffffffffffffffffff1673ffffffffffffffffffffffffffffffffffffffff1673ffffffffffffffffffffffffffffffffffffffff168152602001600282015481526020016003820160009054906101000a900473ffffffffffffffffffffffffffffffffffffffff1673ffffffffffffffffffffffffffffffffffffffff1673ffffffffffffffffffffffffffffffffffffffff1681526020016004820160009054906101000a900473ffffffffffffffffffffffffffffffffffffffff1673ffffffffffffffffffffffffffffffffffffffff1673ffffffffffffffffffffffffffffffffffffffff168152602001600582015481526020016006820160009054906101000a900460ff161515151581525050848681518110611a2c577f4e487b7100000000000000000000000000000000000000000000000000000000600052603260045260246000fd5b6020026020010181905250600185611a4491906123aa565b945050505b8080611a549061248e565b915050611806565b5080945050505050919050565b60026000541415611aaf576040517f08c379a0000000000000000000000000000000000000000000000000000000008152600401611aa6906122a4565b60405180910390fd5b60026000819055503373ffffffffffffffffffffffffffffffffffffffff166006600083815260200190815260200160002060040160009054906101000a900473ffffffffffffffffffffffffffffffffffffffff1673ffffffffffffffffffffffffffffffffffffffff1614611b5b576040517f08c379a0000000000000000000000000000000000000000000000000000000008152600401611b5290612224565b60405180910390fd5b60016006600083815260200190815260200160002060060160006101000a81548160ff021916908315150217905550336006600083815260200190815260200160002060030160006101000a81548173ffffffffffffffffffffffffffffffffffffffff021916908373ffffffffffffffffffffffffffffffffffffffff16021790555060006006600083815260200190815260200160002060040160006101000a81548173ffffffffffffffffffffffffffffffffffffffff021916908373ffffffffffffffffffffffffffffffffffffffff160217905550611c3f6002611cdf565b8173ffffffffffffffffffffffffffffffffffffffff166323b872dd600033846040518463ffffffff1660e01b8152600401611c7d9392919061216b565b600060405180830381600087803b158015611c9757600080fd5b505af1158015611cab573d6000803e3d6000fd5b5050505060016000819055505050565b600081600001549050919050565b6001816000016000828254019250508190555050565b60008160000154905060008111611d2b576040517f08c379a0000000000000000000000000000000000000000000000000000000008152600401611d22906121c4565b60405180910390fd5b6001810382600001819055505050565b6040518060e0016040528060008152602001600073ffffffffffffffffffffffffffffffffffffffff16815260200160008152602001600073ffffffffffffffffffffffffffffffffffffffff168152602001600073ffffffffffffffffffffffffffffffffffffffff168152602001600081526020016000151581525090565b600081359050611dcb8161275b565b92915050565b600081359050611de081612772565b92915050565b600060208284031215611df857600080fd5b6000611e0684828501611dbc565b91505092915050565b60008060408385031215611e2257600080fd5b6000611e3085828601611dbc565b9250506020611e4185828601611dd1565b9150509250929050565b600080600060608486031215611e6057600080fd5b6000611e6e86828701611dbc565b9350506020611e7f86828701611dd1565b9250506040611e9086828701611dd1565b9150509250925092565b600060208284031215611eac57600080fd5b6000611eba84828501611dd1565b91505092915050565b6000611ecf83836120bf565b60e08301905092915050565b611ee481612446565b82525050565b611ef381612434565b82525050565b611f0281612434565b82525050565b6000611f1382612370565b611f1d8185612388565b9350611f2883612360565b8060005b83811015611f59578151611f408882611ec3565b9750611f4b8361237b565b925050600181019050611f2c565b5085935050505092915050565b611f6f81612458565b82525050565b611f7e81612458565b82525050565b6000611f91601b83612399565b9150611f9c82612506565b602082019050919050565b6000611fb4604083612399565b9150611fbf8261252f565b604082019050919050565b6000611fd7602683612399565b9150611fe28261257e565b604082019050919050565b6000611ffa602a83612399565b9150612005826125cd565b604082019050919050565b600061201d602483612399565b91506120288261261c565b604082019050919050565b6000612040603083612399565b915061204b8261266b565b604082019050919050565b6000612063603c83612399565b915061206e826126ba565b604082019050919050565b6000612086601f83612399565b915061209182612709565b602082019050919050565b60006120a9601c83612399565b91506120b482612732565b602082019050919050565b60e0820160008201516120d5600085018261214d565b5060208201516120e86020850182611eea565b5060408201516120fb604085018261214d565b50606082015161210e6060850182611edb565b5060808201516121216080850182611edb565b5060a082015161213460a085018261214d565b5060c082015161214760c0850182611f66565b50505050565b61215681612484565b82525050565b61216581612484565b82525050565b60006060820190506121806000830186611ef9565b61218d6020830185611ef9565b61219a604083018461215c565b949350505050565b600060208201905081810360008301526121bc8184611f08565b905092915050565b600060208201905081810360008301526121dd81611f84565b9050919050565b600060208201905081810360008301526121fd81611fa7565b9050919050565b6000602082019050818103600083015261221d81611fca565b9050919050565b6000602082019050818103600083015261223d81611fed565b9050919050565b6000602082019050818103600083015261225d81612010565b9050919050565b6000602082019050818103600083015261227d81612033565b9050919050565b6000602082019050818103600083015261229d81612056565b9050919050565b600060208201905081810360008301526122bd81612079565b9050919050565b600060208201905081810360008301526122dd8161209c565b9050919050565b60006020820190506122f9600083018461215c565b92915050565b600060c082019050612314600083018961215c565b6123216020830188611ef9565b61232e6040830187611ef9565b61233b6060830186611ef9565b612348608083018561215c565b61235560a0830184611f75565b979650505050505050565b6000819050602082019050919050565b600081519050919050565b6000602082019050919050565b600082825260208201905092915050565b600082825260208201905092915050565b60006123b582612484565b91506123c083612484565b9250827fffffffffffffffffffffffffffffffffffffffffffffffffffffffffffffffff038211156123f5576123f46124d7565b5b828201905092915050565b600061240b82612484565b915061241683612484565b925082821015612429576124286124d7565b5b828203905092915050565b600061243f82612464565b9050919050565b600061245182612464565b9050919050565b60008115159050919050565b600073ffffffffffffffffffffffffffffffffffffffff82169050919050565b6000819050919050565b600061249982612484565b91507fffffffffffffffffffffffffffffffffffffffffffffffffffffffffffffffff8214156124cc576124cb6124d7565b5b600182019050919050565b7f4e487b7100000000000000000000000000000000000000000000000000000000600052601160045260246000fd5b7f436f756e7465723a2064656372656d656e74206f766572666c6f770000000000600082015250565b7f506c65617365207375626d6974207468652061736b696e67207072696365206960008201527f6e206f7264657220746f20636f6d706c65746520746865207075726368617365602082015250565b7f546865206974656d206e6565647320746f206265206c697374656420746f206260008201527f6520736f6c640000000000000000000000000000000000000000000000000000602082015250565b7f4f6e6c79206974656d206f776e65722063616e20706572666f726d207468697360008201527f206f7065726174696f6e00000000000000000000000000000000000000000000602082015250565b7f5072696365206d75737420626520657175616c20746f206c697374696e67207060008201527f7269636500000000000000000000000000000000000000000000000000000000602082015250565b7f4f6e6c79206d61726b6574706c616365206f776e65722063616e20757064617460008201527f65206c697374696e672070726963652e00000000000000000000000000000000602082015250565b7f4f6e6c79206d61726b6574706c616365206f776e65722063616e20637265617460008201527f65206e6577204e4654206d61726b6574206173736f63696174696f6e00000000602082015250565b7f5265656e7472616e637947756172643a207265656e7472616e742063616c6c00600082015250565b7f5072696365206d757374206265206174206c6561737420312077656900000000600082015250565b61276481612434565b811461276f57600080fd5b50565b61277b81612484565b811461278657600080fd5b5056fea2646970667358221220fddbda8160066d34f99f5f0c8792a7e02799da698c9aa8f2f48e9b7fa328b54764736f6c63430008040033",
  "linkReferences": {},
  "deployedLinkReferences": {}
}