{
  "_format": "hh-sol-artifact-1",
  "contractName": "NFT",
  "sourceName": "contracts/NFT.sol",
  "abi": [
    {
      "inputs": [
        {
          "internalType": "address",
          "name": "marketplaceAddress",
          "type": "address"
        }
      ],
      "stateMutability": "nonpayable",
      "type": "constructor"
    },
    {
      "anonymous": false,
      "inputs": [
        {
          "indexed": true,
          "internalType": "address",
          "name": "owner",
          "type": "address"
        },
        {
          "indexed": true,
          "internalType": "address",
          "name": "approved",
          "type": "address"
        },
        {
          "indexed": true,
          "internalType": "uint256",
          "name": "tokenId",
          "type": "uint256"
        }
      ],
      "name": "Approval",
      "type": "event"
    },
    {
      "anonymous": false,
      "inputs": [
        {
          "indexed": true,
          "internalType": "address",
          "name": "owner",
          "type": "address"
        },
        {
          "indexed": true,
          "internalType": "address",
          "name": "operator",
          "type": "address"
        },
        {
          "indexed": false,
          "internalType": "bool",
          "name": "approved",
          "type": "bool"
        }
      ],
      "name": "ApprovalForAll",
      "type": "event"
    },
    {
      "anonymous": false,
      "inputs": [
        {
          "indexed": true,
          "internalType": "address",
          "name": "from",
          "type": "address"
        },
        {
          "indexed": true,
          "internalType": "address",
          "name": "to",
          "type": "address"
        },
        {
          "indexed": true,
          "internalType": "uint256",
          "name": "tokenId",
          "type": "uint256"
        }
      ],
      "name": "Transfer",
      "type": "event"
    },
    {
      "inputs": [
        {
          "internalType": "address",
          "name": "to",
          "type": "address"
        },
        {
          "internalType": "uint256",
          "name": "tokenId",
          "type": "uint256"
        }
      ],
      "name": "approve",
      "outputs": [],
      "stateMutability": "nonpayable",
      "type": "function"
    },
    {
      "inputs": [
        {
          "internalType": "address",
          "name": "owner",
          "type": "address"
        }
      ],
      "name": "balanceOf",
      "outputs": [
        {
          "internalType": "uint256",
          "name": "",
          "type": "uint256"
        }
      ],
      "stateMutability": "view",
      "type": "function"
    },
    {
      "inputs": [
        {
          "internalType": "string",
          "name": "tokenURI",
          "type": "string"
        },
        {
          "internalType": "string",
          "name": "meta",
          "type": "string"
        }
      ],
      "name": "createToken",
      "outputs": [
        {
          "internalType": "uint256",
          "name": "",
          "type": "uint256"
        }
      ],
      "stateMutability": "nonpayable",
      "type": "function"
    },
    {
      "inputs": [
        {
          "internalType": "uint256",
          "name": "tokenId",
          "type": "uint256"
        }
      ],
      "name": "getApproved",
      "outputs": [
        {
          "internalType": "address",
          "name": "",
          "type": "address"
        }
      ],
      "stateMutability": "view",
      "type": "function"
    },
    {
      "inputs": [
        {
          "internalType": "uint256",
          "name": "tokenId",
          "type": "uint256"
        }
      ],
      "name": "getNFTmeta",
      "outputs": [
        {
          "internalType": "string",
          "name": "",
          "type": "string"
        }
      ],
      "stateMutability": "view",
      "type": "function"
    },
    {
      "inputs": [
        {
          "internalType": "address",
          "name": "owner",
          "type": "address"
        },
        {
          "internalType": "address",
          "name": "operator",
          "type": "address"
        }
      ],
      "name": "isApprovedForAll",
      "outputs": [
        {
          "internalType": "bool",
          "name": "",
          "type": "bool"
        }
      ],
      "stateMutability": "view",
      "type": "function"
    },
    {
      "inputs": [],
      "name": "name",
      "outputs": [
        {
          "internalType": "string",
          "name": "",
          "type": "string"
        }
      ],
      "stateMutability": "view",
      "type": "function"
    },
    {
      "inputs": [
        {
          "internalType": "uint256",
          "name": "tokenId",
          "type": "uint256"
        }
      ],
      "name": "ownerOf",
      "outputs": [
        {
          "internalType": "address",
          "name": "",
          "type": "address"
        }
      ],
      "stateMutability": "view",
      "type": "function"
    },
    {
      "inputs": [
        {
          "internalType": "address",
          "name": "from",
          "type": "address"
        },
        {
          "internalType": "address",
          "name": "to",
          "type": "address"
        },
        {
          "internalType": "uint256",
          "name": "tokenId",
          "type": "uint256"
        }
      ],
      "name": "safeTransferFrom",
      "outputs": [],
      "stateMutability": "nonpayable",
      "type": "function"
    },
    {
      "inputs": [
        {
          "internalType": "address",
          "name": "from",
          "type": "address"
        },
        {
          "internalType": "address",
          "name": "to",
          "type": "address"
        },
        {
          "internalType": "uint256",
          "name": "tokenId",
          "type": "uint256"
        },
        {
          "internalType": "bytes",
          "name": "_data",
          "type": "bytes"
        }
      ],
      "name": "safeTransferFrom",
      "outputs": [],
      "stateMutability": "nonpayable",
      "type": "function"
    },
    {
      "inputs": [
        {
          "internalType": "address",
          "name": "operator",
          "type": "address"
        },
        {
          "internalType": "bool",
          "name": "approved",
          "type": "bool"
        }
      ],
      "name": "setApprovalForAll",
      "outputs": [],
      "stateMutability": "nonpayable",
      "type": "function"
    },
    {
      "inputs": [
        {
          "internalType": "bytes4",
          "name": "interfaceId",
          "type": "bytes4"
        }
      ],
      "name": "supportsInterface",
      "outputs": [
        {
          "internalType": "bool",
          "name": "",
          "type": "bool"
        }
      ],
      "stateMutability": "view",
      "type": "function"
    },
    {
      "inputs": [],
      "name": "symbol",
      "outputs": [
        {
          "internalType": "string",
          "name": "",
          "type": "string"
        }
      ],
      "stateMutability": "view",
      "type": "function"
    },
    {
      "inputs": [
        {
          "internalType": "uint256",
          "name": "tokenId",
          "type": "uint256"
        }
      ],
      "name": "tokenURI",
      "outputs": [
        {
          "internalType": "string",
          "name": "",
          "type": "string"
        }
      ],
      "stateMutability": "view",
      "type": "function"
    },
    {
      "inputs": [
        {
          "internalType": "address",
          "name": "from",
          "type": "address"
        },
        {
          "internalType": "address",
          "name": "to",
          "type": "address"
        },
        {
          "internalType": "uint256",
          "name": "tokenId",
          "type": "uint256"
        }
      ],
      "name": "transferFrom",
      "outputs": [],
      "stateMutability": "nonpayable",
      "type": "function"
    },
    {
      "inputs": [
        {
          "internalType": "address",
          "name": "newMarketplaceAddress",
          "type": "address"
        }
      ],
      "name": "updateMarketplace",
      "outputs": [],
      "stateMutability": "payable",
      "type": "function"
    },
    {
      "inputs": [
        {
          "internalType": "uint256",
          "name": "tokenId",
          "type": "uint256"
        },
        {
          "internalType": "string",
          "name": "meta",
          "type": "string"
        }
      ],
      "name": "updateMeta",
      "outputs": [],
      "stateMutability": "payable",
      "type": "function"
    }
  ],
  "bytecode": "0x60806040523480156200001157600080fd5b506040516200352b3803806200352b833981810160405281019062000037919062000227565b6040518060400160405280600e81526020017f53706f7274657820546f6b656e730000000000000000000000000000000000008152506040518060400160405280600481526020017f4e465458000000000000000000000000000000000000000000000000000000008152508160009080519060200190620000bb92919062000160565b508060019080519060200190620000d492919062000160565b50505080600960006101000a81548173ffffffffffffffffffffffffffffffffffffffff021916908373ffffffffffffffffffffffffffffffffffffffff16021790555033600860006101000a81548173ffffffffffffffffffffffffffffffffffffffff021916908373ffffffffffffffffffffffffffffffffffffffff1602179055505062000306565b8280546200016e9062000287565b90600052602060002090601f016020900481019282620001925760008555620001de565b82601f10620001ad57805160ff1916838001178555620001de565b82800160010185558215620001de579182015b82811115620001dd578251825591602001919060010190620001c0565b5b509050620001ed9190620001f1565b5090565b5b808211156200020c576000816000905550600101620001f2565b5090565b6000815190506200022181620002ec565b92915050565b6000602082840312156200023a57600080fd5b60006200024a8482850162000210565b91505092915050565b6000620002608262000267565b9050919050565b600073ffffffffffffffffffffffffffffffffffffffff82169050919050565b60006002820490506001821680620002a057607f821691505b60208210811415620002b757620002b6620002bd565b5b50919050565b7f4e487b7100000000000000000000000000000000000000000000000000000000600052602260045260246000fd5b620002f78162000253565b81146200030357600080fd5b50565b61321580620003166000396000f3fe6080604052600436106100fe5760003560e01c80636352211e11610095578063a22cb46511610064578063a22cb4651461035e578063b88d4fde14610387578063c87b56dd146103b0578063e985e9c5146103ed578063eb6363171461042a576100fe565b80636352211e1461027c57806370a08231146102b957806395d89b41146102f65780639cebba5614610321576100fe565b806323b872dd116100d157806323b872dd146101d15780632f2f2d56146101fa578063401dc2431461023757806342842e0e14610253576100fe565b806301ffc9a71461010357806306fdde0314610140578063081812fc1461016b578063095ea7b3146101a8575b600080fd5b34801561010f57600080fd5b5061012a6004803603810190610125919061204c565b610446565b604051610137919061257b565b60405180910390f35b34801561014c57600080fd5b50610155610528565b6040516101629190612596565b60405180910390f35b34801561017757600080fd5b50610192600480360381019061018d919061210a565b6105ba565b60405161019f9190612514565b60405180910390f35b3480156101b457600080fd5b506101cf60048036038101906101ca9190612010565b61063f565b005b3480156101dd57600080fd5b506101f860048036038101906101f39190611f0a565b610757565b005b34801561020657600080fd5b50610221600480360381019061021c919061209e565b6107b7565b60405161022e9190612818565b60405180910390f35b610251600480360381019061024c9190612133565b6108d4565b005b34801561025f57600080fd5b5061027a60048036038101906102759190611f0a565b610990565b005b34801561028857600080fd5b506102a3600480360381019061029e919061210a565b6109b0565b6040516102b09190612514565b60405180910390f35b3480156102c557600080fd5b506102e060048036038101906102db9190611ea5565b610a62565b6040516102ed9190612818565b60405180910390f35b34801561030257600080fd5b5061030b610b1a565b6040516103189190612596565b60405180910390f35b34801561032d57600080fd5b506103486004803603810190610343919061210a565b610bac565b6040516103559190612596565b60405180910390f35b34801561036a57600080fd5b5061038560048036038101906103809190611fd4565b610c51565b005b34801561039357600080fd5b506103ae60048036038101906103a99190611f59565b610c67565b005b3480156103bc57600080fd5b506103d760048036038101906103d2919061210a565b610cc9565b6040516103e49190612596565b60405180910390f35b3480156103f957600080fd5b50610414600480360381019061040f9190611ece565b610e1b565b604051610421919061257b565b60405180910390f35b610444600480360381019061043f9190611ea5565b610eaf565b005b60007f80ac58cd000000000000000000000000000000000000000000000000000000007bffffffffffffffffffffffffffffffffffffffffffffffffffffffff1916827bffffffffffffffffffffffffffffffffffffffffffffffffffffffff1916148061051157507f5b5e139f000000000000000000000000000000000000000000000000000000007bffffffffffffffffffffffffffffffffffffffffffffffffffffffff1916827bffffffffffffffffffffffffffffffffffffffffffffffffffffffff1916145b80610521575061052082610f83565b5b9050919050565b60606000805461053790612a6e565b80601f016020809104026020016040519081016040528092919081815260200182805461056390612a6e565b80156105b05780601f10610585576101008083540402835291602001916105b0565b820191906000526020600020905b81548152906001019060200180831161059357829003601f168201915b5050505050905090565b60006105c582610fed565b610604576040517f08c379a00000000000000000000000000000000000000000000000000000000081526004016105fb90612738565b60405180910390fd5b6004600083815260200190815260200160002060009054906101000a900473ffffffffffffffffffffffffffffffffffffffff169050919050565b600061064a826109b0565b90508073ffffffffffffffffffffffffffffffffffffffff168373ffffffffffffffffffffffffffffffffffffffff1614156106bb576040517f08c379a00000000000000000000000000000000000000000000000000000000081526004016106b2906127b8565b60405180910390fd5b8073ffffffffffffffffffffffffffffffffffffffff166106da611059565b73ffffffffffffffffffffffffffffffffffffffff161480610709575061070881610703611059565b610e1b565b5b610748576040517f08c379a000000000000000000000000000000000000000000000000000000000815260040161073f90612678565b60405180910390fd5b6107528383611061565b505050565b610768610762611059565b8261111a565b6107a7576040517f08c379a000000000000000000000000000000000000000000000000000000000815260040161079e906127d8565b60405180910390fd5b6107b28383836111f8565b505050565b60003373ffffffffffffffffffffffffffffffffffffffff16600860009054906101000a900473ffffffffffffffffffffffffffffffffffffffff1673ffffffffffffffffffffffffffffffffffffffff1614610849576040517f08c379a000000000000000000000000000000000000000000000000000000000815260040161084090612778565b60405180910390fd5b610853600761145f565b600061085f6007611475565b905061086b3382611483565b610875818561165d565b82600a6000838152602001908152602001600020908051906020019061089c929190611cc9565b506108ca600960009054906101000a900473ffffffffffffffffffffffffffffffffffffffff166001610c51565b8091505092915050565b3373ffffffffffffffffffffffffffffffffffffffff16600860009054906101000a900473ffffffffffffffffffffffffffffffffffffffff1673ffffffffffffffffffffffffffffffffffffffff1614610964576040517f08c379a000000000000000000000000000000000000000000000000000000000815260040161095b90612758565b60405180910390fd5b80600a6000848152602001908152602001600020908051906020019061098b929190611cc9565b505050565b6109ab83838360405180602001604052806000815250610c67565b505050565b6000806002600084815260200190815260200160002060009054906101000a900473ffffffffffffffffffffffffffffffffffffffff169050600073ffffffffffffffffffffffffffffffffffffffff168173ffffffffffffffffffffffffffffffffffffffff161415610a59576040517f08c379a0000000000000000000000000000000000000000000000000000000008152600401610a50906126b8565b60405180910390fd5b80915050919050565b60008073ffffffffffffffffffffffffffffffffffffffff168273ffffffffffffffffffffffffffffffffffffffff161415610ad3576040517f08c379a0000000000000000000000000000000000000000000000000000000008152600401610aca90612698565b60405180910390fd5b600360008373ffffffffffffffffffffffffffffffffffffffff1673ffffffffffffffffffffffffffffffffffffffff168152602001908152602001600020549050919050565b606060018054610b2990612a6e565b80601f0160208091040260200160405190810160405280929190818152602001828054610b5590612a6e565b8015610ba25780601f10610b7757610100808354040283529160200191610ba2565b820191906000526020600020905b815481529060010190602001808311610b8557829003601f168201915b5050505050905090565b6060600a60008381526020019081526020016000208054610bcc90612a6e565b80601f0160208091040260200160405190810160405280929190818152602001828054610bf890612a6e565b8015610c455780601f10610c1a57610100808354040283529160200191610c45565b820191906000526020600020905b815481529060010190602001808311610c2857829003601f168201915b50505050509050919050565b610c63610c5c611059565b83836116d1565b5050565b610c78610c72611059565b8361111a565b610cb7576040517f08c379a0000000000000000000000000000000000000000000000000000000008152600401610cae906127d8565b60405180910390fd5b610cc38484848461183e565b50505050565b6060610cd482610fed565b610d13576040517f08c379a0000000000000000000000000000000000000000000000000000000008152600401610d0a90612718565b60405180910390fd5b6000600660008481526020019081526020016000208054610d3390612a6e565b80601f0160208091040260200160405190810160405280929190818152602001828054610d5f90612a6e565b8015610dac5780601f10610d8157610100808354040283529160200191610dac565b820191906000526020600020905b815481529060010190602001808311610d8f57829003601f168201915b505050505090506000610dbd61189a565b9050600081511415610dd3578192505050610e16565b600082511115610e08578082604051602001610df09291906124f0565b60405160208183030381529060405292505050610e16565b610e11846118b1565b925050505b919050565b6000600560008473ffffffffffffffffffffffffffffffffffffffff1673ffffffffffffffffffffffffffffffffffffffff16815260200190815260200160002060008373ffffffffffffffffffffffffffffffffffffffff1673ffffffffffffffffffffffffffffffffffffffff16815260200190815260200160002060009054906101000a900460ff16905092915050565b3373ffffffffffffffffffffffffffffffffffffffff16600860009054906101000a900473ffffffffffffffffffffffffffffffffffffffff1673ffffffffffffffffffffffffffffffffffffffff1614610f3f576040517f08c379a0000000000000000000000000000000000000000000000000000000008152600401610f36906127f8565b60405180910390fd5b80600960006101000a81548173ffffffffffffffffffffffffffffffffffffffff021916908373ffffffffffffffffffffffffffffffffffffffff16021790555050565b60007f01ffc9a7000000000000000000000000000000000000000000000000000000007bffffffffffffffffffffffffffffffffffffffffffffffffffffffff1916827bffffffffffffffffffffffffffffffffffffffffffffffffffffffff1916149050919050565b60008073ffffffffffffffffffffffffffffffffffffffff166002600084815260200190815260200160002060009054906101000a900473ffffffffffffffffffffffffffffffffffffffff1673ffffffffffffffffffffffffffffffffffffffff1614159050919050565b600033905090565b816004600083815260200190815260200160002060006101000a81548173ffffffffffffffffffffffffffffffffffffffff021916908373ffffffffffffffffffffffffffffffffffffffff160217905550808273ffffffffffffffffffffffffffffffffffffffff166110d4836109b0565b73ffffffffffffffffffffffffffffffffffffffff167f8c5be1e5ebec7d5bd14f71427d1e84f3dd0314c0f7b2291e5b200ac8c7c3b92560405160405180910390a45050565b600061112582610fed565b611164576040517f08c379a000000000000000000000000000000000000000000000000000000000815260040161115b90612658565b60405180910390fd5b600061116f836109b0565b90508073ffffffffffffffffffffffffffffffffffffffff168473ffffffffffffffffffffffffffffffffffffffff1614806111b157506111b08185610e1b565b5b806111ef57508373ffffffffffffffffffffffffffffffffffffffff166111d7846105ba565b73ffffffffffffffffffffffffffffffffffffffff16145b91505092915050565b8273ffffffffffffffffffffffffffffffffffffffff16611218826109b0565b73ffffffffffffffffffffffffffffffffffffffff161461126e576040517f08c379a0000000000000000000000000000000000000000000000000000000008152600401611265906125d8565b60405180910390fd5b600073ffffffffffffffffffffffffffffffffffffffff168273ffffffffffffffffffffffffffffffffffffffff1614156112de576040517f08c379a00000000000000000000000000000000000000000000000000000000081526004016112d590612618565b60405180910390fd5b6112e9838383611958565b6112f4600082611061565b6001600360008573ffffffffffffffffffffffffffffffffffffffff1673ffffffffffffffffffffffffffffffffffffffff16815260200190815260200160002060008282546113449190612984565b925050819055506001600360008473ffffffffffffffffffffffffffffffffffffffff1673ffffffffffffffffffffffffffffffffffffffff168152602001908152602001600020600082825461139b91906128fd565b92505081905550816002600083815260200190815260200160002060006101000a81548173ffffffffffffffffffffffffffffffffffffffff021916908373ffffffffffffffffffffffffffffffffffffffff160217905550808273ffffffffffffffffffffffffffffffffffffffff168473ffffffffffffffffffffffffffffffffffffffff167fddf252ad1be2c89b69c2b068fc378daa952ba7f163c4a11628f55a4df523b3ef60405160405180910390a461145a83838361195d565b505050565b6001816000016000828254019250508190555050565b600081600001549050919050565b600073ffffffffffffffffffffffffffffffffffffffff168273ffffffffffffffffffffffffffffffffffffffff1614156114f3576040517f08c379a00000000000000000000000000000000000000000000000000000000081526004016114ea906126f8565b60405180910390fd5b6114fc81610fed565b1561153c576040517f08c379a0000000000000000000000000000000000000000000000000000000008152600401611533906125f8565b60405180910390fd5b61154860008383611958565b6001600360008473ffffffffffffffffffffffffffffffffffffffff1673ffffffffffffffffffffffffffffffffffffffff168152602001908152602001600020600082825461159891906128fd565b92505081905550816002600083815260200190815260200160002060006101000a81548173ffffffffffffffffffffffffffffffffffffffff021916908373ffffffffffffffffffffffffffffffffffffffff160217905550808273ffffffffffffffffffffffffffffffffffffffff16600073ffffffffffffffffffffffffffffffffffffffff167fddf252ad1be2c89b69c2b068fc378daa952ba7f163c4a11628f55a4df523b3ef60405160405180910390a46116596000838361195d565b5050565b61166682610fed565b6116a5576040517f08c379a000000000000000000000000000000000000000000000000000000000815260040161169c906126d8565b60405180910390fd5b806006600084815260200190815260200160002090805190602001906116cc929190611cc9565b505050565b8173ffffffffffffffffffffffffffffffffffffffff168373ffffffffffffffffffffffffffffffffffffffff161415611740576040517f08c379a000000000000000000000000000000000000000000000000000000000815260040161173790612638565b60405180910390fd5b80600560008573ffffffffffffffffffffffffffffffffffffffff1673ffffffffffffffffffffffffffffffffffffffff16815260200190815260200160002060008473ffffffffffffffffffffffffffffffffffffffff1673ffffffffffffffffffffffffffffffffffffffff16815260200190815260200160002060006101000a81548160ff0219169083151502179055508173ffffffffffffffffffffffffffffffffffffffff168373ffffffffffffffffffffffffffffffffffffffff167f17307eab39ab6107e8899845ad3d59bd9653f200f220920489ca2b5937696c3183604051611831919061257b565b60405180910390a3505050565b6118498484846111f8565b61185584848484611962565b611894576040517f08c379a000000000000000000000000000000000000000000000000000000000815260040161188b906125b8565b60405180910390fd5b50505050565b606060405180602001604052806000815250905090565b60606118bc82610fed565b6118fb576040517f08c379a00000000000000000000000000000000000000000000000000000000081526004016118f290612798565b60405180910390fd5b600061190561189a565b905060008151116119255760405180602001604052806000815250611950565b8061192f84611af9565b6040516020016119409291906124f0565b6040516020818303038152906040525b915050919050565b505050565b505050565b60006119838473ffffffffffffffffffffffffffffffffffffffff16611ca6565b15611aec578373ffffffffffffffffffffffffffffffffffffffff1663150b7a026119ac611059565b8786866040518563ffffffff1660e01b81526004016119ce949392919061252f565b602060405180830381600087803b1580156119e857600080fd5b505af1925050508015611a1957506040513d601f19601f82011682018060405250810190611a169190612075565b60015b611a9c573d8060008114611a49576040519150601f19603f3d011682016040523d82523d6000602084013e611a4e565b606091505b50600081511415611a94576040517f08c379a0000000000000000000000000000000000000000000000000000000008152600401611a8b906125b8565b60405180910390fd5b805181602001fd5b63150b7a0260e01b7bffffffffffffffffffffffffffffffffffffffffffffffffffffffff1916817bffffffffffffffffffffffffffffffffffffffffffffffffffffffff191614915050611af1565b600190505b949350505050565b60606000821415611b41576040518060400160405280600181526020017f30000000000000000000000000000000000000000000000000000000000000008152509050611ca1565b600082905060005b60008214611b73578080611b5c90612ad1565b915050600a82611b6c9190612953565b9150611b49565b60008167ffffffffffffffff811115611bb5577f4e487b7100000000000000000000000000000000000000000000000000000000600052604160045260246000fd5b6040519080825280601f01601f191660200182016040528015611be75781602001600182028036833780820191505090505b5090505b60008514611c9a57600182611c009190612984565b9150600a85611c0f9190612b1a565b6030611c1b91906128fd565b60f81b818381518110611c57577f4e487b7100000000000000000000000000000000000000000000000000000000600052603260045260246000fd5b60200101907effffffffffffffffffffffffffffffffffffffffffffffffffffffffffffff1916908160001a905350600a85611c939190612953565b9450611beb565b8093505050505b919050565b6000808273ffffffffffffffffffffffffffffffffffffffff163b119050919050565b828054611cd590612a6e565b90600052602060002090601f016020900481019282611cf75760008555611d3e565b82601f10611d1057805160ff1916838001178555611d3e565b82800160010185558215611d3e579182015b82811115611d3d578251825591602001919060010190611d22565b5b509050611d4b9190611d4f565b5090565b5b80821115611d68576000816000905550600101611d50565b5090565b6000611d7f611d7a84612858565b612833565b905082815260208101848484011115611d9757600080fd5b611da2848285612a2c565b509392505050565b6000611dbd611db884612889565b612833565b905082815260208101848484011115611dd557600080fd5b611de0848285612a2c565b509392505050565b600081359050611df781613183565b92915050565b600081359050611e0c8161319a565b92915050565b600081359050611e21816131b1565b92915050565b600081519050611e36816131b1565b92915050565b600082601f830112611e4d57600080fd5b8135611e5d848260208601611d6c565b91505092915050565b600082601f830112611e7757600080fd5b8135611e87848260208601611daa565b91505092915050565b600081359050611e9f816131c8565b92915050565b600060208284031215611eb757600080fd5b6000611ec584828501611de8565b91505092915050565b60008060408385031215611ee157600080fd5b6000611eef85828601611de8565b9250506020611f0085828601611de8565b9150509250929050565b600080600060608486031215611f1f57600080fd5b6000611f2d86828701611de8565b9350506020611f3e86828701611de8565b9250506040611f4f86828701611e90565b9150509250925092565b60008060008060808587031215611f6f57600080fd5b6000611f7d87828801611de8565b9450506020611f8e87828801611de8565b9350506040611f9f87828801611e90565b925050606085013567ffffffffffffffff811115611fbc57600080fd5b611fc887828801611e3c565b91505092959194509250565b60008060408385031215611fe757600080fd5b6000611ff585828601611de8565b925050602061200685828601611dfd565b9150509250929050565b6000806040838503121561202357600080fd5b600061203185828601611de8565b925050602061204285828601611e90565b9150509250929050565b60006020828403121561205e57600080fd5b600061206c84828501611e12565b91505092915050565b60006020828403121561208757600080fd5b600061209584828501611e27565b91505092915050565b600080604083850312156120b157600080fd5b600083013567ffffffffffffffff8111156120cb57600080fd5b6120d785828601611e66565b925050602083013567ffffffffffffffff8111156120f457600080fd5b61210085828601611e66565b9150509250929050565b60006020828403121561211c57600080fd5b600061212a84828501611e90565b91505092915050565b6000806040838503121561214657600080fd5b600061215485828601611e90565b925050602083013567ffffffffffffffff81111561217157600080fd5b61217d85828601611e66565b9150509250929050565b612190816129b8565b82525050565b61219f816129ca565b82525050565b60006121b0826128ba565b6121ba81856128d0565b93506121ca818560208601612a3b565b6121d381612c07565b840191505092915050565b60006121e9826128c5565b6121f381856128e1565b9350612203818560208601612a3b565b61220c81612c07565b840191505092915050565b6000612222826128c5565b61222c81856128f2565b935061223c818560208601612a3b565b80840191505092915050565b60006122556032836128e1565b915061226082612c18565b604082019050919050565b60006122786025836128e1565b915061228382612c67565b604082019050919050565b600061229b601c836128e1565b91506122a682612cb6565b602082019050919050565b60006122be6024836128e1565b91506122c982612cdf565b604082019050919050565b60006122e16019836128e1565b91506122ec82612d2e565b602082019050919050565b6000612304602c836128e1565b915061230f82612d57565b604082019050919050565b60006123276038836128e1565b915061233282612da6565b604082019050919050565b600061234a602a836128e1565b915061235582612df5565b604082019050919050565b600061236d6029836128e1565b915061237882612e44565b604082019050919050565b6000612390602e836128e1565b915061239b82612e93565b604082019050919050565b60006123b36020836128e1565b91506123be82612ee2565b602082019050919050565b60006123d66031836128e1565b91506123e182612f0b565b604082019050919050565b60006123f9602c836128e1565b915061240482612f5a565b604082019050919050565b600061241c602f836128e1565b915061242782612fa9565b604082019050919050565b600061243f6032836128e1565b915061244a82612ff8565b604082019050919050565b6000612462602f836128e1565b915061246d82613047565b604082019050919050565b60006124856021836128e1565b915061249082613096565b604082019050919050565b60006124a86031836128e1565b91506124b3826130e5565b604082019050919050565b60006124cb6032836128e1565b91506124d682613134565b604082019050919050565b6124ea81612a22565b82525050565b60006124fc8285612217565b91506125088284612217565b91508190509392505050565b60006020820190506125296000830184612187565b92915050565b60006080820190506125446000830187612187565b6125516020830186612187565b61255e60408301856124e1565b818103606083015261257081846121a5565b905095945050505050565b60006020820190506125906000830184612196565b92915050565b600060208201905081810360008301526125b081846121de565b905092915050565b600060208201905081810360008301526125d181612248565b9050919050565b600060208201905081810360008301526125f18161226b565b9050919050565b600060208201905081810360008301526126118161228e565b9050919050565b60006020820190508181036000830152612631816122b1565b9050919050565b60006020820190508181036000830152612651816122d4565b9050919050565b60006020820190508181036000830152612671816122f7565b9050919050565b600060208201905081810360008301526126918161231a565b9050919050565b600060208201905081810360008301526126b18161233d565b9050919050565b600060208201905081810360008301526126d181612360565b9050919050565b600060208201905081810360008301526126f181612383565b9050919050565b60006020820190508181036000830152612711816123a6565b9050919050565b60006020820190508181036000830152612731816123c9565b9050919050565b60006020820190508181036000830152612751816123ec565b9050919050565b600060208201905081810360008301526127718161240f565b9050919050565b6000602082019050818103600083015261279181612432565b9050919050565b600060208201905081810360008301526127b181612455565b9050919050565b600060208201905081810360008301526127d181612478565b9050919050565b600060208201905081810360008301526127f18161249b565b9050919050565b60006020820190508181036000830152612811816124be565b9050919050565b600060208201905061282d60008301846124e1565b92915050565b600061283d61284e565b90506128498282612aa0565b919050565b6000604051905090565b600067ffffffffffffffff82111561287357612872612bd8565b5b61287c82612c07565b9050602081019050919050565b600067ffffffffffffffff8211156128a4576128a3612bd8565b5b6128ad82612c07565b9050602081019050919050565b600081519050919050565b600081519050919050565b600082825260208201905092915050565b600082825260208201905092915050565b600081905092915050565b600061290882612a22565b915061291383612a22565b9250827fffffffffffffffffffffffffffffffffffffffffffffffffffffffffffffffff0382111561294857612947612b4b565b5b828201905092915050565b600061295e82612a22565b915061296983612a22565b92508261297957612978612b7a565b5b828204905092915050565b600061298f82612a22565b915061299a83612a22565b9250828210156129ad576129ac612b4b565b5b828203905092915050565b60006129c382612a02565b9050919050565b60008115159050919050565b60007fffffffff0000000000000000000000000000000000000000000000000000000082169050919050565b600073ffffffffffffffffffffffffffffffffffffffff82169050919050565b6000819050919050565b82818337600083830152505050565b60005b83811015612a59578082015181840152602081019050612a3e565b83811115612a68576000848401525b50505050565b60006002820490506001821680612a8657607f821691505b60208210811415612a9a57612a99612ba9565b5b50919050565b612aa982612c07565b810181811067ffffffffffffffff82111715612ac857612ac7612bd8565b5b80604052505050565b6000612adc82612a22565b91507fffffffffffffffffffffffffffffffffffffffffffffffffffffffffffffffff821415612b0f57612b0e612b4b565b5b600182019050919050565b6000612b2582612a22565b9150612b3083612a22565b925082612b4057612b3f612b7a565b5b828206905092915050565b7f4e487b7100000000000000000000000000000000000000000000000000000000600052601160045260246000fd5b7f4e487b7100000000000000000000000000000000000000000000000000000000600052601260045260246000fd5b7f4e487b7100000000000000000000000000000000000000000000000000000000600052602260045260246000fd5b7f4e487b7100000000000000000000000000000000000000000000000000000000600052604160045260246000fd5b6000601f19601f8301169050919050565b7f4552433732313a207472616e7366657220746f206e6f6e20455243373231526560008201527f63656976657220696d706c656d656e7465720000000000000000000000000000602082015250565b7f4552433732313a207472616e736665722066726f6d20696e636f72726563742060008201527f6f776e6572000000000000000000000000000000000000000000000000000000602082015250565b7f4552433732313a20746f6b656e20616c7265616479206d696e74656400000000600082015250565b7f4552433732313a207472616e7366657220746f20746865207a65726f2061646460008201527f7265737300000000000000000000000000000000000000000000000000000000602082015250565b7f4552433732313a20617070726f766520746f2063616c6c657200000000000000600082015250565b7f4552433732313a206f70657261746f7220717565727920666f72206e6f6e657860008201527f697374656e7420746f6b656e0000000000000000000000000000000000000000602082015250565b7f4552433732313a20617070726f76652063616c6c6572206973206e6f74206f7760008201527f6e6572206e6f7220617070726f76656420666f7220616c6c0000000000000000602082015250565b7f4552433732313a2062616c616e636520717565727920666f7220746865207a6560008201527f726f206164647265737300000000000000000000000000000000000000000000602082015250565b7f4552433732313a206f776e657220717565727920666f72206e6f6e657869737460008201527f656e7420746f6b656e0000000000000000000000000000000000000000000000602082015250565b7f45524337323155524953746f726167653a2055524920736574206f66206e6f6e60008201527f6578697374656e7420746f6b656e000000000000000000000000000000000000602082015250565b7f4552433732313a206d696e7420746f20746865207a65726f2061646472657373600082015250565b7f45524337323155524953746f726167653a2055524920717565727920666f722060008201527f6e6f6e6578697374656e7420746f6b656e000000000000000000000000000000602082015250565b7f4552433732313a20617070726f76656420717565727920666f72206e6f6e657860008201527f697374656e7420746f6b656e0000000000000000000000000000000000000000602082015250565b7f4f6e6c79206d61726b6574706c616365206f776e65722063616e20757064617460008201527f65204e4654206d657461646174612e0000000000000000000000000000000000602082015250565b7f4f6e6c79206d61726b6574706c616365206f776e65722063616e20757064617460008201527f65204372656174652067616d65204e4654730000000000000000000000000000602082015250565b7f4552433732314d657461646174613a2055524920717565727920666f72206e6f60008201527f6e6578697374656e7420746f6b656e0000000000000000000000000000000000602082015250565b7f4552433732313a20617070726f76616c20746f2063757272656e74206f776e6560008201527f7200000000000000000000000000000000000000000000000000000000000000602082015250565b7f4552433732313a207472616e736665722063616c6c6572206973206e6f74206f60008201527f776e6572206e6f7220617070726f766564000000000000000000000000000000602082015250565b7f4f6e6c79206d61726b6574706c616365206f776e65722063616e20757064617460008201527f65204e4654206d61726b6574706c6163652e0000000000000000000000000000602082015250565b61318c816129b8565b811461319757600080fd5b50565b6131a3816129ca565b81146131ae57600080fd5b50565b6131ba816129d6565b81146131c557600080fd5b50565b6131d181612a22565b81146131dc57600080fd5b5056fea2646970667358221220d63e53e1c63ebd72a1fe9aa7f7a72940c43d4feb1e0b650b9e8b71e3051f879864736f6c63430008040033",
  "linkReferences": {},
  "deployedLinkReferences": {}
}