{
  "_format": "hh-sol-artifact-1",
  "contractName": "NFT",
  "sourceName": "contracts/NFT.sol",
  "abi": [
    {
      "inputs": [
        {
          "internalType": "address",
          "name": "marketplaceAddress",
          "type": "address"
        }
      ],
      "stateMutability": "nonpayable",
      "type": "constructor"
    },
    {
      "anonymous": false,
      "inputs": [
        {
          "indexed": true,
          "internalType": "address",
          "name": "owner",
          "type": "address"
        },
        {
          "indexed": true,
          "internalType": "address",
          "name": "approved",
          "type": "address"
        },
        {
          "indexed": true,
          "internalType": "uint256",
          "name": "tokenId",
          "type": "uint256"
        }
      ],
      "name": "Approval",
      "type": "event"
    },
    {
      "anonymous": false,
      "inputs": [
        {
          "indexed": true,
          "internalType": "address",
          "name": "owner",
          "type": "address"
        },
        {
          "indexed": true,
          "internalType": "address",
          "name": "operator",
          "type": "address"
        },
        {
          "indexed": false,
          "internalType": "bool",
          "name": "approved",
          "type": "bool"
        }
      ],
      "name": "ApprovalForAll",
      "type": "event"
    },
    {
      "anonymous": false,
      "inputs": [
        {
          "indexed": true,
          "internalType": "address",
          "name": "from",
          "type": "address"
        },
        {
          "indexed": true,
          "internalType": "address",
          "name": "to",
          "type": "address"
        },
        {
          "indexed": true,
          "internalType": "uint256",
          "name": "tokenId",
          "type": "uint256"
        }
      ],
      "name": "Transfer",
      "type": "event"
    },
    {
      "inputs": [
        {
          "internalType": "address",
          "name": "to",
          "type": "address"
        },
        {
          "internalType": "uint256",
          "name": "tokenId",
          "type": "uint256"
        }
      ],
      "name": "approve",
      "outputs": [],
      "stateMutability": "nonpayable",
      "type": "function"
    },
    {
      "inputs": [
        {
          "internalType": "address",
          "name": "owner",
          "type": "address"
        }
      ],
      "name": "balanceOf",
      "outputs": [
        {
          "internalType": "uint256",
          "name": "",
          "type": "uint256"
        }
      ],
      "stateMutability": "view",
      "type": "function"
    },
    {
      "inputs": [
        {
          "internalType": "string",
          "name": "tokenURI",
          "type": "string"
        },
        {
          "internalType": "string",
          "name": "meta",
          "type": "string"
        }
      ],
      "name": "createToken",
      "outputs": [
        {
          "internalType": "uint256",
          "name": "",
          "type": "uint256"
        }
      ],
      "stateMutability": "nonpayable",
      "type": "function"
    },
    {
      "inputs": [
        {
          "internalType": "uint256",
          "name": "tokenId",
          "type": "uint256"
        }
      ],
      "name": "getApproved",
      "outputs": [
        {
          "internalType": "address",
          "name": "",
          "type": "address"
        }
      ],
      "stateMutability": "view",
      "type": "function"
    },
    {
      "inputs": [
        {
          "internalType": "uint256",
          "name": "tokenId",
          "type": "uint256"
        }
      ],
      "name": "getNFTmeta",
      "outputs": [
        {
          "internalType": "string",
          "name": "",
          "type": "string"
        }
      ],
      "stateMutability": "view",
      "type": "function"
    },
    {
      "inputs": [
        {
          "internalType": "address",
          "name": "owner",
          "type": "address"
        },
        {
          "internalType": "address",
          "name": "operator",
          "type": "address"
        }
      ],
      "name": "isApprovedForAll",
      "outputs": [
        {
          "internalType": "bool",
          "name": "",
          "type": "bool"
        }
      ],
      "stateMutability": "view",
      "type": "function"
    },
    {
      "inputs": [],
      "name": "name",
      "outputs": [
        {
          "internalType": "string",
          "name": "",
          "type": "string"
        }
      ],
      "stateMutability": "view",
      "type": "function"
    },
    {
      "inputs": [
        {
          "internalType": "uint256",
          "name": "tokenId",
          "type": "uint256"
        }
      ],
      "name": "ownerOf",
      "outputs": [
        {
          "internalType": "address",
          "name": "",
          "type": "address"
        }
      ],
      "stateMutability": "view",
      "type": "function"
    },
    {
      "inputs": [
        {
          "internalType": "address",
          "name": "from",
          "type": "address"
        },
        {
          "internalType": "address",
          "name": "to",
          "type": "address"
        },
        {
          "internalType": "uint256",
          "name": "tokenId",
          "type": "uint256"
        }
      ],
      "name": "safeTransferFrom",
      "outputs": [],
      "stateMutability": "nonpayable",
      "type": "function"
    },
    {
      "inputs": [
        {
          "internalType": "address",
          "name": "from",
          "type": "address"
        },
        {
          "internalType": "address",
          "name": "to",
          "type": "address"
        },
        {
          "internalType": "uint256",
          "name": "tokenId",
          "type": "uint256"
        },
        {
          "internalType": "bytes",
          "name": "data",
          "type": "bytes"
        }
      ],
      "name": "safeTransferFrom",
      "outputs": [],
      "stateMutability": "nonpayable",
      "type": "function"
    },
    {
      "inputs": [
        {
          "internalType": "address",
          "name": "operator",
          "type": "address"
        },
        {
          "internalType": "bool",
          "name": "approved",
          "type": "bool"
        }
      ],
      "name": "setApprovalForAll",
      "outputs": [],
      "stateMutability": "nonpayable",
      "type": "function"
    },
    {
      "inputs": [
        {
          "internalType": "bytes4",
          "name": "interfaceId",
          "type": "bytes4"
        }
      ],
      "name": "supportsInterface",
      "outputs": [
        {
          "internalType": "bool",
          "name": "",
          "type": "bool"
        }
      ],
      "stateMutability": "view",
      "type": "function"
    },
    {
      "inputs": [],
      "name": "symbol",
      "outputs": [
        {
          "internalType": "string",
          "name": "",
          "type": "string"
        }
      ],
      "stateMutability": "view",
      "type": "function"
    },
    {
      "inputs": [
        {
          "internalType": "uint256",
          "name": "tokenId",
          "type": "uint256"
        }
      ],
      "name": "tokenURI",
      "outputs": [
        {
          "internalType": "string",
          "name": "",
          "type": "string"
        }
      ],
      "stateMutability": "view",
      "type": "function"
    },
    {
      "inputs": [
        {
          "internalType": "address",
          "name": "from",
          "type": "address"
        },
        {
          "internalType": "address",
          "name": "to",
          "type": "address"
        },
        {
          "internalType": "uint256",
          "name": "tokenId",
          "type": "uint256"
        }
      ],
      "name": "transferFrom",
      "outputs": [],
      "stateMutability": "nonpayable",
      "type": "function"
    },
    {
      "inputs": [
        {
          "internalType": "address",
          "name": "newMarketplaceAddress",
          "type": "address"
        }
      ],
      "name": "updateMarketplace",
      "outputs": [],
      "stateMutability": "payable",
      "type": "function"
    },
    {
      "inputs": [
        {
          "internalType": "uint256",
          "name": "tokenId",
          "type": "uint256"
        },
        {
          "internalType": "string",
          "name": "meta",
          "type": "string"
        }
      ],
      "name": "updateMeta",
      "outputs": [],
      "stateMutability": "payable",
      "type": "function"
    }
  ],
  "bytecode": "0x60806040523480156200001157600080fd5b50604051620037d7380380620037d78339818101604052810190620000379190620001bc565b6040518060400160405280600e81526020017f53706f7274657820546f6b656e730000000000000000000000000000000000008152506040518060400160405280600481526020017f4e465458000000000000000000000000000000000000000000000000000000008152508160009081620000b4919062000468565b508060019081620000c6919062000468565b50505080600960006101000a81548173ffffffffffffffffffffffffffffffffffffffff021916908373ffffffffffffffffffffffffffffffffffffffff16021790555033600860006101000a81548173ffffffffffffffffffffffffffffffffffffffff021916908373ffffffffffffffffffffffffffffffffffffffff160217905550506200054f565b600080fd5b600073ffffffffffffffffffffffffffffffffffffffff82169050919050565b6000620001848262000157565b9050919050565b620001968162000177565b8114620001a257600080fd5b50565b600081519050620001b6816200018b565b92915050565b600060208284031215620001d557620001d462000152565b5b6000620001e584828501620001a5565b91505092915050565b600081519050919050565b7f4e487b7100000000000000000000000000000000000000000000000000000000600052604160045260246000fd5b7f4e487b7100000000000000000000000000000000000000000000000000000000600052602260045260246000fd5b600060028204905060018216806200027057607f821691505b60208210810362000286576200028562000228565b5b50919050565b60008190508160005260206000209050919050565b60006020601f8301049050919050565b600082821b905092915050565b600060088302620002f07fffffffffffffffffffffffffffffffffffffffffffffffffffffffffffffffff82620002b1565b620002fc8683620002b1565b95508019841693508086168417925050509392505050565b6000819050919050565b6000819050919050565b600062000349620003436200033d8462000314565b6200031e565b62000314565b9050919050565b6000819050919050565b620003658362000328565b6200037d620003748262000350565b848454620002be565b825550505050565b600090565b6200039462000385565b620003a18184846200035a565b505050565b5b81811015620003c957620003bd6000826200038a565b600181019050620003a7565b5050565b601f8211156200041857620003e2816200028c565b620003ed84620002a1565b81016020851015620003fd578190505b620004156200040c85620002a1565b830182620003a6565b50505b505050565b600082821c905092915050565b60006200043d600019846008026200041d565b1980831691505092915050565b60006200045883836200042a565b9150826002028217905092915050565b6200047382620001ee565b67ffffffffffffffff8111156200048f576200048e620001f9565b5b6200049b825462000257565b620004a8828285620003cd565b600060209050601f831160018114620004e05760008415620004cb578287015190505b620004d785826200044a565b86555062000547565b601f198416620004f0866200028c565b60005b828110156200051a57848901518255600182019150602085019450602081019050620004f3565b868310156200053a578489015162000536601f8916826200042a565b8355505b6001600288020188555050505b505050505050565b613278806200055f6000396000f3fe6080604052600436106100fe5760003560e01c80636352211e11610095578063a22cb46511610064578063a22cb4651461035e578063b88d4fde14610387578063c87b56dd146103b0578063e985e9c5146103ed578063eb6363171461042a576100fe565b80636352211e1461027c57806370a08231146102b957806395d89b41146102f65780639cebba5614610321576100fe565b806323b872dd116100d157806323b872dd146101d15780632f2f2d56146101fa578063401dc2431461023757806342842e0e14610253576100fe565b806301ffc9a71461010357806306fdde0314610140578063081812fc1461016b578063095ea7b3146101a8575b600080fd5b34801561010f57600080fd5b5061012a60048036038101906101259190611ea2565b610446565b6040516101379190611eea565b60405180910390f35b34801561014c57600080fd5b50610155610528565b6040516101629190611f95565b60405180910390f35b34801561017757600080fd5b50610192600480360381019061018d9190611fed565b6105ba565b60405161019f919061205b565b60405180910390f35b3480156101b457600080fd5b506101cf60048036038101906101ca91906120a2565b610600565b005b3480156101dd57600080fd5b506101f860048036038101906101f391906120e2565b610717565b005b34801561020657600080fd5b50610221600480360381019061021c919061226a565b610777565b60405161022e91906122f1565b60405180910390f35b610251600480360381019061024c919061230c565b61088d565b005b34801561025f57600080fd5b5061027a600480360381019061027591906120e2565b610942565b005b34801561028857600080fd5b506102a3600480360381019061029e9190611fed565b610962565b6040516102b0919061205b565b60405180910390f35b3480156102c557600080fd5b506102e060048036038101906102db9190612368565b6109e8565b6040516102ed91906122f1565b60405180910390f35b34801561030257600080fd5b5061030b610a9f565b6040516103189190611f95565b60405180910390f35b34801561032d57600080fd5b5061034860048036038101906103439190611fed565b610b31565b6040516103559190611f95565b60405180910390f35b34801561036a57600080fd5b50610385600480360381019061038091906123c1565b610bd6565b005b34801561039357600080fd5b506103ae60048036038101906103a991906124a2565b610bec565b005b3480156103bc57600080fd5b506103d760048036038101906103d29190611fed565b610c4e565b6040516103e49190611f95565b60405180910390f35b3480156103f957600080fd5b50610414600480360381019061040f9190612525565b610d60565b6040516104219190611eea565b60405180910390f35b610444600480360381019061043f9190612368565b610df4565b005b60007f80ac58cd000000000000000000000000000000000000000000000000000000007bffffffffffffffffffffffffffffffffffffffffffffffffffffffff1916827bffffffffffffffffffffffffffffffffffffffffffffffffffffffff1916148061051157507f5b5e139f000000000000000000000000000000000000000000000000000000007bffffffffffffffffffffffffffffffffffffffffffffffffffffffff1916827bffffffffffffffffffffffffffffffffffffffffffffffffffffffff1916145b80610521575061052082610ec8565b5b9050919050565b60606000805461053790612594565b80601f016020809104026020016040519081016040528092919081815260200182805461056390612594565b80156105b05780601f10610585576101008083540402835291602001916105b0565b820191906000526020600020905b81548152906001019060200180831161059357829003601f168201915b5050505050905090565b60006105c582610f32565b6004600083815260200190815260200160002060009054906101000a900473ffffffffffffffffffffffffffffffffffffffff169050919050565b600061060b82610962565b90508073ffffffffffffffffffffffffffffffffffffffff168373ffffffffffffffffffffffffffffffffffffffff160361067b576040517f08c379a000000000000000000000000000000000000000000000000000000000815260040161067290612637565b60405180910390fd5b8073ffffffffffffffffffffffffffffffffffffffff1661069a610f7d565b73ffffffffffffffffffffffffffffffffffffffff1614806106c957506106c8816106c3610f7d565b610d60565b5b610708576040517f08c379a00000000000000000000000000000000000000000000000000000000081526004016106ff906126c9565b60405180910390fd5b6107128383610f85565b505050565b610728610722610f7d565b8261103e565b610767576040517f08c379a000000000000000000000000000000000000000000000000000000000815260040161075e9061275b565b60405180910390fd5b6107728383836110d3565b505050565b60003373ffffffffffffffffffffffffffffffffffffffff16600860009054906101000a900473ffffffffffffffffffffffffffffffffffffffff1673ffffffffffffffffffffffffffffffffffffffff1614610809576040517f08c379a0000000000000000000000000000000000000000000000000000000008152600401610800906127ed565b60405180910390fd5b61081360076113cc565b600061081f60076113e2565b905061082b33826113f0565b610835818561160d565b82600a6000838152602001908152602001600020908161085591906129b9565b50610883600960009054906101000a900473ffffffffffffffffffffffffffffffffffffffff166001610bd6565b8091505092915050565b3373ffffffffffffffffffffffffffffffffffffffff16600860009054906101000a900473ffffffffffffffffffffffffffffffffffffffff1673ffffffffffffffffffffffffffffffffffffffff161461091d576040517f08c379a000000000000000000000000000000000000000000000000000000000815260040161091490612afd565b60405180910390fd5b80600a6000848152602001908152602001600020908161093d91906129b9565b505050565b61095d83838360405180602001604052806000815250610bec565b505050565b60008061096e8361167a565b9050600073ffffffffffffffffffffffffffffffffffffffff168173ffffffffffffffffffffffffffffffffffffffff16036109df576040517f08c379a00000000000000000000000000000000000000000000000000000000081526004016109d690612b69565b60405180910390fd5b80915050919050565b60008073ffffffffffffffffffffffffffffffffffffffff168273ffffffffffffffffffffffffffffffffffffffff1603610a58576040517f08c379a0000000000000000000000000000000000000000000000000000000008152600401610a4f90612bfb565b60405180910390fd5b600360008373ffffffffffffffffffffffffffffffffffffffff1673ffffffffffffffffffffffffffffffffffffffff168152602001908152602001600020549050919050565b606060018054610aae90612594565b80601f0160208091040260200160405190810160405280929190818152602001828054610ada90612594565b8015610b275780601f10610afc57610100808354040283529160200191610b27565b820191906000526020600020905b815481529060010190602001808311610b0a57829003601f168201915b5050505050905090565b6060600a60008381526020019081526020016000208054610b5190612594565b80601f0160208091040260200160405190810160405280929190818152602001828054610b7d90612594565b8015610bca5780601f10610b9f57610100808354040283529160200191610bca565b820191906000526020600020905b815481529060010190602001808311610bad57829003601f168201915b50505050509050919050565b610be8610be1610f7d565b83836116b7565b5050565b610bfd610bf7610f7d565b8361103e565b610c3c576040517f08c379a0000000000000000000000000000000000000000000000000000000008152600401610c339061275b565b60405180910390fd5b610c4884848484611823565b50505050565b6060610c5982610f32565b6000600660008481526020019081526020016000208054610c7990612594565b80601f0160208091040260200160405190810160405280929190818152602001828054610ca590612594565b8015610cf25780601f10610cc757610100808354040283529160200191610cf2565b820191906000526020600020905b815481529060010190602001808311610cd557829003601f168201915b505050505090506000610d0361187f565b90506000815103610d18578192505050610d5b565b600082511115610d4d578082604051602001610d35929190612c57565b60405160208183030381529060405292505050610d5b565b610d5684611896565b925050505b919050565b6000600560008473ffffffffffffffffffffffffffffffffffffffff1673ffffffffffffffffffffffffffffffffffffffff16815260200190815260200160002060008373ffffffffffffffffffffffffffffffffffffffff1673ffffffffffffffffffffffffffffffffffffffff16815260200190815260200160002060009054906101000a900460ff16905092915050565b3373ffffffffffffffffffffffffffffffffffffffff16600860009054906101000a900473ffffffffffffffffffffffffffffffffffffffff1673ffffffffffffffffffffffffffffffffffffffff1614610e84576040517f08c379a0000000000000000000000000000000000000000000000000000000008152600401610e7b90612ced565b60405180910390fd5b80600960006101000a81548173ffffffffffffffffffffffffffffffffffffffff021916908373ffffffffffffffffffffffffffffffffffffffff16021790555050565b60007f01ffc9a7000000000000000000000000000000000000000000000000000000007bffffffffffffffffffffffffffffffffffffffffffffffffffffffff1916827bffffffffffffffffffffffffffffffffffffffffffffffffffffffff1916149050919050565b610f3b816118fe565b610f7a576040517f08c379a0000000000000000000000000000000000000000000000000000000008152600401610f7190612b69565b60405180910390fd5b50565b600033905090565b816004600083815260200190815260200160002060006101000a81548173ffffffffffffffffffffffffffffffffffffffff021916908373ffffffffffffffffffffffffffffffffffffffff160217905550808273ffffffffffffffffffffffffffffffffffffffff16610ff883610962565b73ffffffffffffffffffffffffffffffffffffffff167f8c5be1e5ebec7d5bd14f71427d1e84f3dd0314c0f7b2291e5b200ac8c7c3b92560405160405180910390a45050565b60008061104a83610962565b90508073ffffffffffffffffffffffffffffffffffffffff168473ffffffffffffffffffffffffffffffffffffffff16148061108c575061108b8185610d60565b5b806110ca57508373ffffffffffffffffffffffffffffffffffffffff166110b2846105ba565b73ffffffffffffffffffffffffffffffffffffffff16145b91505092915050565b8273ffffffffffffffffffffffffffffffffffffffff166110f382610962565b73ffffffffffffffffffffffffffffffffffffffff1614611149576040517f08c379a000000000000000000000000000000000000000000000000000000000815260040161114090612d7f565b60405180910390fd5b600073ffffffffffffffffffffffffffffffffffffffff168273ffffffffffffffffffffffffffffffffffffffff16036111b8576040517f08c379a00000000000000000000000000000000000000000000000000000000081526004016111af90612e11565b60405180910390fd5b6111c5838383600161193f565b8273ffffffffffffffffffffffffffffffffffffffff166111e582610962565b73ffffffffffffffffffffffffffffffffffffffff161461123b576040517f08c379a000000000000000000000000000000000000000000000000000000000815260040161123290612d7f565b60405180910390fd5b6004600082815260200190815260200160002060006101000a81549073ffffffffffffffffffffffffffffffffffffffff02191690556001600360008573ffffffffffffffffffffffffffffffffffffffff1673ffffffffffffffffffffffffffffffffffffffff168152602001908152602001600020600082825403925050819055506001600360008473ffffffffffffffffffffffffffffffffffffffff1673ffffffffffffffffffffffffffffffffffffffff16815260200190815260200160002060008282540192505081905550816002600083815260200190815260200160002060006101000a81548173ffffffffffffffffffffffffffffffffffffffff021916908373ffffffffffffffffffffffffffffffffffffffff160217905550808273ffffffffffffffffffffffffffffffffffffffff168473ffffffffffffffffffffffffffffffffffffffff167fddf252ad1be2c89b69c2b068fc378daa952ba7f163c4a11628f55a4df523b3ef60405160405180910390a46113c78383836001611a65565b505050565b6001816000016000828254019250508190555050565b600081600001549050919050565b600073ffffffffffffffffffffffffffffffffffffffff168273ffffffffffffffffffffffffffffffffffffffff160361145f576040517f08c379a000000000000000000000000000000000000000000000000000000000815260040161145690612e7d565b60405180910390fd5b611468816118fe565b156114a8576040517f08c379a000000000000000000000000000000000000000000000000000000000815260040161149f90612ee9565b60405180910390fd5b6114b660008383600161193f565b6114bf816118fe565b156114ff576040517f08c379a00000000000000000000000000000000000000000000000000000000081526004016114f690612ee9565b60405180910390fd5b6001600360008473ffffffffffffffffffffffffffffffffffffffff1673ffffffffffffffffffffffffffffffffffffffff16815260200190815260200160002060008282540192505081905550816002600083815260200190815260200160002060006101000a81548173ffffffffffffffffffffffffffffffffffffffff021916908373ffffffffffffffffffffffffffffffffffffffff160217905550808273ffffffffffffffffffffffffffffffffffffffff16600073ffffffffffffffffffffffffffffffffffffffff167fddf252ad1be2c89b69c2b068fc378daa952ba7f163c4a11628f55a4df523b3ef60405160405180910390a4611609600083836001611a65565b5050565b611616826118fe565b611655576040517f08c379a000000000000000000000000000000000000000000000000000000000815260040161164c90612f7b565b60405180910390fd5b8060066000848152602001908152602001600020908161167591906129b9565b505050565b60006002600083815260200190815260200160002060009054906101000a900473ffffffffffffffffffffffffffffffffffffffff169050919050565b8173ffffffffffffffffffffffffffffffffffffffff168373ffffffffffffffffffffffffffffffffffffffff1603611725576040517f08c379a000000000000000000000000000000000000000000000000000000000815260040161171c90612fe7565b60405180910390fd5b80600560008573ffffffffffffffffffffffffffffffffffffffff1673ffffffffffffffffffffffffffffffffffffffff16815260200190815260200160002060008473ffffffffffffffffffffffffffffffffffffffff1673ffffffffffffffffffffffffffffffffffffffff16815260200190815260200160002060006101000a81548160ff0219169083151502179055508173ffffffffffffffffffffffffffffffffffffffff168373ffffffffffffffffffffffffffffffffffffffff167f17307eab39ab6107e8899845ad3d59bd9653f200f220920489ca2b5937696c31836040516118169190611eea565b60405180910390a3505050565b61182e8484846110d3565b61183a84848484611a6b565b611879576040517f08c379a000000000000000000000000000000000000000000000000000000000815260040161187090613079565b60405180910390fd5b50505050565b606060405180602001604052806000815250905090565b60606118a182610f32565b60006118ab61187f565b905060008151116118cb57604051806020016040528060008152506118f6565b806118d584611bf2565b6040516020016118e6929190612c57565b6040516020818303038152906040525b915050919050565b60008073ffffffffffffffffffffffffffffffffffffffff166119208361167a565b73ffffffffffffffffffffffffffffffffffffffff1614159050919050565b6001811115611a5f57600073ffffffffffffffffffffffffffffffffffffffff168473ffffffffffffffffffffffffffffffffffffffff16146119d35780600360008673ffffffffffffffffffffffffffffffffffffffff1673ffffffffffffffffffffffffffffffffffffffff16815260200190815260200160002060008282546119cb91906130c8565b925050819055505b600073ffffffffffffffffffffffffffffffffffffffff168373ffffffffffffffffffffffffffffffffffffffff1614611a5e5780600360008573ffffffffffffffffffffffffffffffffffffffff1673ffffffffffffffffffffffffffffffffffffffff1681526020019081526020016000206000828254611a5691906130fc565b925050819055505b5b50505050565b50505050565b6000611a8c8473ffffffffffffffffffffffffffffffffffffffff16611cc0565b15611be5578373ffffffffffffffffffffffffffffffffffffffff1663150b7a02611ab5610f7d565b8786866040518563ffffffff1660e01b8152600401611ad79493929190613185565b6020604051808303816000875af1925050508015611b1357506040513d601f19601f82011682018060405250810190611b1091906131e6565b60015b611b95573d8060008114611b43576040519150601f19603f3d011682016040523d82523d6000602084013e611b48565b606091505b506000815103611b8d576040517f08c379a0000000000000000000000000000000000000000000000000000000008152600401611b8490613079565b60405180910390fd5b805181602001fd5b63150b7a0260e01b7bffffffffffffffffffffffffffffffffffffffffffffffffffffffff1916817bffffffffffffffffffffffffffffffffffffffffffffffffffffffff191614915050611bea565b600190505b949350505050565b606060006001611c0184611ce3565b01905060008167ffffffffffffffff811115611c2057611c1f61213f565b5b6040519080825280601f01601f191660200182016040528015611c525781602001600182028036833780820191505090505b509050600082602001820190505b600115611cb5578080600190039150507f3031323334353637383961626364656600000000000000000000000000000000600a86061a8153600a8581611ca957611ca8613213565b5b04945060008503611c60575b819350505050919050565b6000808273ffffffffffffffffffffffffffffffffffffffff163b119050919050565b600080600090507a184f03e93ff9f4daa797ed6e38ed64bf6a1f0100000000000000008310611d41577a184f03e93ff9f4daa797ed6e38ed64bf6a1f0100000000000000008381611d3757611d36613213565b5b0492506040810190505b6d04ee2d6d415b85acef81000000008310611d7e576d04ee2d6d415b85acef81000000008381611d7457611d73613213565b5b0492506020810190505b662386f26fc100008310611dad57662386f26fc100008381611da357611da2613213565b5b0492506010810190505b6305f5e1008310611dd6576305f5e1008381611dcc57611dcb613213565b5b0492506008810190505b6127108310611dfb576127108381611df157611df0613213565b5b0492506004810190505b60648310611e1e5760648381611e1457611e13613213565b5b0492506002810190505b600a8310611e2d576001810190505b80915050919050565b6000604051905090565b600080fd5b600080fd5b60007fffffffff0000000000000000000000000000000000000000000000000000000082169050919050565b611e7f81611e4a565b8114611e8a57600080fd5b50565b600081359050611e9c81611e76565b92915050565b600060208284031215611eb857611eb7611e40565b5b6000611ec684828501611e8d565b91505092915050565b60008115159050919050565b611ee481611ecf565b82525050565b6000602082019050611eff6000830184611edb565b92915050565b600081519050919050565b600082825260208201905092915050565b60005b83811015611f3f578082015181840152602081019050611f24565b60008484015250505050565b6000601f19601f8301169050919050565b6000611f6782611f05565b611f718185611f10565b9350611f81818560208601611f21565b611f8a81611f4b565b840191505092915050565b60006020820190508181036000830152611faf8184611f5c565b905092915050565b6000819050919050565b611fca81611fb7565b8114611fd557600080fd5b50565b600081359050611fe781611fc1565b92915050565b60006020828403121561200357612002611e40565b5b600061201184828501611fd8565b91505092915050565b600073ffffffffffffffffffffffffffffffffffffffff82169050919050565b60006120458261201a565b9050919050565b6120558161203a565b82525050565b6000602082019050612070600083018461204c565b92915050565b61207f8161203a565b811461208a57600080fd5b50565b60008135905061209c81612076565b92915050565b600080604083850312156120b9576120b8611e40565b5b60006120c78582860161208d565b92505060206120d885828601611fd8565b9150509250929050565b6000806000606084860312156120fb576120fa611e40565b5b60006121098682870161208d565b935050602061211a8682870161208d565b925050604061212b86828701611fd8565b9150509250925092565b600080fd5b600080fd5b7f4e487b7100000000000000000000000000000000000000000000000000000000600052604160045260246000fd5b61217782611f4b565b810181811067ffffffffffffffff821117156121965761219561213f565b5b80604052505050565b60006121a9611e36565b90506121b5828261216e565b919050565b600067ffffffffffffffff8211156121d5576121d461213f565b5b6121de82611f4b565b9050602081019050919050565b82818337600083830152505050565b600061220d612208846121ba565b61219f565b9050828152602081018484840111156122295761222861213a565b5b6122348482856121eb565b509392505050565b600082601f83011261225157612250612135565b5b81356122618482602086016121fa565b91505092915050565b6000806040838503121561228157612280611e40565b5b600083013567ffffffffffffffff81111561229f5761229e611e45565b5b6122ab8582860161223c565b925050602083013567ffffffffffffffff8111156122cc576122cb611e45565b5b6122d88582860161223c565b9150509250929050565b6122eb81611fb7565b82525050565b600060208201905061230660008301846122e2565b92915050565b6000806040838503121561232357612322611e40565b5b600061233185828601611fd8565b925050602083013567ffffffffffffffff81111561235257612351611e45565b5b61235e8582860161223c565b9150509250929050565b60006020828403121561237e5761237d611e40565b5b600061238c8482850161208d565b91505092915050565b61239e81611ecf565b81146123a957600080fd5b50565b6000813590506123bb81612395565b92915050565b600080604083850312156123d8576123d7611e40565b5b60006123e68582860161208d565b92505060206123f7858286016123ac565b9150509250929050565b600067ffffffffffffffff82111561241c5761241b61213f565b5b61242582611f4b565b9050602081019050919050565b600061244561244084612401565b61219f565b9050828152602081018484840111156124615761246061213a565b5b61246c8482856121eb565b509392505050565b600082601f83011261248957612488612135565b5b8135612499848260208601612432565b91505092915050565b600080600080608085870312156124bc576124bb611e40565b5b60006124ca8782880161208d565b94505060206124db8782880161208d565b93505060406124ec87828801611fd8565b925050606085013567ffffffffffffffff81111561250d5761250c611e45565b5b61251987828801612474565b91505092959194509250565b6000806040838503121561253c5761253b611e40565b5b600061254a8582860161208d565b925050602061255b8582860161208d565b9150509250929050565b7f4e487b7100000000000000000000000000000000000000000000000000000000600052602260045260246000fd5b600060028204905060018216806125ac57607f821691505b6020821081036125bf576125be612565565b5b50919050565b7f4552433732313a20617070726f76616c20746f2063757272656e74206f776e6560008201527f7200000000000000000000000000000000000000000000000000000000000000602082015250565b6000612621602183611f10565b915061262c826125c5565b604082019050919050565b6000602082019050818103600083015261265081612614565b9050919050565b7f4552433732313a20617070726f76652063616c6c6572206973206e6f7420746f60008201527f6b656e206f776e6572206f7220617070726f76656420666f7220616c6c000000602082015250565b60006126b3603d83611f10565b91506126be82612657565b604082019050919050565b600060208201905081810360008301526126e2816126a6565b9050919050565b7f4552433732313a2063616c6c6572206973206e6f7420746f6b656e206f776e6560008201527f72206f7220617070726f76656400000000000000000000000000000000000000602082015250565b6000612745602d83611f10565b9150612750826126e9565b604082019050919050565b6000602082019050818103600083015261277481612738565b9050919050565b7f4f6e6c7920636f6e7472616374206f776e65722063616e20757064617465204360008201527f72656174652067616d65204e4654730000000000000000000000000000000000602082015250565b60006127d7602f83611f10565b91506127e28261277b565b604082019050919050565b60006020820190508181036000830152612806816127ca565b9050919050565b60008190508160005260206000209050919050565b60006020601f8301049050919050565b600082821b905092915050565b60006008830261286f7fffffffffffffffffffffffffffffffffffffffffffffffffffffffffffffffff82612832565b6128798683612832565b95508019841693508086168417925050509392505050565b6000819050919050565b60006128b66128b16128ac84611fb7565b612891565b611fb7565b9050919050565b6000819050919050565b6128d08361289b565b6128e46128dc826128bd565b84845461283f565b825550505050565b600090565b6128f96128ec565b6129048184846128c7565b505050565b5b818110156129285761291d6000826128f1565b60018101905061290a565b5050565b601f82111561296d5761293e8161280d565b61294784612822565b81016020851015612956578190505b61296a61296285612822565b830182612909565b50505b505050565b600082821c905092915050565b600061299060001984600802612972565b1980831691505092915050565b60006129a9838361297f565b9150826002028217905092915050565b6129c282611f05565b67ffffffffffffffff8111156129db576129da61213f565b5b6129e58254612594565b6129f082828561292c565b600060209050601f831160018114612a235760008415612a11578287015190505b612a1b858261299d565b865550612a83565b601f198416612a318661280d565b60005b82811015612a5957848901518255600182019150602085019450602081019050612a34565b86831015612a765784890151612a72601f89168261297f565b8355505b6001600288020188555050505b505050505050565b7f4f6e6c7920636f6e7472616374206f776e65722063616e20757064617465204e60008201527f4654206d657461646174612e0000000000000000000000000000000000000000602082015250565b6000612ae7602c83611f10565b9150612af282612a8b565b604082019050919050565b60006020820190508181036000830152612b1681612ada565b9050919050565b7f4552433732313a20696e76616c696420746f6b656e2049440000000000000000600082015250565b6000612b53601883611f10565b9150612b5e82612b1d565b602082019050919050565b60006020820190508181036000830152612b8281612b46565b9050919050565b7f4552433732313a2061646472657373207a65726f206973206e6f74206120766160008201527f6c6964206f776e65720000000000000000000000000000000000000000000000602082015250565b6000612be5602983611f10565b9150612bf082612b89565b604082019050919050565b60006020820190508181036000830152612c1481612bd8565b9050919050565b600081905092915050565b6000612c3182611f05565b612c3b8185612c1b565b9350612c4b818560208601611f21565b80840191505092915050565b6000612c638285612c26565b9150612c6f8284612c26565b91508190509392505050565b7f4f6e6c7920636f6e7472616374206f776e65722063616e20757064617465204e60008201527f4654206d61726b6574706c61636520636f6e74726163742e0000000000000000602082015250565b6000612cd7603883611f10565b9150612ce282612c7b565b604082019050919050565b60006020820190508181036000830152612d0681612cca565b9050919050565b7f4552433732313a207472616e736665722066726f6d20696e636f72726563742060008201527f6f776e6572000000000000000000000000000000000000000000000000000000602082015250565b6000612d69602583611f10565b9150612d7482612d0d565b604082019050919050565b60006020820190508181036000830152612d9881612d5c565b9050919050565b7f4552433732313a207472616e7366657220746f20746865207a65726f2061646460008201527f7265737300000000000000000000000000000000000000000000000000000000602082015250565b6000612dfb602483611f10565b9150612e0682612d9f565b604082019050919050565b60006020820190508181036000830152612e2a81612dee565b9050919050565b7f4552433732313a206d696e7420746f20746865207a65726f2061646472657373600082015250565b6000612e67602083611f10565b9150612e7282612e31565b602082019050919050565b60006020820190508181036000830152612e9681612e5a565b9050919050565b7f4552433732313a20746f6b656e20616c7265616479206d696e74656400000000600082015250565b6000612ed3601c83611f10565b9150612ede82612e9d565b602082019050919050565b60006020820190508181036000830152612f0281612ec6565b9050919050565b7f45524337323155524953746f726167653a2055524920736574206f66206e6f6e60008201527f6578697374656e7420746f6b656e000000000000000000000000000000000000602082015250565b6000612f65602e83611f10565b9150612f7082612f09565b604082019050919050565b60006020820190508181036000830152612f9481612f58565b9050919050565b7f4552433732313a20617070726f766520746f2063616c6c657200000000000000600082015250565b6000612fd1601983611f10565b9150612fdc82612f9b565b602082019050919050565b6000602082019050818103600083015261300081612fc4565b9050919050565b7f4552433732313a207472616e7366657220746f206e6f6e20455243373231526560008201527f63656976657220696d706c656d656e7465720000000000000000000000000000602082015250565b6000613063603283611f10565b915061306e82613007565b604082019050919050565b6000602082019050818103600083015261309281613056565b9050919050565b7f4e487b7100000000000000000000000000000000000000000000000000000000600052601160045260246000fd5b60006130d382611fb7565b91506130de83611fb7565b92508282039050818111156130f6576130f5613099565b5b92915050565b600061310782611fb7565b915061311283611fb7565b925082820190508082111561312a57613129613099565b5b92915050565b600081519050919050565b600082825260208201905092915050565b600061315782613130565b613161818561313b565b9350613171818560208601611f21565b61317a81611f4b565b840191505092915050565b600060808201905061319a600083018761204c565b6131a7602083018661204c565b6131b460408301856122e2565b81810360608301526131c6818461314c565b905095945050505050565b6000815190506131e081611e76565b92915050565b6000602082840312156131fc576131fb611e40565b5b600061320a848285016131d1565b91505092915050565b7f4e487b7100000000000000000000000000000000000000000000000000000000600052601260045260246000fdfea2646970667358221220baa0d555f4b192b83640634927bf4b6ba07000cf71b4fdcfdc15dc4c8927af9164736f6c63430008110033",
  "linkReferences": {},
  "deployedLinkReferences": {}
}