{
  "_format": "hh-sol-artifact-1",
  "contractName": "NFT",
  "sourceName": "contracts/NFT.sol",
  "abi": [
    {
      "inputs": [
        {
          "internalType": "address",
          "name": "marketplaceAddress",
          "type": "address"
        }
      ],
      "stateMutability": "nonpayable",
      "type": "constructor"
    },
    {
      "anonymous": false,
      "inputs": [
        {
          "indexed": true,
          "internalType": "address",
          "name": "owner",
          "type": "address"
        },
        {
          "indexed": true,
          "internalType": "address",
          "name": "approved",
          "type": "address"
        },
        {
          "indexed": true,
          "internalType": "uint256",
          "name": "tokenId",
          "type": "uint256"
        }
      ],
      "name": "Approval",
      "type": "event"
    },
    {
      "anonymous": false,
      "inputs": [
        {
          "indexed": true,
          "internalType": "address",
          "name": "owner",
          "type": "address"
        },
        {
          "indexed": true,
          "internalType": "address",
          "name": "operator",
          "type": "address"
        },
        {
          "indexed": false,
          "internalType": "bool",
          "name": "approved",
          "type": "bool"
        }
      ],
      "name": "ApprovalForAll",
      "type": "event"
    },
    {
      "anonymous": false,
      "inputs": [
        {
          "indexed": true,
          "internalType": "address",
          "name": "from",
          "type": "address"
        },
        {
          "indexed": true,
          "internalType": "address",
          "name": "to",
          "type": "address"
        },
        {
          "indexed": true,
          "internalType": "uint256",
          "name": "tokenId",
          "type": "uint256"
        }
      ],
      "name": "Transfer",
      "type": "event"
    },
    {
      "inputs": [
        {
          "internalType": "address",
          "name": "to",
          "type": "address"
        },
        {
          "internalType": "uint256",
          "name": "tokenId",
          "type": "uint256"
        }
      ],
      "name": "approve",
      "outputs": [],
      "stateMutability": "nonpayable",
      "type": "function"
    },
    {
      "inputs": [
        {
          "internalType": "address",
          "name": "owner",
          "type": "address"
        }
      ],
      "name": "balanceOf",
      "outputs": [
        {
          "internalType": "uint256",
          "name": "",
          "type": "uint256"
        }
      ],
      "stateMutability": "view",
      "type": "function"
    },
    {
      "inputs": [
        {
          "internalType": "string[]",
          "name": "tokenURIs",
          "type": "string[]"
        },
        {
          "internalType": "string[]",
          "name": "metas",
          "type": "string[]"
        }
      ],
      "name": "batchCreateTokens",
      "outputs": [
        {
          "internalType": "uint256[]",
          "name": "",
          "type": "uint256[]"
        }
      ],
      "stateMutability": "nonpayable",
      "type": "function"
    },
    {
      "inputs": [
        {
          "internalType": "string",
          "name": "tokenURI",
          "type": "string"
        },
        {
          "internalType": "string",
          "name": "meta",
          "type": "string"
        }
      ],
      "name": "createToken",
      "outputs": [
        {
          "internalType": "uint256",
          "name": "",
          "type": "uint256"
        }
      ],
      "stateMutability": "nonpayable",
      "type": "function"
    },
    {
      "inputs": [
        {
          "internalType": "uint256",
          "name": "tokenId",
          "type": "uint256"
        }
      ],
      "name": "getApproved",
      "outputs": [
        {
          "internalType": "address",
          "name": "",
          "type": "address"
        }
      ],
      "stateMutability": "view",
      "type": "function"
    },
    {
      "inputs": [
        {
          "internalType": "uint256",
          "name": "tokenId",
          "type": "uint256"
        }
      ],
      "name": "getNFTmeta",
      "outputs": [
        {
          "internalType": "string",
          "name": "",
          "type": "string"
        }
      ],
      "stateMutability": "view",
      "type": "function"
    },
    {
      "inputs": [
        {
          "internalType": "address",
          "name": "owner",
          "type": "address"
        },
        {
          "internalType": "address",
          "name": "operator",
          "type": "address"
        }
      ],
      "name": "isApprovedForAll",
      "outputs": [
        {
          "internalType": "bool",
          "name": "",
          "type": "bool"
        }
      ],
      "stateMutability": "view",
      "type": "function"
    },
    {
      "inputs": [],
      "name": "name",
      "outputs": [
        {
          "internalType": "string",
          "name": "",
          "type": "string"
        }
      ],
      "stateMutability": "view",
      "type": "function"
    },
    {
      "inputs": [
        {
          "internalType": "uint256",
          "name": "tokenId",
          "type": "uint256"
        }
      ],
      "name": "ownerOf",
      "outputs": [
        {
          "internalType": "address",
          "name": "",
          "type": "address"
        }
      ],
      "stateMutability": "view",
      "type": "function"
    },
    {
      "inputs": [
        {
          "internalType": "address",
          "name": "from",
          "type": "address"
        },
        {
          "internalType": "address",
          "name": "to",
          "type": "address"
        },
        {
          "internalType": "uint256",
          "name": "tokenId",
          "type": "uint256"
        }
      ],
      "name": "safeTransferFrom",
      "outputs": [],
      "stateMutability": "nonpayable",
      "type": "function"
    },
    {
      "inputs": [
        {
          "internalType": "address",
          "name": "from",
          "type": "address"
        },
        {
          "internalType": "address",
          "name": "to",
          "type": "address"
        },
        {
          "internalType": "uint256",
          "name": "tokenId",
          "type": "uint256"
        },
        {
          "internalType": "bytes",
          "name": "data",
          "type": "bytes"
        }
      ],
      "name": "safeTransferFrom",
      "outputs": [],
      "stateMutability": "nonpayable",
      "type": "function"
    },
    {
      "inputs": [
        {
          "internalType": "address",
          "name": "operator",
          "type": "address"
        },
        {
          "internalType": "bool",
          "name": "approved",
          "type": "bool"
        }
      ],
      "name": "setApprovalForAll",
      "outputs": [],
      "stateMutability": "nonpayable",
      "type": "function"
    },
    {
      "inputs": [
        {
          "internalType": "bytes4",
          "name": "interfaceId",
          "type": "bytes4"
        }
      ],
      "name": "supportsInterface",
      "outputs": [
        {
          "internalType": "bool",
          "name": "",
          "type": "bool"
        }
      ],
      "stateMutability": "view",
      "type": "function"
    },
    {
      "inputs": [],
      "name": "symbol",
      "outputs": [
        {
          "internalType": "string",
          "name": "",
          "type": "string"
        }
      ],
      "stateMutability": "view",
      "type": "function"
    },
    {
      "inputs": [
        {
          "internalType": "uint256",
          "name": "tokenId",
          "type": "uint256"
        }
      ],
      "name": "tokenURI",
      "outputs": [
        {
          "internalType": "string",
          "name": "",
          "type": "string"
        }
      ],
      "stateMutability": "view",
      "type": "function"
    },
    {
      "inputs": [
        {
          "internalType": "address",
          "name": "from",
          "type": "address"
        },
        {
          "internalType": "address",
          "name": "to",
          "type": "address"
        },
        {
          "internalType": "uint256",
          "name": "tokenId",
          "type": "uint256"
        }
      ],
      "name": "transferFrom",
      "outputs": [],
      "stateMutability": "nonpayable",
      "type": "function"
    },
    {
      "inputs": [
        {
          "internalType": "address",
          "name": "newMarketplaceAddress",
          "type": "address"
        }
      ],
      "name": "updateMarketplace",
      "outputs": [],
      "stateMutability": "payable",
      "type": "function"
    },
    {
      "inputs": [
        {
          "internalType": "uint256",
          "name": "tokenId",
          "type": "uint256"
        },
        {
          "internalType": "string",
          "name": "meta",
          "type": "string"
        }
      ],
      "name": "updateMeta",
      "outputs": [],
      "stateMutability": "payable",
      "type": "function"
    }
  ],
  "bytecode": "0x60806040523480156200001157600080fd5b506040516200383d3803806200383d833981810160405281019062000037919062000227565b6040518060400160405280600d81526020017f53706f72747820546f6b656e73000000000000000000000000000000000000008152506040518060400160405280600481526020017f4e465458000000000000000000000000000000000000000000000000000000008152508160009080519060200190620000bb92919062000160565b508060019080519060200190620000d492919062000160565b50505080600960006101000a81548173ffffffffffffffffffffffffffffffffffffffff021916908373ffffffffffffffffffffffffffffffffffffffff16021790555033600860006101000a81548173ffffffffffffffffffffffffffffffffffffffff021916908373ffffffffffffffffffffffffffffffffffffffff1602179055505062000306565b8280546200016e9062000287565b90600052602060002090601f016020900481019282620001925760008555620001de565b82601f10620001ad57805160ff1916838001178555620001de565b82800160010185558215620001de579182015b82811115620001dd578251825591602001919060010190620001c0565b5b509050620001ed9190620001f1565b5090565b5b808211156200020c576000816000905550600101620001f2565b5090565b6000815190506200022181620002ec565b92915050565b6000602082840312156200023a57600080fd5b60006200024a8482850162000210565b91505092915050565b6000620002608262000267565b9050919050565b600073ffffffffffffffffffffffffffffffffffffffff82169050919050565b60006002820490506001821680620002a057607f821691505b60208210811415620002b757620002b6620002bd565b5b50919050565b7f4e487b7100000000000000000000000000000000000000000000000000000000600052602260045260246000fd5b620002f78162000253565b81146200030357600080fd5b50565b61352780620003166000396000f3fe6080604052600436106101095760003560e01c806370a0823111610095578063a22cb46511610064578063a22cb465146103a6578063b88d4fde146103cf578063c87b56dd146103f8578063e985e9c514610435578063eb6363171461047257610109565b806370a08231146102c4578063956755311461030157806395d89b411461033e5780639cebba561461036957610109565b806323b872dd116100dc57806323b872dd146101dc5780632f2f2d5614610205578063401dc2431461024257806342842e0e1461025e5780636352211e1461028757610109565b806301ffc9a71461010e57806306fdde031461014b578063081812fc14610176578063095ea7b3146101b3575b600080fd5b34801561011a57600080fd5b50610135600480360381019061013091906125db565b61048e565b6040516101429190612b25565b60405180910390f35b34801561015757600080fd5b50610160610570565b60405161016d9190612b40565b60405180910390f35b34801561018257600080fd5b5061019d60048036038101906101989190612699565b610602565b6040516101aa9190612a9c565b60405180910390f35b3480156101bf57600080fd5b506101da60048036038101906101d59190612533565b610648565b005b3480156101e857600080fd5b5061020360048036038101906101fe919061242d565b610760565b005b34801561021157600080fd5b5061022c6004803603810190610227919061262d565b6107c0565b6040516102399190612d42565b60405180910390f35b61025c600480360381019061025791906126c2565b6108dd565b005b34801561026a57600080fd5b506102856004803603810190610280919061242d565b610999565b005b34801561029357600080fd5b506102ae60048036038101906102a99190612699565b6109b9565b6040516102bb9190612a9c565b60405180910390f35b3480156102d057600080fd5b506102eb60048036038101906102e691906123c8565b610a40565b6040516102f89190612d42565b60405180910390f35b34801561030d57600080fd5b506103286004803603810190610323919061256f565b610af8565b6040516103359190612b03565b60405180910390f35b34801561034a57600080fd5b50610353610d70565b6040516103609190612b40565b60405180910390f35b34801561037557600080fd5b50610390600480360381019061038b9190612699565b610e02565b60405161039d9190612b40565b60405180910390f35b3480156103b257600080fd5b506103cd60048036038101906103c891906124f7565b610ea7565b005b3480156103db57600080fd5b506103f660048036038101906103f1919061247c565b610ebd565b005b34801561040457600080fd5b5061041f600480360381019061041a9190612699565b610f1f565b60405161042c9190612b40565b60405180910390f35b34801561044157600080fd5b5061045c600480360381019061045791906123f1565b611032565b6040516104699190612b25565b60405180910390f35b61048c600480360381019061048791906123c8565b6110c6565b005b60007f80ac58cd000000000000000000000000000000000000000000000000000000007bffffffffffffffffffffffffffffffffffffffffffffffffffffffff1916827bffffffffffffffffffffffffffffffffffffffffffffffffffffffff1916148061055957507f5b5e139f000000000000000000000000000000000000000000000000000000007bffffffffffffffffffffffffffffffffffffffffffffffffffffffff1916827bffffffffffffffffffffffffffffffffffffffffffffffffffffffff1916145b8061056957506105688261119a565b5b9050919050565b60606000805461057f90612f42565b80601f01602080910402602001604051908101604052809291908181526020018280546105ab90612f42565b80156105f85780601f106105cd576101008083540402835291602001916105f8565b820191906000526020600020905b8154815290600101906020018083116105db57829003601f168201915b5050505050905090565b600061060d82611204565b6004600083815260200190815260200160002060009054906101000a900473ffffffffffffffffffffffffffffffffffffffff169050919050565b6000610653826109b9565b90508073ffffffffffffffffffffffffffffffffffffffff168373ffffffffffffffffffffffffffffffffffffffff1614156106c4576040517f08c379a00000000000000000000000000000000000000000000000000000000081526004016106bb90612ce2565b60405180910390fd5b8073ffffffffffffffffffffffffffffffffffffffff166106e361124f565b73ffffffffffffffffffffffffffffffffffffffff16148061071257506107118161070c61124f565b611032565b5b610751576040517f08c379a000000000000000000000000000000000000000000000000000000000815260040161074890612d02565b60405180910390fd5b61075b8383611257565b505050565b61077161076b61124f565b82611310565b6107b0576040517f08c379a00000000000000000000000000000000000000000000000000000000081526004016107a790612b62565b60405180910390fd5b6107bb8383836113a5565b505050565b60003373ffffffffffffffffffffffffffffffffffffffff16600860009054906101000a900473ffffffffffffffffffffffffffffffffffffffff1673ffffffffffffffffffffffffffffffffffffffff1614610852576040517f08c379a000000000000000000000000000000000000000000000000000000000815260040161084990612d22565b60405180910390fd5b61085c600761169f565b600061086860076116b5565b905061087433826116c3565b61087e81856118e1565b82600a600083815260200190815260200160002090805190602001906108a592919061213c565b506108d3600960009054906101000a900473ffffffffffffffffffffffffffffffffffffffff166001610ea7565b8091505092915050565b3373ffffffffffffffffffffffffffffffffffffffff16600860009054906101000a900473ffffffffffffffffffffffffffffffffffffffff1673ffffffffffffffffffffffffffffffffffffffff161461096d576040517f08c379a000000000000000000000000000000000000000000000000000000000815260040161096490612c62565b60405180910390fd5b80600a6000848152602001908152602001600020908051906020019061099492919061213c565b505050565b6109b483838360405180602001604052806000815250610ebd565b505050565b6000806109c583611955565b9050600073ffffffffffffffffffffffffffffffffffffffff168173ffffffffffffffffffffffffffffffffffffffff161415610a37576040517f08c379a0000000000000000000000000000000000000000000000000000000008152600401610a2e90612cc2565b60405180910390fd5b80915050919050565b60008073ffffffffffffffffffffffffffffffffffffffff168273ffffffffffffffffffffffffffffffffffffffff161415610ab1576040517f08c379a0000000000000000000000000000000000000000000000000000000008152600401610aa890612c22565b60405180910390fd5b600360008373ffffffffffffffffffffffffffffffffffffffff1673ffffffffffffffffffffffffffffffffffffffff168152602001908152602001600020549050919050565b60603373ffffffffffffffffffffffffffffffffffffffff16600860009054906101000a900473ffffffffffffffffffffffffffffffffffffffff1673ffffffffffffffffffffffffffffffffffffffff1614610b8a576040517f08c379a0000000000000000000000000000000000000000000000000000000008152600401610b8190612d22565b60405180910390fd5b6000835167ffffffffffffffff811115610bcd577f4e487b7100000000000000000000000000000000000000000000000000000000600052604160045260246000fd5b604051908082528060200260200182016040528015610bfb5781602001602082028036833780820191505090505b50905060005b8451811015610d6557610c14600761169f565b6000610c2060076116b5565b9050610c2c33826116c3565b610c7681878481518110610c69577f4e487b7100000000000000000000000000000000000000000000000000000000600052603260045260246000fd5b60200260200101516118e1565b848281518110610caf577f4e487b7100000000000000000000000000000000000000000000000000000000600052603260045260246000fd5b6020026020010151600a60008381526020019081526020016000209080519060200190610cdd92919061213c565b50610d0b600960009054906101000a900473ffffffffffffffffffffffffffffffffffffffff166001610ea7565b80838381518110610d45577f4e487b7100000000000000000000000000000000000000000000000000000000600052603260045260246000fd5b602002602001018181525050508080610d5d90612fa5565b915050610c01565b508091505092915050565b606060018054610d7f90612f42565b80601f0160208091040260200160405190810160405280929190818152602001828054610dab90612f42565b8015610df85780601f10610dcd57610100808354040283529160200191610df8565b820191906000526020600020905b815481529060010190602001808311610ddb57829003601f168201915b5050505050905090565b6060600a60008381526020019081526020016000208054610e2290612f42565b80601f0160208091040260200160405190810160405280929190818152602001828054610e4e90612f42565b8015610e9b5780601f10610e7057610100808354040283529160200191610e9b565b820191906000526020600020905b815481529060010190602001808311610e7e57829003601f168201915b50505050509050919050565b610eb9610eb261124f565b8383611992565b5050565b610ece610ec861124f565b83611310565b610f0d576040517f08c379a0000000000000000000000000000000000000000000000000000000008152600401610f0490612b62565b60405180910390fd5b610f1984848484611aff565b50505050565b6060610f2a82611204565b6000600660008481526020019081526020016000208054610f4a90612f42565b80601f0160208091040260200160405190810160405280929190818152602001828054610f7690612f42565b8015610fc35780601f10610f9857610100808354040283529160200191610fc3565b820191906000526020600020905b815481529060010190602001808311610fa657829003601f168201915b505050505090506000610fd4611b5b565b9050600081511415610fea57819250505061102d565b60008251111561101f578082604051602001611007929190612a78565b6040516020818303038152906040529250505061102d565b61102884611b72565b925050505b919050565b6000600560008473ffffffffffffffffffffffffffffffffffffffff1673ffffffffffffffffffffffffffffffffffffffff16815260200190815260200160002060008373ffffffffffffffffffffffffffffffffffffffff1673ffffffffffffffffffffffffffffffffffffffff16815260200190815260200160002060009054906101000a900460ff16905092915050565b3373ffffffffffffffffffffffffffffffffffffffff16600860009054906101000a900473ffffffffffffffffffffffffffffffffffffffff1673ffffffffffffffffffffffffffffffffffffffff1614611156576040517f08c379a000000000000000000000000000000000000000000000000000000000815260040161114d90612ca2565b60405180910390fd5b80600960006101000a81548173ffffffffffffffffffffffffffffffffffffffff021916908373ffffffffffffffffffffffffffffffffffffffff16021790555050565b60007f01ffc9a7000000000000000000000000000000000000000000000000000000007bffffffffffffffffffffffffffffffffffffffffffffffffffffffff1916827bffffffffffffffffffffffffffffffffffffffffffffffffffffffff1916149050919050565b61120d81611bda565b61124c576040517f08c379a000000000000000000000000000000000000000000000000000000000815260040161124390612cc2565b60405180910390fd5b50565b600033905090565b816004600083815260200190815260200160002060006101000a81548173ffffffffffffffffffffffffffffffffffffffff021916908373ffffffffffffffffffffffffffffffffffffffff160217905550808273ffffffffffffffffffffffffffffffffffffffff166112ca836109b9565b73ffffffffffffffffffffffffffffffffffffffff167f8c5be1e5ebec7d5bd14f71427d1e84f3dd0314c0f7b2291e5b200ac8c7c3b92560405160405180910390a45050565b60008061131c836109b9565b90508073ffffffffffffffffffffffffffffffffffffffff168473ffffffffffffffffffffffffffffffffffffffff16148061135e575061135d8185611032565b5b8061139c57508373ffffffffffffffffffffffffffffffffffffffff1661138484610602565b73ffffffffffffffffffffffffffffffffffffffff16145b91505092915050565b8273ffffffffffffffffffffffffffffffffffffffff166113c5826109b9565b73ffffffffffffffffffffffffffffffffffffffff161461141b576040517f08c379a000000000000000000000000000000000000000000000000000000000815260040161141290612ba2565b60405180910390fd5b600073ffffffffffffffffffffffffffffffffffffffff168273ffffffffffffffffffffffffffffffffffffffff16141561148b576040517f08c379a000000000000000000000000000000000000000000000000000000000815260040161148290612be2565b60405180910390fd5b6114988383836001611c1b565b8273ffffffffffffffffffffffffffffffffffffffff166114b8826109b9565b73ffffffffffffffffffffffffffffffffffffffff161461150e576040517f08c379a000000000000000000000000000000000000000000000000000000000815260040161150590612ba2565b60405180910390fd5b6004600082815260200190815260200160002060006101000a81549073ffffffffffffffffffffffffffffffffffffffff02191690556001600360008573ffffffffffffffffffffffffffffffffffffffff1673ffffffffffffffffffffffffffffffffffffffff168152602001908152602001600020600082825403925050819055506001600360008473ffffffffffffffffffffffffffffffffffffffff1673ffffffffffffffffffffffffffffffffffffffff16815260200190815260200160002060008282540192505081905550816002600083815260200190815260200160002060006101000a81548173ffffffffffffffffffffffffffffffffffffffff021916908373ffffffffffffffffffffffffffffffffffffffff160217905550808273ffffffffffffffffffffffffffffffffffffffff168473ffffffffffffffffffffffffffffffffffffffff167fddf252ad1be2c89b69c2b068fc378daa952ba7f163c4a11628f55a4df523b3ef60405160405180910390a461169a8383836001611c21565b505050565b6001816000016000828254019250508190555050565b600081600001549050919050565b600073ffffffffffffffffffffffffffffffffffffffff168273ffffffffffffffffffffffffffffffffffffffff161415611733576040517f08c379a000000000000000000000000000000000000000000000000000000000815260040161172a90612c82565b60405180910390fd5b61173c81611bda565b1561177c576040517f08c379a000000000000000000000000000000000000000000000000000000000815260040161177390612bc2565b60405180910390fd5b61178a600083836001611c1b565b61179381611bda565b156117d3576040517f08c379a00000000000000000000000000000000000000000000000000000000081526004016117ca90612bc2565b60405180910390fd5b6001600360008473ffffffffffffffffffffffffffffffffffffffff1673ffffffffffffffffffffffffffffffffffffffff16815260200190815260200160002060008282540192505081905550816002600083815260200190815260200160002060006101000a81548173ffffffffffffffffffffffffffffffffffffffff021916908373ffffffffffffffffffffffffffffffffffffffff160217905550808273ffffffffffffffffffffffffffffffffffffffff16600073ffffffffffffffffffffffffffffffffffffffff167fddf252ad1be2c89b69c2b068fc378daa952ba7f163c4a11628f55a4df523b3ef60405160405180910390a46118dd600083836001611c21565b5050565b6118ea82611bda565b611929576040517f08c379a000000000000000000000000000000000000000000000000000000000815260040161192090612c42565b60405180910390fd5b8060066000848152602001908152602001600020908051906020019061195092919061213c565b505050565b60006002600083815260200190815260200160002060009054906101000a900473ffffffffffffffffffffffffffffffffffffffff169050919050565b8173ffffffffffffffffffffffffffffffffffffffff168373ffffffffffffffffffffffffffffffffffffffff161415611a01576040517f08c379a00000000000000000000000000000000000000000000000000000000081526004016119f890612c02565b60405180910390fd5b80600560008573ffffffffffffffffffffffffffffffffffffffff1673ffffffffffffffffffffffffffffffffffffffff16815260200190815260200160002060008473ffffffffffffffffffffffffffffffffffffffff1673ffffffffffffffffffffffffffffffffffffffff16815260200190815260200160002060006101000a81548160ff0219169083151502179055508173ffffffffffffffffffffffffffffffffffffffff168373ffffffffffffffffffffffffffffffffffffffff167f17307eab39ab6107e8899845ad3d59bd9653f200f220920489ca2b5937696c3183604051611af29190612b25565b60405180910390a3505050565b611b0a8484846113a5565b611b1684848484611c27565b611b55576040517f08c379a0000000000000000000000000000000000000000000000000000000008152600401611b4c90612b82565b60405180910390fd5b50505050565b606060405180602001604052806000815250905090565b6060611b7d82611204565b6000611b87611b5b565b90506000815111611ba75760405180602001604052806000815250611bd2565b80611bb184611dbe565b604051602001611bc2929190612a78565b6040516020818303038152906040525b915050919050565b60008073ffffffffffffffffffffffffffffffffffffffff16611bfc83611955565b73ffffffffffffffffffffffffffffffffffffffff1614159050919050565b50505050565b50505050565b6000611c488473ffffffffffffffffffffffffffffffffffffffff16611ee2565b15611db1578373ffffffffffffffffffffffffffffffffffffffff1663150b7a02611c7161124f565b8786866040518563ffffffff1660e01b8152600401611c939493929190612ab7565b602060405180830381600087803b158015611cad57600080fd5b505af1925050508015611cde57506040513d601f19601f82011682018060405250810190611cdb9190612604565b60015b611d61573d8060008114611d0e576040519150601f19603f3d011682016040523d82523d6000602084013e611d13565b606091505b50600081511415611d59576040517f08c379a0000000000000000000000000000000000000000000000000000000008152600401611d5090612b82565b60405180910390fd5b805181602001fd5b63150b7a0260e01b7bffffffffffffffffffffffffffffffffffffffffffffffffffffffff1916817bffffffffffffffffffffffffffffffffffffffffffffffffffffffff191614915050611db6565b600190505b949350505050565b606060006001611dcd84611f05565b01905060008167ffffffffffffffff811115611e12577f4e487b7100000000000000000000000000000000000000000000000000000000600052604160045260246000fd5b6040519080825280601f01601f191660200182016040528015611e445781602001600182028036833780820191505090505b509050600082602001820190505b600115611ed7578080600190039150507f3031323334353637383961626364656600000000000000000000000000000000600a86061a8153600a8581611ec1577f4e487b7100000000000000000000000000000000000000000000000000000000600052601260045260246000fd5b0494506000851415611ed257611ed7565b611e52565b819350505050919050565b6000808273ffffffffffffffffffffffffffffffffffffffff163b119050919050565b600080600090507a184f03e93ff9f4daa797ed6e38ed64bf6a1f0100000000000000008310611f89577a184f03e93ff9f4daa797ed6e38ed64bf6a1f0100000000000000008381611f7f577f4e487b7100000000000000000000000000000000000000000000000000000000600052601260045260246000fd5b0492506040810190505b6d04ee2d6d415b85acef81000000008310611fec576d04ee2d6d415b85acef81000000008381611fe2577f4e487b7100000000000000000000000000000000000000000000000000000000600052601260045260246000fd5b0492506020810190505b662386f26fc10000831061204157662386f26fc100008381612037577f4e487b7100000000000000000000000000000000000000000000000000000000600052601260045260246000fd5b0492506010810190505b6305f5e1008310612090576305f5e1008381612086577f4e487b7100000000000000000000000000000000000000000000000000000000600052601260045260246000fd5b0492506008810190505b61271083106120db5761271083816120d1577f4e487b7100000000000000000000000000000000000000000000000000000000600052601260045260246000fd5b0492506004810190505b60648310612124576064838161211a577f4e487b7100000000000000000000000000000000000000000000000000000000600052601260045260246000fd5b0492506002810190505b600a8310612133576001810190505b80915050919050565b82805461214890612f42565b90600052602060002090601f01602090048101928261216a57600085556121b1565b82601f1061218357805160ff19168380011785556121b1565b828001600101855582156121b1579182015b828111156121b0578251825591602001919060010190612195565b5b5090506121be91906121c2565b5090565b5b808211156121db5760008160009055506001016121c3565b5090565b60006121f26121ed84612d82565b612d5d565b9050808382526020820190508285602086028201111561221157600080fd5b60005b8581101561225b57813567ffffffffffffffff81111561223357600080fd5b8086016122408982612389565b85526020850194506020840193505050600181019050612214565b5050509392505050565b600061227861227384612dae565b612d5d565b90508281526020810184848401111561229057600080fd5b61229b848285612f00565b509392505050565b60006122b66122b184612ddf565b612d5d565b9050828152602081018484840111156122ce57600080fd5b6122d9848285612f00565b509392505050565b6000813590506122f081613495565b92915050565b600082601f83011261230757600080fd5b81356123178482602086016121df565b91505092915050565b60008135905061232f816134ac565b92915050565b600081359050612344816134c3565b92915050565b600081519050612359816134c3565b92915050565b600082601f83011261237057600080fd5b8135612380848260208601612265565b91505092915050565b600082601f83011261239a57600080fd5b81356123aa8482602086016122a3565b91505092915050565b6000813590506123c2816134da565b92915050565b6000602082840312156123da57600080fd5b60006123e8848285016122e1565b91505092915050565b6000806040838503121561240457600080fd5b6000612412858286016122e1565b9250506020612423858286016122e1565b9150509250929050565b60008060006060848603121561244257600080fd5b6000612450868287016122e1565b9350506020612461868287016122e1565b9250506040612472868287016123b3565b9150509250925092565b6000806000806080858703121561249257600080fd5b60006124a0878288016122e1565b94505060206124b1878288016122e1565b93505060406124c2878288016123b3565b925050606085013567ffffffffffffffff8111156124df57600080fd5b6124eb8782880161235f565b91505092959194509250565b6000806040838503121561250a57600080fd5b6000612518858286016122e1565b925050602061252985828601612320565b9150509250929050565b6000806040838503121561254657600080fd5b6000612554858286016122e1565b9250506020612565858286016123b3565b9150509250929050565b6000806040838503121561258257600080fd5b600083013567ffffffffffffffff81111561259c57600080fd5b6125a8858286016122f6565b925050602083013567ffffffffffffffff8111156125c557600080fd5b6125d1858286016122f6565b9150509250929050565b6000602082840312156125ed57600080fd5b60006125fb84828501612335565b91505092915050565b60006020828403121561261657600080fd5b60006126248482850161234a565b91505092915050565b6000806040838503121561264057600080fd5b600083013567ffffffffffffffff81111561265a57600080fd5b61266685828601612389565b925050602083013567ffffffffffffffff81111561268357600080fd5b61268f85828601612389565b9150509250929050565b6000602082840312156126ab57600080fd5b60006126b9848285016123b3565b91505092915050565b600080604083850312156126d557600080fd5b60006126e3858286016123b3565b925050602083013567ffffffffffffffff81111561270057600080fd5b61270c85828601612389565b9150509250929050565b60006127228383612a5a565b60208301905092915050565b61273781612e8c565b82525050565b600061274882612e20565b6127528185612e4e565b935061275d83612e10565b8060005b8381101561278e5781516127758882612716565b975061278083612e41565b925050600181019050612761565b5085935050505092915050565b6127a481612e9e565b82525050565b60006127b582612e2b565b6127bf8185612e5f565b93506127cf818560208601612f0f565b6127d88161307b565b840191505092915050565b60006127ee82612e36565b6127f88185612e70565b9350612808818560208601612f0f565b6128118161307b565b840191505092915050565b600061282782612e36565b6128318185612e81565b9350612841818560208601612f0f565b80840191505092915050565b600061285a602d83612e70565b91506128658261308c565b604082019050919050565b600061287d603283612e70565b9150612888826130db565b604082019050919050565b60006128a0602583612e70565b91506128ab8261312a565b604082019050919050565b60006128c3601c83612e70565b91506128ce82613179565b602082019050919050565b60006128e6602483612e70565b91506128f1826131a2565b604082019050919050565b6000612909601983612e70565b9150612914826131f1565b602082019050919050565b600061292c602983612e70565b91506129378261321a565b604082019050919050565b600061294f602e83612e70565b915061295a82613269565b604082019050919050565b6000612972602c83612e70565b915061297d826132b8565b604082019050919050565b6000612995602083612e70565b91506129a082613307565b602082019050919050565b60006129b8603883612e70565b91506129c382613330565b604082019050919050565b60006129db601883612e70565b91506129e68261337f565b602082019050919050565b60006129fe602183612e70565b9150612a09826133a8565b604082019050919050565b6000612a21603d83612e70565b9150612a2c826133f7565b604082019050919050565b6000612a44602f83612e70565b9150612a4f82613446565b604082019050919050565b612a6381612ef6565b82525050565b612a7281612ef6565b82525050565b6000612a84828561281c565b9150612a90828461281c565b91508190509392505050565b6000602082019050612ab1600083018461272e565b92915050565b6000608082019050612acc600083018761272e565b612ad9602083018661272e565b612ae66040830185612a69565b8181036060830152612af881846127aa565b905095945050505050565b60006020820190508181036000830152612b1d818461273d565b905092915050565b6000602082019050612b3a600083018461279b565b92915050565b60006020820190508181036000830152612b5a81846127e3565b905092915050565b60006020820190508181036000830152612b7b8161284d565b9050919050565b60006020820190508181036000830152612b9b81612870565b9050919050565b60006020820190508181036000830152612bbb81612893565b9050919050565b60006020820190508181036000830152612bdb816128b6565b9050919050565b60006020820190508181036000830152612bfb816128d9565b9050919050565b60006020820190508181036000830152612c1b816128fc565b9050919050565b60006020820190508181036000830152612c3b8161291f565b9050919050565b60006020820190508181036000830152612c5b81612942565b9050919050565b60006020820190508181036000830152612c7b81612965565b9050919050565b60006020820190508181036000830152612c9b81612988565b9050919050565b60006020820190508181036000830152612cbb816129ab565b9050919050565b60006020820190508181036000830152612cdb816129ce565b9050919050565b60006020820190508181036000830152612cfb816129f1565b9050919050565b60006020820190508181036000830152612d1b81612a14565b9050919050565b60006020820190508181036000830152612d3b81612a37565b9050919050565b6000602082019050612d576000830184612a69565b92915050565b6000612d67612d78565b9050612d738282612f74565b919050565b6000604051905090565b600067ffffffffffffffff821115612d9d57612d9c61304c565b5b602082029050602081019050919050565b600067ffffffffffffffff821115612dc957612dc861304c565b5b612dd28261307b565b9050602081019050919050565b600067ffffffffffffffff821115612dfa57612df961304c565b5b612e038261307b565b9050602081019050919050565b6000819050602082019050919050565b600081519050919050565b600081519050919050565b600081519050919050565b6000602082019050919050565b600082825260208201905092915050565b600082825260208201905092915050565b600082825260208201905092915050565b600081905092915050565b6000612e9782612ed6565b9050919050565b60008115159050919050565b60007fffffffff0000000000000000000000000000000000000000000000000000000082169050919050565b600073ffffffffffffffffffffffffffffffffffffffff82169050919050565b6000819050919050565b82818337600083830152505050565b60005b83811015612f2d578082015181840152602081019050612f12565b83811115612f3c576000848401525b50505050565b60006002820490506001821680612f5a57607f821691505b60208210811415612f6e57612f6d61301d565b5b50919050565b612f7d8261307b565b810181811067ffffffffffffffff82111715612f9c57612f9b61304c565b5b80604052505050565b6000612fb082612ef6565b91507fffffffffffffffffffffffffffffffffffffffffffffffffffffffffffffffff821415612fe357612fe2612fee565b5b600182019050919050565b7f4e487b7100000000000000000000000000000000000000000000000000000000600052601160045260246000fd5b7f4e487b7100000000000000000000000000000000000000000000000000000000600052602260045260246000fd5b7f4e487b7100000000000000000000000000000000000000000000000000000000600052604160045260246000fd5b6000601f19601f8301169050919050565b7f4552433732313a2063616c6c6572206973206e6f7420746f6b656e206f776e6560008201527f72206f7220617070726f76656400000000000000000000000000000000000000602082015250565b7f4552433732313a207472616e7366657220746f206e6f6e20455243373231526560008201527f63656976657220696d706c656d656e7465720000000000000000000000000000602082015250565b7f4552433732313a207472616e736665722066726f6d20696e636f72726563742060008201527f6f776e6572000000000000000000000000000000000000000000000000000000602082015250565b7f4552433732313a20746f6b656e20616c7265616479206d696e74656400000000600082015250565b7f4552433732313a207472616e7366657220746f20746865207a65726f2061646460008201527f7265737300000000000000000000000000000000000000000000000000000000602082015250565b7f4552433732313a20617070726f766520746f2063616c6c657200000000000000600082015250565b7f4552433732313a2061646472657373207a65726f206973206e6f74206120766160008201527f6c6964206f776e65720000000000000000000000000000000000000000000000602082015250565b7f45524337323155524953746f726167653a2055524920736574206f66206e6f6e60008201527f6578697374656e7420746f6b656e000000000000000000000000000000000000602082015250565b7f4f6e6c7920636f6e7472616374206f776e65722063616e20757064617465204e60008201527f4654206d657461646174612e0000000000000000000000000000000000000000602082015250565b7f4552433732313a206d696e7420746f20746865207a65726f2061646472657373600082015250565b7f4f6e6c7920636f6e7472616374206f776e65722063616e20757064617465204e60008201527f4654206d61726b6574706c61636520636f6e74726163742e0000000000000000602082015250565b7f4552433732313a20696e76616c696420746f6b656e2049440000000000000000600082015250565b7f4552433732313a20617070726f76616c20746f2063757272656e74206f776e6560008201527f7200000000000000000000000000000000000000000000000000000000000000602082015250565b7f4552433732313a20617070726f76652063616c6c6572206973206e6f7420746f60008201527f6b656e206f776e6572206f7220617070726f76656420666f7220616c6c000000602082015250565b7f4f6e6c7920636f6e7472616374206f776e65722063616e20757064617465204360008201527f72656174652067616d65204e4654730000000000000000000000000000000000602082015250565b61349e81612e8c565b81146134a957600080fd5b50565b6134b581612e9e565b81146134c057600080fd5b50565b6134cc81612eaa565b81146134d757600080fd5b50565b6134e381612ef6565b81146134ee57600080fd5b5056fea2646970667358221220c50cdecdaf1b472b252d5ba2fe30d6ee8d3b6051d1d5d1aea71f1e1ec23c78c764736f6c63430008040033",
  "linkReferences": {},
  "deployedLinkReferences": {}
}