{
  "_format": "hh-sol-artifact-1",
  "contractName": "NFTMarketplace",
  "sourceName": "contracts/NFTMarketplace.sol",
  "abi": [
    {
      "inputs": [],
      "stateMutability": "nonpayable",
      "type": "constructor"
    },
    {
      "anonymous": false,
      "inputs": [
        {
          "indexed": false,
          "internalType": "uint256",
          "name": "itemId",
          "type": "uint256"
        },
        {
          "indexed": false,
          "internalType": "address",
          "name": "nftContract",
          "type": "address"
        },
        {
          "indexed": true,
          "internalType": "uint256",
          "name": "tokenId",
          "type": "uint256"
        },
        {
          "indexed": false,
          "internalType": "address",
          "name": "seller",
          "type": "address"
        },
        {
          "indexed": false,
          "internalType": "address",
          "name": "owner",
          "type": "address"
        },
        {
          "indexed": false,
          "internalType": "uint256",
          "name": "price",
          "type": "uint256"
        },
        {
          "indexed": false,
          "internalType": "bool",
          "name": "sold",
          "type": "bool"
        },
        {
          "indexed": false,
          "internalType": "bool",
          "name": "presale",
          "type": "bool"
        }
      ],
      "name": "MarketItemCreated",
      "type": "event"
    },
    {
      "inputs": [
        {
          "internalType": "uint256",
          "name": "tokenId",
          "type": "uint256"
        },
        {
          "internalType": "uint256",
          "name": "price",
          "type": "uint256"
        }
      ],
      "name": "changePrice",
      "outputs": [],
      "stateMutability": "nonpayable",
      "type": "function"
    },
    {
      "inputs": [],
      "name": "decreaseItemIds",
      "outputs": [],
      "stateMutability": "nonpayable",
      "type": "function"
    },
    {
      "inputs": [],
      "name": "decreaseItemsSold",
      "outputs": [],
      "stateMutability": "nonpayable",
      "type": "function"
    },
    {
      "inputs": [
        {
          "internalType": "uint256",
          "name": "tokenId",
          "type": "uint256"
        }
      ],
      "name": "delistNFT",
      "outputs": [],
      "stateMutability": "payable",
      "type": "function"
    },
    {
      "inputs": [],
      "name": "fetchAllMarketItems",
      "outputs": [
        {
          "components": [
            {
              "internalType": "uint256",
              "name": "itemId",
              "type": "uint256"
            },
            {
              "internalType": "address",
              "name": "nftContract",
              "type": "address"
            },
            {
              "internalType": "uint256",
              "name": "tokenId",
              "type": "uint256"
            },
            {
              "internalType": "address payable",
              "name": "seller",
              "type": "address"
            },
            {
              "internalType": "address payable",
              "name": "owner",
              "type": "address"
            },
            {
              "internalType": "uint256",
              "name": "price",
              "type": "uint256"
            },
            {
              "internalType": "bool",
              "name": "sold",
              "type": "bool"
            },
            {
              "internalType": "bool",
              "name": "presale",
              "type": "bool"
            }
          ],
          "internalType": "struct NFTMarketplace.MarketItem[]",
          "name": "",
          "type": "tuple[]"
        }
      ],
      "stateMutability": "view",
      "type": "function"
    },
    {
      "inputs": [],
      "name": "fetchItemsListed",
      "outputs": [
        {
          "components": [
            {
              "internalType": "uint256",
              "name": "itemId",
              "type": "uint256"
            },
            {
              "internalType": "address",
              "name": "nftContract",
              "type": "address"
            },
            {
              "internalType": "uint256",
              "name": "tokenId",
              "type": "uint256"
            },
            {
              "internalType": "address payable",
              "name": "seller",
              "type": "address"
            },
            {
              "internalType": "address payable",
              "name": "owner",
              "type": "address"
            },
            {
              "internalType": "uint256",
              "name": "price",
              "type": "uint256"
            },
            {
              "internalType": "bool",
              "name": "sold",
              "type": "bool"
            },
            {
              "internalType": "bool",
              "name": "presale",
              "type": "bool"
            }
          ],
          "internalType": "struct NFTMarketplace.MarketItem[]",
          "name": "",
          "type": "tuple[]"
        }
      ],
      "stateMutability": "view",
      "type": "function"
    },
    {
      "inputs": [],
      "name": "fetchMarketItems",
      "outputs": [
        {
          "components": [
            {
              "internalType": "uint256",
              "name": "itemId",
              "type": "uint256"
            },
            {
              "internalType": "address",
              "name": "nftContract",
              "type": "address"
            },
            {
              "internalType": "uint256",
              "name": "tokenId",
              "type": "uint256"
            },
            {
              "internalType": "address payable",
              "name": "seller",
              "type": "address"
            },
            {
              "internalType": "address payable",
              "name": "owner",
              "type": "address"
            },
            {
              "internalType": "uint256",
              "name": "price",
              "type": "uint256"
            },
            {
              "internalType": "bool",
              "name": "sold",
              "type": "bool"
            },
            {
              "internalType": "bool",
              "name": "presale",
              "type": "bool"
            }
          ],
          "internalType": "struct NFTMarketplace.MarketItem[]",
          "name": "",
          "type": "tuple[]"
        }
      ],
      "stateMutability": "view",
      "type": "function"
    },
    {
      "inputs": [],
      "name": "fetchMyNFTs",
      "outputs": [
        {
          "components": [
            {
              "internalType": "uint256",
              "name": "itemId",
              "type": "uint256"
            },
            {
              "internalType": "address",
              "name": "nftContract",
              "type": "address"
            },
            {
              "internalType": "uint256",
              "name": "tokenId",
              "type": "uint256"
            },
            {
              "internalType": "address payable",
              "name": "seller",
              "type": "address"
            },
            {
              "internalType": "address payable",
              "name": "owner",
              "type": "address"
            },
            {
              "internalType": "uint256",
              "name": "price",
              "type": "uint256"
            },
            {
              "internalType": "bool",
              "name": "sold",
              "type": "bool"
            },
            {
              "internalType": "bool",
              "name": "presale",
              "type": "bool"
            }
          ],
          "internalType": "struct NFTMarketplace.MarketItem[]",
          "name": "",
          "type": "tuple[]"
        }
      ],
      "stateMutability": "view",
      "type": "function"
    },
    {
      "inputs": [
        {
          "internalType": "address",
          "name": "userAddress",
          "type": "address"
        }
      ],
      "name": "fetchNFTsByUserAddress",
      "outputs": [
        {
          "components": [
            {
              "internalType": "uint256",
              "name": "itemId",
              "type": "uint256"
            },
            {
              "internalType": "address",
              "name": "nftContract",
              "type": "address"
            },
            {
              "internalType": "uint256",
              "name": "tokenId",
              "type": "uint256"
            },
            {
              "internalType": "address payable",
              "name": "seller",
              "type": "address"
            },
            {
              "internalType": "address payable",
              "name": "owner",
              "type": "address"
            },
            {
              "internalType": "uint256",
              "name": "price",
              "type": "uint256"
            },
            {
              "internalType": "bool",
              "name": "sold",
              "type": "bool"
            },
            {
              "internalType": "bool",
              "name": "presale",
              "type": "bool"
            }
          ],
          "internalType": "struct NFTMarketplace.MarketItem[]",
          "name": "",
          "type": "tuple[]"
        }
      ],
      "stateMutability": "view",
      "type": "function"
    },
    {
      "inputs": [],
      "name": "getListingPrice",
      "outputs": [
        {
          "internalType": "uint256",
          "name": "",
          "type": "uint256"
        }
      ],
      "stateMutability": "view",
      "type": "function"
    },
    {
      "inputs": [],
      "name": "increaseItemIds",
      "outputs": [],
      "stateMutability": "nonpayable",
      "type": "function"
    },
    {
      "inputs": [],
      "name": "increaseItemsSold",
      "outputs": [],
      "stateMutability": "nonpayable",
      "type": "function"
    },
    {
      "inputs": [
        {
          "internalType": "address",
          "name": "nftContract",
          "type": "address"
        },
        {
          "internalType": "uint256",
          "name": "tokenId",
          "type": "uint256"
        },
        {
          "internalType": "uint256",
          "name": "price",
          "type": "uint256"
        }
      ],
      "name": "listMarketItem",
      "outputs": [],
      "stateMutability": "payable",
      "type": "function"
    },
    {
      "inputs": [
        {
          "internalType": "address",
          "name": "nftContract",
          "type": "address"
        },
        {
          "internalType": "address",
          "name": "nftOwner",
          "type": "address"
        },
        {
          "internalType": "uint256",
          "name": "tokenId",
          "type": "uint256"
        }
      ],
      "name": "listMarketItemToOwner",
      "outputs": [],
      "stateMutability": "payable",
      "type": "function"
    },
    {
      "inputs": [
        {
          "internalType": "uint256",
          "name": "tokenId",
          "type": "uint256"
        }
      ],
      "name": "purchaseItem",
      "outputs": [],
      "stateMutability": "payable",
      "type": "function"
    },
    {
      "inputs": [
        {
          "internalType": "uint256",
          "name": "tokenId",
          "type": "uint256"
        },
        {
          "internalType": "uint256",
          "name": "price",
          "type": "uint256"
        }
      ],
      "name": "resellToken",
      "outputs": [],
      "stateMutability": "payable",
      "type": "function"
    },
    {
      "inputs": [
        {
          "internalType": "bool",
          "name": "_presaleEnabled",
          "type": "bool"
        }
      ],
      "name": "setPresaleEnabled",
      "outputs": [],
      "stateMutability": "nonpayable",
      "type": "function"
    },
    {
      "inputs": [
        {
          "internalType": "address",
          "name": "toAddress",
          "type": "address"
        },
        {
          "internalType": "uint256",
          "name": "tokenId",
          "type": "uint256"
        }
      ],
      "name": "transferTo",
      "outputs": [],
      "stateMutability": "payable",
      "type": "function"
    },
    {
      "inputs": [
        {
          "internalType": "uint256",
          "name": "_listingPrice",
          "type": "uint256"
        }
      ],
      "name": "updateListingPrice",
      "outputs": [],
      "stateMutability": "payable",
      "type": "function"
    }
  ],
  "bytecode": "0x6080604052600380556000600460146101000a81548160ff02191690831515021790555034801561002f57600080fd5b50600160008190555033600460006101000a81548173ffffffffffffffffffffffffffffffffffffffff021916908373ffffffffffffffffffffffffffffffffffffffff1602179055506139c2806100886000396000f3fe6080604052600436106101145760003560e01c8063ae677aa3116100a0578063d38ea5bf11610064578063d38ea5bf146102e8578063df29981114610304578063dfb6452b14610341578063e219fc751461036c578063e818dc8a1461038857610114565b8063ae677aa314610247578063b3de019c14610263578063bb89e74c1461028c578063c10225b8146102a3578063cb917b9c146102cc57610114565b8063213c4e1a116100e7578063213c4e1a146101b15780632ccb1b30146101cd5780632f45fade146101e957806345f8fa801461020557806353844fb21461023057610114565b80630865d17a146101195780630f08efe01461013057806312e855851461015b578063202e374014610186575b600080fd5b34801561012557600080fd5b5061012e61039f565b005b34801561013c57600080fd5b5061014561043b565b60405161015291906131c6565b60405180910390f35b34801561016757600080fd5b5061017061076c565b60405161017d9190613328565b60405180910390f35b34801561019257600080fd5b5061019b610776565b6040516101a891906131c6565b60405180910390f35b6101cb60048036038101906101c69190612db4565b610b2c565b005b6101e760048036038101906101e29190612d78565b610ec9565b005b61020360048036038101906101fe9190612d29565b61107b565b005b34801561021157600080fd5b5061021a6113e0565b60405161022791906131c6565b60405180910390f35b34801561023c57600080fd5b50610245611796565b005b610261600480360381019061025c9190612e2c565b611832565b005b34801561026f57600080fd5b5061028a60048036038101906102859190612e55565b6118cc565b005b34801561029857600080fd5b506102a16119e2565b005b3480156102af57600080fd5b506102ca60048036038101906102c59190612e03565b611a7e565b005b6102e660048036038101906102e19190612e2c565b611b2b565b005b61030260048036038101906102fd9190612e2c565b611d6a565b005b34801561031057600080fd5b5061032b60048036038101906103269190612d00565b612139565b60405161033891906131c6565b60405180910390f35b34801561034d57600080fd5b506103566124f1565b60405161036391906131c6565b60405180910390f35b61038660048036038101906103819190612e55565b612788565b005b34801561039457600080fd5b5061039d612a7e565b005b3373ffffffffffffffffffffffffffffffffffffffff16600460009054906101000a900473ffffffffffffffffffffffffffffffffffffffff1673ffffffffffffffffffffffffffffffffffffffff161461042f576040517f08c379a000000000000000000000000000000000000000000000000000000000815260040161042690613208565b60405180910390fd5b6104396002612b1a565b565b606060006104496001612b76565b905060006104576002612b76565b6104616001612b76565b61046b919061354c565b90506000808267ffffffffffffffff8111156104b0577f4e487b7100000000000000000000000000000000000000000000000000000000600052604160045260246000fd5b6040519080825280602002602001820160405280156104e957816020015b6104d6612c36565b8152602001906001900390816104ce5790505b50905060005b84811015610761573073ffffffffffffffffffffffffffffffffffffffff166005600060018461051f919061346b565b815260200190815260200160002060040160009054906101000a900473ffffffffffffffffffffffffffffffffffffffff1673ffffffffffffffffffffffffffffffffffffffff16141561074e57600060018261057c919061346b565b905060006005600083815260200190815260200160002090508060405180610100016040529081600082015481526020016001820160009054906101000a900473ffffffffffffffffffffffffffffffffffffffff1673ffffffffffffffffffffffffffffffffffffffff1673ffffffffffffffffffffffffffffffffffffffff168152602001600282015481526020016003820160009054906101000a900473ffffffffffffffffffffffffffffffffffffffff1673ffffffffffffffffffffffffffffffffffffffff1673ffffffffffffffffffffffffffffffffffffffff1681526020016004820160009054906101000a900473ffffffffffffffffffffffffffffffffffffffff1673ffffffffffffffffffffffffffffffffffffffff1673ffffffffffffffffffffffffffffffffffffffff168152602001600582015481526020016006820160009054906101000a900460ff161515151581526020016006820160019054906101000a900460ff161515151581525050848681518110610731577f4e487b7100000000000000000000000000000000000000000000000000000000600052603260045260246000fd5b6020026020010181905250600185610749919061346b565b945050505b808061075990613622565b9150506104ef565b508094505050505090565b6000600354905090565b606060006107846001612b76565b905060008060005b8381101561082d573373ffffffffffffffffffffffffffffffffffffffff16600560006001846107bc919061346b565b815260200190815260200160002060040160009054906101000a900473ffffffffffffffffffffffffffffffffffffffff1673ffffffffffffffffffffffffffffffffffffffff16141561081a57600183610817919061346b565b92505b808061082590613622565b91505061078c565b5060008267ffffffffffffffff811115610870577f4e487b7100000000000000000000000000000000000000000000000000000000600052604160045260246000fd5b6040519080825280602002602001820160405280156108a957816020015b610896612c36565b81526020019060019003908161088e5790505b50905060005b84811015610b21573373ffffffffffffffffffffffffffffffffffffffff16600560006001846108df919061346b565b815260200190815260200160002060040160009054906101000a900473ffffffffffffffffffffffffffffffffffffffff1673ffffffffffffffffffffffffffffffffffffffff161415610b0e57600060018261093c919061346b565b905060006005600083815260200190815260200160002090508060405180610100016040529081600082015481526020016001820160009054906101000a900473ffffffffffffffffffffffffffffffffffffffff1673ffffffffffffffffffffffffffffffffffffffff1673ffffffffffffffffffffffffffffffffffffffff168152602001600282015481526020016003820160009054906101000a900473ffffffffffffffffffffffffffffffffffffffff1673ffffffffffffffffffffffffffffffffffffffff1673ffffffffffffffffffffffffffffffffffffffff1681526020016004820160009054906101000a900473ffffffffffffffffffffffffffffffffffffffff1673ffffffffffffffffffffffffffffffffffffffff1673ffffffffffffffffffffffffffffffffffffffff168152602001600582015481526020016006820160009054906101000a900460ff161515151581526020016006820160019054906101000a900460ff161515151581525050848681518110610af1577f4e487b7100000000000000000000000000000000000000000000000000000000600052603260045260246000fd5b6020026020010181905250600185610b09919061346b565b945050505b8080610b1990613622565b9150506108af565b508094505050505090565b610b34612b84565b3373ffffffffffffffffffffffffffffffffffffffff16600460009054906101000a900473ffffffffffffffffffffffffffffffffffffffff1673ffffffffffffffffffffffffffffffffffffffff1614610bc4576040517f08c379a0000000000000000000000000000000000000000000000000000000008152600401610bbb906132c8565b60405180910390fd5b60008111610c07576040517f08c379a0000000000000000000000000000000000000000000000000000000008152600401610bfe90613308565b60405180910390fd5b610c116001612bd4565b6000610c1d6001612b76565b90506040518061010001604052808281526020018573ffffffffffffffffffffffffffffffffffffffff1681526020018481526020013373ffffffffffffffffffffffffffffffffffffffff1681526020013073ffffffffffffffffffffffffffffffffffffffff168152602001838152602001600015158152602001600460149054906101000a900460ff161515815250600560008581526020019081526020016000206000820151816000015560208201518160010160006101000a81548173ffffffffffffffffffffffffffffffffffffffff021916908373ffffffffffffffffffffffffffffffffffffffff1602179055506040820151816002015560608201518160030160006101000a81548173ffffffffffffffffffffffffffffffffffffffff021916908373ffffffffffffffffffffffffffffffffffffffff16021790555060808201518160040160006101000a81548173ffffffffffffffffffffffffffffffffffffffff021916908373ffffffffffffffffffffffffffffffffffffffff16021790555060a0820151816005015560c08201518160060160006101000a81548160ff02191690831515021790555060e08201518160060160016101000a81548160ff0219169083151502179055509050508373ffffffffffffffffffffffffffffffffffffffff166323b872dd3330866040518463ffffffff1660e01b8152600401610e359392919061318f565b600060405180830381600087803b158015610e4f57600080fd5b505af1158015610e63573d6000803e3d6000fd5b50505050827fc99151f4453170a67bc7441775fde1a3bc3220c06645df1121e703aab5e7da5d82863330876000600460149054906101000a900460ff16604051610eb397969594939291906133b2565b60405180910390a250610ec4612bea565b505050565b610ed1612b84565b3373ffffffffffffffffffffffffffffffffffffffff166005600083815260200190815260200160002060040160009054906101000a900473ffffffffffffffffffffffffffffffffffffffff1673ffffffffffffffffffffffffffffffffffffffff1614610f75576040517f08c379a0000000000000000000000000000000000000000000000000000000008152600401610f6c90613268565b60405180910390fd5b816005600083815260200190815260200160002060040160006101000a81548173ffffffffffffffffffffffffffffffffffffffff021916908373ffffffffffffffffffffffffffffffffffffffff1602179055506005600082815260200190815260200160002060010160009054906101000a900473ffffffffffffffffffffffffffffffffffffffff1673ffffffffffffffffffffffffffffffffffffffff166323b872dd3384846040518463ffffffff1660e01b815260040161103d9392919061318f565b600060405180830381600087803b15801561105757600080fd5b505af115801561106b573d6000803e3d6000fd5b50505050611077612bea565b5050565b611083612b84565b3373ffffffffffffffffffffffffffffffffffffffff16600460009054906101000a900473ffffffffffffffffffffffffffffffffffffffff1673ffffffffffffffffffffffffffffffffffffffff1614611113576040517f08c379a000000000000000000000000000000000000000000000000000000000815260040161110a906132c8565b60405180910390fd5b61111d6002612bd4565b6111276001612bd4565b60006111336001612b76565b90506040518061010001604052808281526020018573ffffffffffffffffffffffffffffffffffffffff1681526020018381526020018473ffffffffffffffffffffffffffffffffffffffff1681526020018473ffffffffffffffffffffffffffffffffffffffff16815260200160018152602001600115158152602001600460149054906101000a900460ff161515815250600560008481526020019081526020016000206000820151816000015560208201518160010160006101000a81548173ffffffffffffffffffffffffffffffffffffffff021916908373ffffffffffffffffffffffffffffffffffffffff1602179055506040820151816002015560608201518160030160006101000a81548173ffffffffffffffffffffffffffffffffffffffff021916908373ffffffffffffffffffffffffffffffffffffffff16021790555060808201518160040160006101000a81548173ffffffffffffffffffffffffffffffffffffffff021916908373ffffffffffffffffffffffffffffffffffffffff16021790555060a0820151816005015560c08201518160060160006101000a81548160ff02191690831515021790555060e08201518160060160016101000a81548160ff0219169083151502179055509050508373ffffffffffffffffffffffffffffffffffffffff166323b872dd3385856040518463ffffffff1660e01b815260040161134c9392919061318f565b600060405180830381600087803b15801561136657600080fd5b505af115801561137a573d6000803e3d6000fd5b50505050817fc99151f4453170a67bc7441775fde1a3bc3220c06645df1121e703aab5e7da5d82868687600180600460149054906101000a900460ff166040516113ca9796959493929190613343565b60405180910390a2506113db612bea565b505050565b606060006113ee6001612b76565b905060008060005b83811015611497573373ffffffffffffffffffffffffffffffffffffffff1660056000600184611426919061346b565b815260200190815260200160002060030160009054906101000a900473ffffffffffffffffffffffffffffffffffffffff1673ffffffffffffffffffffffffffffffffffffffff16141561148457600183611481919061346b565b92505b808061148f90613622565b9150506113f6565b5060008267ffffffffffffffff8111156114da577f4e487b7100000000000000000000000000000000000000000000000000000000600052604160045260246000fd5b60405190808252806020026020018201604052801561151357816020015b611500612c36565b8152602001906001900390816114f85790505b50905060005b8481101561178b573373ffffffffffffffffffffffffffffffffffffffff1660056000600184611549919061346b565b815260200190815260200160002060030160009054906101000a900473ffffffffffffffffffffffffffffffffffffffff1673ffffffffffffffffffffffffffffffffffffffff1614156117785760006001826115a6919061346b565b905060006005600083815260200190815260200160002090508060405180610100016040529081600082015481526020016001820160009054906101000a900473ffffffffffffffffffffffffffffffffffffffff1673ffffffffffffffffffffffffffffffffffffffff1673ffffffffffffffffffffffffffffffffffffffff168152602001600282015481526020016003820160009054906101000a900473ffffffffffffffffffffffffffffffffffffffff1673ffffffffffffffffffffffffffffffffffffffff1673ffffffffffffffffffffffffffffffffffffffff1681526020016004820160009054906101000a900473ffffffffffffffffffffffffffffffffffffffff1673ffffffffffffffffffffffffffffffffffffffff1673ffffffffffffffffffffffffffffffffffffffff168152602001600582015481526020016006820160009054906101000a900460ff161515151581526020016006820160019054906101000a900460ff16151515158152505084868151811061175b577f4e487b7100000000000000000000000000000000000000000000000000000000600052603260045260246000fd5b6020026020010181905250600185611773919061346b565b945050505b808061178390613622565b915050611519565b508094505050505090565b3373ffffffffffffffffffffffffffffffffffffffff16600460009054906101000a900473ffffffffffffffffffffffffffffffffffffffff1673ffffffffffffffffffffffffffffffffffffffff1614611826576040517f08c379a000000000000000000000000000000000000000000000000000000000815260040161181d90613208565b60405180910390fd5b6118306001612bd4565b565b3373ffffffffffffffffffffffffffffffffffffffff16600460009054906101000a900473ffffffffffffffffffffffffffffffffffffffff1673ffffffffffffffffffffffffffffffffffffffff16146118c2576040517f08c379a00000000000000000000000000000000000000000000000000000000081526004016118b9906132a8565b60405180910390fd5b8060038190555050565b6118d4612b84565b3373ffffffffffffffffffffffffffffffffffffffff166005600084815260200190815260200160002060030160009054906101000a900473ffffffffffffffffffffffffffffffffffffffff1673ffffffffffffffffffffffffffffffffffffffff1614611978576040517f08c379a000000000000000000000000000000000000000000000000000000000815260040161196f90613268565b60405180910390fd5b600081116119bb576040517f08c379a00000000000000000000000000000000000000000000000000000000081526004016119b290613308565b60405180910390fd5b8060056000848152602001908152602001600020600501819055506119de612bea565b5050565b3373ffffffffffffffffffffffffffffffffffffffff16600460009054906101000a900473ffffffffffffffffffffffffffffffffffffffff1673ffffffffffffffffffffffffffffffffffffffff1614611a72576040517f08c379a0000000000000000000000000000000000000000000000000000000008152600401611a6990613208565b60405180910390fd5b611a7c6002612bd4565b565b3373ffffffffffffffffffffffffffffffffffffffff16600460009054906101000a900473ffffffffffffffffffffffffffffffffffffffff1673ffffffffffffffffffffffffffffffffffffffff1614611b0e576040517f08c379a0000000000000000000000000000000000000000000000000000000008152600401611b05906132a8565b60405180910390fd5b80600460146101000a81548160ff02191690831515021790555050565b611b33612b84565b3373ffffffffffffffffffffffffffffffffffffffff166005600083815260200190815260200160002060030160009054906101000a900473ffffffffffffffffffffffffffffffffffffffff1673ffffffffffffffffffffffffffffffffffffffff1614611bd7576040517f08c379a0000000000000000000000000000000000000000000000000000000008152600401611bce90613268565b60405180910390fd5b60016005600083815260200190815260200160002060060160006101000a81548160ff021916908315150217905550336005600083815260200190815260200160002060030160006101000a81548173ffffffffffffffffffffffffffffffffffffffff021916908373ffffffffffffffffffffffffffffffffffffffff160217905550336005600083815260200190815260200160002060040160006101000a81548173ffffffffffffffffffffffffffffffffffffffff021916908373ffffffffffffffffffffffffffffffffffffffff160217905550611cba6002612bd4565b6005600082815260200190815260200160002060010160009054906101000a900473ffffffffffffffffffffffffffffffffffffffff1673ffffffffffffffffffffffffffffffffffffffff166323b872dd3033846040518463ffffffff1660e01b8152600401611d2d9392919061318f565b600060405180830381600087803b158015611d4757600080fd5b505af1158015611d5b573d6000803e3d6000fd5b50505050611d67612bea565b50565b611d72612b84565b60006005600083815260200190815260200160002060050154905060006005600084815260200190815260200160002060030160009054906101000a900473ffffffffffffffffffffffffffffffffffffffff169050813414611e0a576040517f08c379a0000000000000000000000000000000000000000000000000000000008152600401611e0190613228565b60405180910390fd5b3073ffffffffffffffffffffffffffffffffffffffff166005600085815260200190815260200160002060040160009054906101000a900473ffffffffffffffffffffffffffffffffffffffff1673ffffffffffffffffffffffffffffffffffffffff1614611eae576040517f08c379a0000000000000000000000000000000000000000000000000000000008152600401611ea590613248565b60405180910390fd5b336005600085815260200190815260200160002060040160006101000a81548173ffffffffffffffffffffffffffffffffffffffff021916908373ffffffffffffffffffffffffffffffffffffffff16021790555060016005600085815260200190815260200160002060060160006101000a81548160ff02191690831515021790555060006005600085815260200190815260200160002060030160006101000a81548173ffffffffffffffffffffffffffffffffffffffff021916908373ffffffffffffffffffffffffffffffffffffffff160217905550611f926002612bd4565b6005600084815260200190815260200160002060010160009054906101000a900473ffffffffffffffffffffffffffffffffffffffff1673ffffffffffffffffffffffffffffffffffffffff166323b872dd3033866040518463ffffffff1660e01b81526004016120059392919061318f565b600060405180830381600087803b15801561201f57600080fd5b505af1158015612033573d6000803e3d6000fd5b505050506000612061606461205360035486612bf490919063ffffffff16565b612c0a90919063ffffffff16565b905060006120788285612c2090919063ffffffff16565b9050600460009054906101000a900473ffffffffffffffffffffffffffffffffffffffff1673ffffffffffffffffffffffffffffffffffffffff166108fc839081150290604051600060405180830381858888f193505050501580156120e2573d6000803e3d6000fd5b508273ffffffffffffffffffffffffffffffffffffffff166108fc829081150290604051600060405180830381858888f19350505050158015612129573d6000803e3d6000fd5b5050505050612136612bea565b50565b606060006121476001612b76565b905060008060005b838110156121f0578573ffffffffffffffffffffffffffffffffffffffff166005600060018461217f919061346b565b815260200190815260200160002060040160009054906101000a900473ffffffffffffffffffffffffffffffffffffffff1673ffffffffffffffffffffffffffffffffffffffff1614156121dd576001836121da919061346b565b92505b80806121e890613622565b91505061214f565b5060008267ffffffffffffffff811115612233577f4e487b7100000000000000000000000000000000000000000000000000000000600052604160045260246000fd5b60405190808252806020026020018201604052801561226c57816020015b612259612c36565b8152602001906001900390816122515790505b50905060005b848110156124e4578673ffffffffffffffffffffffffffffffffffffffff16600560006001846122a2919061346b565b815260200190815260200160002060040160009054906101000a900473ffffffffffffffffffffffffffffffffffffffff1673ffffffffffffffffffffffffffffffffffffffff1614156124d15760006001826122ff919061346b565b905060006005600083815260200190815260200160002090508060405180610100016040529081600082015481526020016001820160009054906101000a900473ffffffffffffffffffffffffffffffffffffffff1673ffffffffffffffffffffffffffffffffffffffff1673ffffffffffffffffffffffffffffffffffffffff168152602001600282015481526020016003820160009054906101000a900473ffffffffffffffffffffffffffffffffffffffff1673ffffffffffffffffffffffffffffffffffffffff1673ffffffffffffffffffffffffffffffffffffffff1681526020016004820160009054906101000a900473ffffffffffffffffffffffffffffffffffffffff1673ffffffffffffffffffffffffffffffffffffffff1673ffffffffffffffffffffffffffffffffffffffff168152602001600582015481526020016006820160009054906101000a900460ff161515151581526020016006820160019054906101000a900460ff1615151515815250508486815181106124b4577f4e487b7100000000000000000000000000000000000000000000000000000000600052603260045260246000fd5b60200260200101819052506001856124cc919061346b565b945050505b80806124dc90613622565b915050612272565b5080945050505050919050565b606060006124ff6001612b76565b90506000808267ffffffffffffffff811115612544577f4e487b7100000000000000000000000000000000000000000000000000000000600052604160045260246000fd5b60405190808252806020026020018201604052801561257d57816020015b61256a612c36565b8152602001906001900390816125625790505b50905060005b8381101561277e57600060018261259a919061346b565b905060006005600083815260200190815260200160002090508060405180610100016040529081600082015481526020016001820160009054906101000a900473ffffffffffffffffffffffffffffffffffffffff1673ffffffffffffffffffffffffffffffffffffffff1673ffffffffffffffffffffffffffffffffffffffff168152602001600282015481526020016003820160009054906101000a900473ffffffffffffffffffffffffffffffffffffffff1673ffffffffffffffffffffffffffffffffffffffff1673ffffffffffffffffffffffffffffffffffffffff1681526020016004820160009054906101000a900473ffffffffffffffffffffffffffffffffffffffff1673ffffffffffffffffffffffffffffffffffffffff1673ffffffffffffffffffffffffffffffffffffffff168152602001600582015481526020016006820160009054906101000a900460ff161515151581526020016006820160019054906101000a900460ff16151515158152505084868151811061274f577f4e487b7100000000000000000000000000000000000000000000000000000000600052603260045260246000fd5b6020026020010181905250600185612767919061346b565b94505050808061277690613622565b915050612583565b5080935050505090565b612790612b84565b6000821180156127a957506127a56001612b76565b8211155b6127e8576040517f08c379a00000000000000000000000000000000000000000000000000000000081526004016127df90613288565b60405180910390fd5b6000811161282b576040517f08c379a000000000000000000000000000000000000000000000000000000000815260040161282290613308565b60405180910390fd5b3373ffffffffffffffffffffffffffffffffffffffff166005600084815260200190815260200160002060040160009054906101000a900473ffffffffffffffffffffffffffffffffffffffff1673ffffffffffffffffffffffffffffffffffffffff16146128cf576040517f08c379a00000000000000000000000000000000000000000000000000000000081526004016128c690613268565b60405180910390fd5b60006005600084815260200190815260200160002060060160006101000a81548160ff021916908315150217905550806005600084815260200190815260200160002060050181905550336005600084815260200190815260200160002060030160006101000a81548173ffffffffffffffffffffffffffffffffffffffff021916908373ffffffffffffffffffffffffffffffffffffffff160217905550306005600084815260200190815260200160002060040160006101000a81548173ffffffffffffffffffffffffffffffffffffffff021916908373ffffffffffffffffffffffffffffffffffffffff1602179055506129cd6002612b1a565b6005600083815260200190815260200160002060010160009054906101000a900473ffffffffffffffffffffffffffffffffffffffff1673ffffffffffffffffffffffffffffffffffffffff166323b872dd3330856040518463ffffffff1660e01b8152600401612a409392919061318f565b600060405180830381600087803b158015612a5a57600080fd5b505af1158015612a6e573d6000803e3d6000fd5b50505050612a7a612bea565b5050565b3373ffffffffffffffffffffffffffffffffffffffff16600460009054906101000a900473ffffffffffffffffffffffffffffffffffffffff1673ffffffffffffffffffffffffffffffffffffffff1614612b0e576040517f08c379a0000000000000000000000000000000000000000000000000000000008152600401612b0590613208565b60405180910390fd5b612b186001612b1a565b565b60008160000154905060008111612b66576040517f08c379a0000000000000000000000000000000000000000000000000000000008152600401612b5d906131e8565b60405180910390fd5b6001810382600001819055505050565b600081600001549050919050565b60026000541415612bca576040517f08c379a0000000000000000000000000000000000000000000000000000000008152600401612bc1906132e8565b60405180910390fd5b6002600081905550565b6001816000016000828254019250508190555050565b6001600081905550565b60008183612c0291906134f2565b905092915050565b60008183612c1891906134c1565b905092915050565b60008183612c2e919061354c565b905092915050565b60405180610100016040528060008152602001600073ffffffffffffffffffffffffffffffffffffffff16815260200160008152602001600073ffffffffffffffffffffffffffffffffffffffff168152602001600073ffffffffffffffffffffffffffffffffffffffff168152602001600081526020016000151581526020016000151581525090565b600081359050612cd081613947565b92915050565b600081359050612ce58161395e565b92915050565b600081359050612cfa81613975565b92915050565b600060208284031215612d1257600080fd5b6000612d2084828501612cc1565b91505092915050565b600080600060608486031215612d3e57600080fd5b6000612d4c86828701612cc1565b9350506020612d5d86828701612cc1565b9250506040612d6e86828701612ceb565b9150509250925092565b60008060408385031215612d8b57600080fd5b6000612d9985828601612cc1565b9250506020612daa85828601612ceb565b9150509250929050565b600080600060608486031215612dc957600080fd5b6000612dd786828701612cc1565b9350506020612de886828701612ceb565b9250506040612df986828701612ceb565b9150509250925092565b600060208284031215612e1557600080fd5b6000612e2384828501612cd6565b91505092915050565b600060208284031215612e3e57600080fd5b6000612e4c84828501612ceb565b91505092915050565b60008060408385031215612e6857600080fd5b6000612e7685828601612ceb565b9250506020612e8785828601612ceb565b9150509250929050565b6000612e9d83836130cf565b6101008301905092915050565b612eb3816135da565b82525050565b612ec281613592565b82525050565b612ed181613580565b82525050565b612ee081613580565b82525050565b6000612ef182613431565b612efb8185613449565b9350612f0683613421565b8060005b83811015612f37578151612f1e8882612e91565b9750612f298361343c565b925050600181019050612f0a565b5085935050505092915050565b612f4d816135a4565b82525050565b612f5c816135a4565b82525050565b612f6b816135ec565b82525050565b6000612f7e601b8361345a565b9150612f89826136c9565b602082019050919050565b6000612fa160318361345a565b9150612fac826136f2565b604082019050919050565b6000612fc460408361345a565b9150612fcf82613741565b604082019050919050565b6000612fe760268361345a565b9150612ff282613790565b604082019050919050565b600061300a602a8361345a565b9150613015826137df565b604082019050919050565b600061302d60108361345a565b91506130388261382e565b602082019050919050565b600061305060308361345a565b915061305b82613857565b604082019050919050565b6000613073603c8361345a565b915061307e826138a6565b604082019050919050565b6000613096601f8361345a565b91506130a1826138f5565b602082019050919050565b60006130b9601c8361345a565b91506130c48261391e565b602082019050919050565b610100820160008201516130e66000850182613171565b5060208201516130f96020850182612ec8565b50604082015161310c6040850182613171565b50606082015161311f6060850182612eb9565b5060808201516131326080850182612eb9565b5060a082015161314560a0850182613171565b5060c082015161315860c0850182612f44565b5060e082015161316b60e0850182612f44565b50505050565b61317a816135d0565b82525050565b613189816135d0565b82525050565b60006060820190506131a46000830186612ed7565b6131b16020830185612ed7565b6131be6040830184613180565b949350505050565b600060208201905081810360008301526131e08184612ee6565b905092915050565b6000602082019050818103600083015261320181612f71565b9050919050565b6000602082019050818103600083015261322181612f94565b9050919050565b6000602082019050818103600083015261324181612fb7565b9050919050565b6000602082019050818103600083015261326181612fda565b9050919050565b6000602082019050818103600083015261328181612ffd565b9050919050565b600060208201905081810360008301526132a181613020565b9050919050565b600060208201905081810360008301526132c181613043565b9050919050565b600060208201905081810360008301526132e181613066565b9050919050565b6000602082019050818103600083015261330181613089565b9050919050565b60006020820190508181036000830152613321816130ac565b9050919050565b600060208201905061333d6000830184613180565b92915050565b600060e082019050613358600083018a613180565b6133656020830189612ed7565b6133726040830188612eaa565b61337f6060830187612eaa565b61338c6080830186612f62565b61339960a0830185612f53565b6133a660c0830184612f53565b98975050505050505050565b600060e0820190506133c7600083018a613180565b6133d46020830189612ed7565b6133e16040830188612ed7565b6133ee6060830187612ed7565b6133fb6080830186613180565b61340860a0830185612f53565b61341560c0830184612f53565b98975050505050505050565b6000819050602082019050919050565b600081519050919050565b6000602082019050919050565b600082825260208201905092915050565b600082825260208201905092915050565b6000613476826135d0565b9150613481836135d0565b9250827fffffffffffffffffffffffffffffffffffffffffffffffffffffffffffffffff038211156134b6576134b561366b565b5b828201905092915050565b60006134cc826135d0565b91506134d7836135d0565b9250826134e7576134e661369a565b5b828204905092915050565b60006134fd826135d0565b9150613508836135d0565b9250817fffffffffffffffffffffffffffffffffffffffffffffffffffffffffffffffff04831182151516156135415761354061366b565b5b828202905092915050565b6000613557826135d0565b9150613562836135d0565b9250828210156135755761357461366b565b5b828203905092915050565b600061358b826135b0565b9050919050565b600061359d826135b0565b9050919050565b60008115159050919050565b600073ffffffffffffffffffffffffffffffffffffffff82169050919050565b6000819050919050565b60006135e5826135fe565b9050919050565b60006135f7826135d0565b9050919050565b600061360982613610565b9050919050565b600061361b826135b0565b9050919050565b600061362d826135d0565b91507fffffffffffffffffffffffffffffffffffffffffffffffffffffffffffffffff8214156136605761365f61366b565b5b600182019050919050565b7f4e487b7100000000000000000000000000000000000000000000000000000000600052601160045260246000fd5b7f4e487b7100000000000000000000000000000000000000000000000000000000600052601260045260246000fd5b7f436f756e7465723a2064656372656d656e74206f766572666c6f770000000000600082015250565b7f4f6e6c79206d61726b6574706c616365206f776e65722063616e20706572666f60008201527f726d2074686973206f7065726174696f6e000000000000000000000000000000602082015250565b7f506c65617365207375626d6974207468652061736b696e67207072696365206960008201527f6e206f7264657220746f20636f6d706c65746520746865207075726368617365602082015250565b7f546865206974656d206e6565647320746f206265206c697374656420746f206260008201527f6520736f6c640000000000000000000000000000000000000000000000000000602082015250565b7f4f6e6c79206974656d206f776e65722063616e20706572666f726d207468697360008201527f206f7065726174696f6e00000000000000000000000000000000000000000000602082015250565b7f546f6b656e20494420696e76616c696400000000000000000000000000000000600082015250565b7f4f6e6c79206d61726b6574706c616365206f776e65722063616e20757064617460008201527f65206c697374696e672070726963652e00000000000000000000000000000000602082015250565b7f4f6e6c79206d61726b6574706c616365206f776e65722063616e20637265617460008201527f65206e6577204e4654206d61726b6574206173736f63696174696f6e00000000602082015250565b7f5265656e7472616e637947756172643a207265656e7472616e742063616c6c00600082015250565b7f5072696365206d757374206265206174206c6561737420312077656900000000600082015250565b61395081613580565b811461395b57600080fd5b50565b613967816135a4565b811461397257600080fd5b50565b61397e816135d0565b811461398957600080fd5b5056fea2646970667358221220c5068e7b6618edd8a81ec91a894d41e417d8e3d0638f537089a0d2a646df4eea64736f6c63430008040033",
  "linkReferences": {},
  "deployedLinkReferences": {}
}