{
  "_format": "hh-sol-artifact-1",
  "contractName": "NFTMarketplace",
  "sourceName": "contracts/NFTMarketplace.sol",
  "abi": [
    {
      "inputs": [],
      "stateMutability": "nonpayable",
      "type": "constructor"
    },
    {
      "anonymous": false,
      "inputs": [
        {
          "indexed": false,
          "internalType": "uint256",
          "name": "itemId",
          "type": "uint256"
        },
        {
          "indexed": false,
          "internalType": "address",
          "name": "nftContract",
          "type": "address"
        },
        {
          "indexed": true,
          "internalType": "uint256",
          "name": "tokenId",
          "type": "uint256"
        },
        {
          "indexed": false,
          "internalType": "address",
          "name": "seller",
          "type": "address"
        },
        {
          "indexed": false,
          "internalType": "address",
          "name": "owner",
          "type": "address"
        },
        {
          "indexed": false,
          "internalType": "uint256",
          "name": "price",
          "type": "uint256"
        },
        {
          "indexed": false,
          "internalType": "bool",
          "name": "sold",
          "type": "bool"
        }
      ],
      "name": "MarketItemCreated",
      "type": "event"
    },
    {
      "inputs": [
        {
          "internalType": "uint256",
          "name": "tokenId",
          "type": "uint256"
        },
        {
          "internalType": "uint256",
          "name": "price",
          "type": "uint256"
        }
      ],
      "name": "changePrice",
      "outputs": [],
      "stateMutability": "nonpayable",
      "type": "function"
    },
    {
      "inputs": [],
      "name": "decreaseItemIds",
      "outputs": [],
      "stateMutability": "nonpayable",
      "type": "function"
    },
    {
      "inputs": [],
      "name": "decreaseItemsSold",
      "outputs": [],
      "stateMutability": "nonpayable",
      "type": "function"
    },
    {
      "inputs": [
        {
          "internalType": "uint256",
          "name": "tokenId",
          "type": "uint256"
        }
      ],
      "name": "deleteNFT",
      "outputs": [],
      "stateMutability": "nonpayable",
      "type": "function"
    },
    {
      "inputs": [
        {
          "internalType": "address",
          "name": "nftContract",
          "type": "address"
        },
        {
          "internalType": "uint256",
          "name": "tokenId",
          "type": "uint256"
        }
      ],
      "name": "delistNFT",
      "outputs": [],
      "stateMutability": "payable",
      "type": "function"
    },
    {
      "inputs": [],
      "name": "fetchAllMarketItems",
      "outputs": [
        {
          "components": [
            {
              "internalType": "uint256",
              "name": "itemId",
              "type": "uint256"
            },
            {
              "internalType": "address",
              "name": "nftContract",
              "type": "address"
            },
            {
              "internalType": "uint256",
              "name": "tokenId",
              "type": "uint256"
            },
            {
              "internalType": "address payable",
              "name": "seller",
              "type": "address"
            },
            {
              "internalType": "address payable",
              "name": "owner",
              "type": "address"
            },
            {
              "internalType": "uint256",
              "name": "price",
              "type": "uint256"
            },
            {
              "internalType": "bool",
              "name": "sold",
              "type": "bool"
            }
          ],
          "internalType": "struct NFTMarketplace.MarketItem[]",
          "name": "",
          "type": "tuple[]"
        }
      ],
      "stateMutability": "view",
      "type": "function"
    },
    {
      "inputs": [],
      "name": "fetchItemsListed",
      "outputs": [
        {
          "components": [
            {
              "internalType": "uint256",
              "name": "itemId",
              "type": "uint256"
            },
            {
              "internalType": "address",
              "name": "nftContract",
              "type": "address"
            },
            {
              "internalType": "uint256",
              "name": "tokenId",
              "type": "uint256"
            },
            {
              "internalType": "address payable",
              "name": "seller",
              "type": "address"
            },
            {
              "internalType": "address payable",
              "name": "owner",
              "type": "address"
            },
            {
              "internalType": "uint256",
              "name": "price",
              "type": "uint256"
            },
            {
              "internalType": "bool",
              "name": "sold",
              "type": "bool"
            }
          ],
          "internalType": "struct NFTMarketplace.MarketItem[]",
          "name": "",
          "type": "tuple[]"
        }
      ],
      "stateMutability": "view",
      "type": "function"
    },
    {
      "inputs": [],
      "name": "fetchMarketItems",
      "outputs": [
        {
          "components": [
            {
              "internalType": "uint256",
              "name": "itemId",
              "type": "uint256"
            },
            {
              "internalType": "address",
              "name": "nftContract",
              "type": "address"
            },
            {
              "internalType": "uint256",
              "name": "tokenId",
              "type": "uint256"
            },
            {
              "internalType": "address payable",
              "name": "seller",
              "type": "address"
            },
            {
              "internalType": "address payable",
              "name": "owner",
              "type": "address"
            },
            {
              "internalType": "uint256",
              "name": "price",
              "type": "uint256"
            },
            {
              "internalType": "bool",
              "name": "sold",
              "type": "bool"
            }
          ],
          "internalType": "struct NFTMarketplace.MarketItem[]",
          "name": "",
          "type": "tuple[]"
        }
      ],
      "stateMutability": "view",
      "type": "function"
    },
    {
      "inputs": [],
      "name": "fetchMyNFTs",
      "outputs": [
        {
          "components": [
            {
              "internalType": "uint256",
              "name": "itemId",
              "type": "uint256"
            },
            {
              "internalType": "address",
              "name": "nftContract",
              "type": "address"
            },
            {
              "internalType": "uint256",
              "name": "tokenId",
              "type": "uint256"
            },
            {
              "internalType": "address payable",
              "name": "seller",
              "type": "address"
            },
            {
              "internalType": "address payable",
              "name": "owner",
              "type": "address"
            },
            {
              "internalType": "uint256",
              "name": "price",
              "type": "uint256"
            },
            {
              "internalType": "bool",
              "name": "sold",
              "type": "bool"
            }
          ],
          "internalType": "struct NFTMarketplace.MarketItem[]",
          "name": "",
          "type": "tuple[]"
        }
      ],
      "stateMutability": "view",
      "type": "function"
    },
    {
      "inputs": [
        {
          "internalType": "address",
          "name": "userAddress",
          "type": "address"
        }
      ],
      "name": "fetchNFTsByUserAddress",
      "outputs": [
        {
          "components": [
            {
              "internalType": "uint256",
              "name": "itemId",
              "type": "uint256"
            },
            {
              "internalType": "address",
              "name": "nftContract",
              "type": "address"
            },
            {
              "internalType": "uint256",
              "name": "tokenId",
              "type": "uint256"
            },
            {
              "internalType": "address payable",
              "name": "seller",
              "type": "address"
            },
            {
              "internalType": "address payable",
              "name": "owner",
              "type": "address"
            },
            {
              "internalType": "uint256",
              "name": "price",
              "type": "uint256"
            },
            {
              "internalType": "bool",
              "name": "sold",
              "type": "bool"
            }
          ],
          "internalType": "struct NFTMarketplace.MarketItem[]",
          "name": "",
          "type": "tuple[]"
        }
      ],
      "stateMutability": "view",
      "type": "function"
    },
    {
      "inputs": [],
      "name": "getListingPrice",
      "outputs": [
        {
          "internalType": "uint256",
          "name": "",
          "type": "uint256"
        }
      ],
      "stateMutability": "view",
      "type": "function"
    },
    {
      "inputs": [],
      "name": "increaseItemIds",
      "outputs": [],
      "stateMutability": "nonpayable",
      "type": "function"
    },
    {
      "inputs": [],
      "name": "increaseItemsSold",
      "outputs": [],
      "stateMutability": "nonpayable",
      "type": "function"
    },
    {
      "inputs": [
        {
          "internalType": "address",
          "name": "nftContract",
          "type": "address"
        },
        {
          "internalType": "uint256",
          "name": "tokenId",
          "type": "uint256"
        },
        {
          "internalType": "uint256",
          "name": "price",
          "type": "uint256"
        }
      ],
      "name": "listMarketItem",
      "outputs": [],
      "stateMutability": "payable",
      "type": "function"
    },
    {
      "inputs": [
        {
          "internalType": "address",
          "name": "nftContract",
          "type": "address"
        },
        {
          "internalType": "uint256",
          "name": "tokenId",
          "type": "uint256"
        }
      ],
      "name": "purchaseItem",
      "outputs": [],
      "stateMutability": "payable",
      "type": "function"
    },
    {
      "inputs": [
        {
          "internalType": "address",
          "name": "nftContract",
          "type": "address"
        },
        {
          "internalType": "uint256",
          "name": "tokenId",
          "type": "uint256"
        },
        {
          "internalType": "uint256",
          "name": "price",
          "type": "uint256"
        }
      ],
      "name": "resellToken",
      "outputs": [],
      "stateMutability": "payable",
      "type": "function"
    },
    {
      "inputs": [
        {
          "internalType": "uint256",
          "name": "_listingPrice",
          "type": "uint256"
        }
      ],
      "name": "updateListingPrice",
      "outputs": [],
      "stateMutability": "payable",
      "type": "function"
    }
  ],
  "bytecode": "0x60806040526003805534801561001457600080fd5b50600160008190555033600460006101000a81548173ffffffffffffffffffffffffffffffffffffffff021916908373ffffffffffffffffffffffffffffffffffffffff1602179055506132358061006d6000396000f3fe6080604052600436106100fe5760003560e01c8063a17a709411610095578063bb89e74c11610064578063bb89e74c14610292578063df299811146102a9578063dfb6452b146102e6578063e818dc8a14610311578063f687ed5714610328576100fe565b8063a17a709414610215578063ae677aa314610231578063b23e1ad91461024d578063b3de019c14610269576100fe565b8063213c4e1a116100d1578063213c4e1a1461019b57806332724900146101b757806345f8fa80146101d357806353844fb2146101fe576100fe565b80630865d17a146101035780630f08efe01461011a57806312e8558514610145578063202e374014610170575b600080fd5b34801561010f57600080fd5b50610118610351565b005b34801561012657600080fd5b5061012f6103ed565b60405161013c9190612b15565b60405180910390f35b34801561015157600080fd5b5061015a610702565b6040516101679190612c77565b60405180910390f35b34801561017c57600080fd5b5061018561070c565b6040516101929190612b15565b60405180910390f35b6101b560048036038101906101b0919061275f565b610aa6565b005b6101d160048036038101906101cc9190612723565b610dfa565b005b3480156101df57600080fd5b506101e8611194565b6040516101f59190612b15565b60405180910390f35b34801561020a57600080fd5b5061021361152e565b005b61022f600480360381019061022a9190612723565b6115ca565b005b61024b600480360381019061024691906127ae565b6117d4565b005b6102676004803603810190610262919061275f565b61186e565b005b34801561027557600080fd5b50610290600480360381019061028b91906127d7565b611b2f565b005b34801561029e57600080fd5b506102a7611c45565b005b3480156102b557600080fd5b506102d060048036038101906102cb91906126fa565b611ce1565b6040516102dd9190612b15565b60405180910390f35b3480156102f257600080fd5b506102fb61207d565b6040516103089190612b15565b60405180910390f35b34801561031d57600080fd5b506103266122f8565b005b34801561033457600080fd5b5061034f600480360381019061034a91906127ae565b612394565b005b3373ffffffffffffffffffffffffffffffffffffffff16600460009054906101000a900473ffffffffffffffffffffffffffffffffffffffff1673ffffffffffffffffffffffffffffffffffffffff16146103e1576040517f08c379a00000000000000000000000000000000000000000000000000000000081526004016103d890612b57565b60405180910390fd5b6103eb6002612533565b565b606060006103fb600161258f565b90506000610409600261258f565b610413600161258f565b61041d9190612e1e565b90506000808267ffffffffffffffff811115610462577f4e487b7100000000000000000000000000000000000000000000000000000000600052604160045260246000fd5b60405190808252806020026020018201604052801561049b57816020015b61048861264f565b8152602001906001900390816104805790505b50905060005b848110156106f7573073ffffffffffffffffffffffffffffffffffffffff16600560006001846104d19190612d3d565b815260200190815260200160002060040160009054906101000a900473ffffffffffffffffffffffffffffffffffffffff1673ffffffffffffffffffffffffffffffffffffffff1614156106e457600060018261052e9190612d3d565b90506000600560008381526020019081526020016000209050806040518060e0016040529081600082015481526020016001820160009054906101000a900473ffffffffffffffffffffffffffffffffffffffff1673ffffffffffffffffffffffffffffffffffffffff1673ffffffffffffffffffffffffffffffffffffffff168152602001600282015481526020016003820160009054906101000a900473ffffffffffffffffffffffffffffffffffffffff1673ffffffffffffffffffffffffffffffffffffffff1673ffffffffffffffffffffffffffffffffffffffff1681526020016004820160009054906101000a900473ffffffffffffffffffffffffffffffffffffffff1673ffffffffffffffffffffffffffffffffffffffff1673ffffffffffffffffffffffffffffffffffffffff168152602001600582015481526020016006820160009054906101000a900460ff1615151515815250508486815181106106c7577f4e487b7100000000000000000000000000000000000000000000000000000000600052603260045260246000fd5b60200260200101819052506001856106df9190612d3d565b945050505b80806106ef90612eac565b9150506104a1565b508094505050505090565b6000600354905090565b6060600061071a600161258f565b905060008060005b838110156107c3573373ffffffffffffffffffffffffffffffffffffffff16600560006001846107529190612d3d565b815260200190815260200160002060040160009054906101000a900473ffffffffffffffffffffffffffffffffffffffff1673ffffffffffffffffffffffffffffffffffffffff1614156107b0576001836107ad9190612d3d565b92505b80806107bb90612eac565b915050610722565b5060008267ffffffffffffffff811115610806577f4e487b7100000000000000000000000000000000000000000000000000000000600052604160045260246000fd5b60405190808252806020026020018201604052801561083f57816020015b61082c61264f565b8152602001906001900390816108245790505b50905060005b84811015610a9b573373ffffffffffffffffffffffffffffffffffffffff16600560006001846108759190612d3d565b815260200190815260200160002060040160009054906101000a900473ffffffffffffffffffffffffffffffffffffffff1673ffffffffffffffffffffffffffffffffffffffff161415610a885760006001826108d29190612d3d565b90506000600560008381526020019081526020016000209050806040518060e0016040529081600082015481526020016001820160009054906101000a900473ffffffffffffffffffffffffffffffffffffffff1673ffffffffffffffffffffffffffffffffffffffff1673ffffffffffffffffffffffffffffffffffffffff168152602001600282015481526020016003820160009054906101000a900473ffffffffffffffffffffffffffffffffffffffff1673ffffffffffffffffffffffffffffffffffffffff1673ffffffffffffffffffffffffffffffffffffffff1681526020016004820160009054906101000a900473ffffffffffffffffffffffffffffffffffffffff1673ffffffffffffffffffffffffffffffffffffffff1673ffffffffffffffffffffffffffffffffffffffff168152602001600582015481526020016006820160009054906101000a900460ff161515151581525050848681518110610a6b577f4e487b7100000000000000000000000000000000000000000000000000000000600052603260045260246000fd5b6020026020010181905250600185610a839190612d3d565b945050505b8080610a9390612eac565b915050610845565b508094505050505090565b610aae61259d565b3373ffffffffffffffffffffffffffffffffffffffff16600460009054906101000a900473ffffffffffffffffffffffffffffffffffffffff1673ffffffffffffffffffffffffffffffffffffffff1614610b3e576040517f08c379a0000000000000000000000000000000000000000000000000000000008152600401610b3590612c17565b60405180910390fd5b60008111610b81576040517f08c379a0000000000000000000000000000000000000000000000000000000008152600401610b7890612c57565b60405180910390fd5b610b8b60016125ed565b6000610b97600161258f565b90506040518060e001604052808281526020018573ffffffffffffffffffffffffffffffffffffffff1681526020018481526020013373ffffffffffffffffffffffffffffffffffffffff1681526020013073ffffffffffffffffffffffffffffffffffffffff16815260200183815260200160001515815250600560008581526020019081526020016000206000820151816000015560208201518160010160006101000a81548173ffffffffffffffffffffffffffffffffffffffff021916908373ffffffffffffffffffffffffffffffffffffffff1602179055506040820151816002015560608201518160030160006101000a81548173ffffffffffffffffffffffffffffffffffffffff021916908373ffffffffffffffffffffffffffffffffffffffff16021790555060808201518160040160006101000a81548173ffffffffffffffffffffffffffffffffffffffff021916908373ffffffffffffffffffffffffffffffffffffffff16021790555060a0820151816005015560c08201518160060160006101000a81548160ff0219169083151502179055509050508373ffffffffffffffffffffffffffffffffffffffff166323b872dd3330866040518463ffffffff1660e01b8152600401610d7793929190612ade565b600060405180830381600087803b158015610d9157600080fd5b505af1158015610da5573d6000803e3d6000fd5b50505050827f045dfa01dcba2b36aba1d3dc4a874f4b0c5d2fbeb8d2c4b34a7d88c8d8f929d182863330876000604051610de496959493929190612c92565b60405180910390a250610df5612603565b505050565b610e0261259d565b60006005600083815260200190815260200160002060050154905060006005600084815260200190815260200160002060030160009054906101000a900473ffffffffffffffffffffffffffffffffffffffff169050813414610e9a576040517f08c379a0000000000000000000000000000000000000000000000000000000008152600401610e9190612b77565b60405180910390fd5b3073ffffffffffffffffffffffffffffffffffffffff166005600085815260200190815260200160002060040160009054906101000a900473ffffffffffffffffffffffffffffffffffffffff1673ffffffffffffffffffffffffffffffffffffffff1614610f3e576040517f08c379a0000000000000000000000000000000000000000000000000000000008152600401610f3590612b97565b60405180910390fd5b336005600085815260200190815260200160002060040160006101000a81548173ffffffffffffffffffffffffffffffffffffffff021916908373ffffffffffffffffffffffffffffffffffffffff16021790555060016005600085815260200190815260200160002060060160006101000a81548160ff02191690831515021790555060006005600085815260200190815260200160002060030160006101000a81548173ffffffffffffffffffffffffffffffffffffffff021916908373ffffffffffffffffffffffffffffffffffffffff16021790555061102260026125ed565b8373ffffffffffffffffffffffffffffffffffffffff166323b872dd3033866040518463ffffffff1660e01b815260040161105f93929190612ade565b600060405180830381600087803b15801561107957600080fd5b505af115801561108d573d6000803e3d6000fd5b5050505060006110bb60646110ad6003548661260d90919063ffffffff16565b61262390919063ffffffff16565b905060006110d2828561263990919063ffffffff16565b9050600460009054906101000a900473ffffffffffffffffffffffffffffffffffffffff1673ffffffffffffffffffffffffffffffffffffffff166108fc839081150290604051600060405180830381858888f1935050505015801561113c573d6000803e3d6000fd5b508273ffffffffffffffffffffffffffffffffffffffff166108fc829081150290604051600060405180830381858888f19350505050158015611183573d6000803e3d6000fd5b5050505050611190612603565b5050565b606060006111a2600161258f565b905060008060005b8381101561124b573373ffffffffffffffffffffffffffffffffffffffff16600560006001846111da9190612d3d565b815260200190815260200160002060030160009054906101000a900473ffffffffffffffffffffffffffffffffffffffff1673ffffffffffffffffffffffffffffffffffffffff161415611238576001836112359190612d3d565b92505b808061124390612eac565b9150506111aa565b5060008267ffffffffffffffff81111561128e577f4e487b7100000000000000000000000000000000000000000000000000000000600052604160045260246000fd5b6040519080825280602002602001820160405280156112c757816020015b6112b461264f565b8152602001906001900390816112ac5790505b50905060005b84811015611523573373ffffffffffffffffffffffffffffffffffffffff16600560006001846112fd9190612d3d565b815260200190815260200160002060030160009054906101000a900473ffffffffffffffffffffffffffffffffffffffff1673ffffffffffffffffffffffffffffffffffffffff16141561151057600060018261135a9190612d3d565b90506000600560008381526020019081526020016000209050806040518060e0016040529081600082015481526020016001820160009054906101000a900473ffffffffffffffffffffffffffffffffffffffff1673ffffffffffffffffffffffffffffffffffffffff1673ffffffffffffffffffffffffffffffffffffffff168152602001600282015481526020016003820160009054906101000a900473ffffffffffffffffffffffffffffffffffffffff1673ffffffffffffffffffffffffffffffffffffffff1673ffffffffffffffffffffffffffffffffffffffff1681526020016004820160009054906101000a900473ffffffffffffffffffffffffffffffffffffffff1673ffffffffffffffffffffffffffffffffffffffff1673ffffffffffffffffffffffffffffffffffffffff168152602001600582015481526020016006820160009054906101000a900460ff1615151515815250508486815181106114f3577f4e487b7100000000000000000000000000000000000000000000000000000000600052603260045260246000fd5b602002602001018190525060018561150b9190612d3d565b945050505b808061151b90612eac565b9150506112cd565b508094505050505090565b3373ffffffffffffffffffffffffffffffffffffffff16600460009054906101000a900473ffffffffffffffffffffffffffffffffffffffff1673ffffffffffffffffffffffffffffffffffffffff16146115be576040517f08c379a00000000000000000000000000000000000000000000000000000000081526004016115b590612b57565b60405180910390fd5b6115c860016125ed565b565b6115d261259d565b3373ffffffffffffffffffffffffffffffffffffffff166005600083815260200190815260200160002060030160009054906101000a900473ffffffffffffffffffffffffffffffffffffffff1673ffffffffffffffffffffffffffffffffffffffff1614611676576040517f08c379a000000000000000000000000000000000000000000000000000000000815260040161166d90612bb7565b60405180910390fd5b60016005600083815260200190815260200160002060060160006101000a81548160ff021916908315150217905550336005600083815260200190815260200160002060030160006101000a81548173ffffffffffffffffffffffffffffffffffffffff021916908373ffffffffffffffffffffffffffffffffffffffff160217905550336005600083815260200190815260200160002060040160006101000a81548173ffffffffffffffffffffffffffffffffffffffff021916908373ffffffffffffffffffffffffffffffffffffffff16021790555061175960026125ed565b8173ffffffffffffffffffffffffffffffffffffffff166323b872dd3033846040518463ffffffff1660e01b815260040161179693929190612ade565b600060405180830381600087803b1580156117b057600080fd5b505af11580156117c4573d6000803e3d6000fd5b505050506117d0612603565b5050565b3373ffffffffffffffffffffffffffffffffffffffff16600460009054906101000a900473ffffffffffffffffffffffffffffffffffffffff1673ffffffffffffffffffffffffffffffffffffffff1614611864576040517f08c379a000000000000000000000000000000000000000000000000000000000815260040161185b90612bf7565b60405180910390fd5b8060038190555050565b61187661259d565b60008211801561188f575061188b600161258f565b8211155b6118ce576040517f08c379a00000000000000000000000000000000000000000000000000000000081526004016118c590612bd7565b60405180910390fd5b60008111611911576040517f08c379a000000000000000000000000000000000000000000000000000000000815260040161190890612c57565b60405180910390fd5b3373ffffffffffffffffffffffffffffffffffffffff166005600084815260200190815260200160002060040160009054906101000a900473ffffffffffffffffffffffffffffffffffffffff1673ffffffffffffffffffffffffffffffffffffffff16146119b5576040517f08c379a00000000000000000000000000000000000000000000000000000000081526004016119ac90612bb7565b60405180910390fd5b60006005600084815260200190815260200160002060060160006101000a81548160ff021916908315150217905550806005600084815260200190815260200160002060050181905550336005600084815260200190815260200160002060030160006101000a81548173ffffffffffffffffffffffffffffffffffffffff021916908373ffffffffffffffffffffffffffffffffffffffff160217905550306005600084815260200190815260200160002060040160006101000a81548173ffffffffffffffffffffffffffffffffffffffff021916908373ffffffffffffffffffffffffffffffffffffffff160217905550611ab36002612533565b8273ffffffffffffffffffffffffffffffffffffffff166323b872dd3330856040518463ffffffff1660e01b8152600401611af093929190612ade565b600060405180830381600087803b158015611b0a57600080fd5b505af1158015611b1e573d6000803e3d6000fd5b50505050611b2a612603565b505050565b611b3761259d565b3373ffffffffffffffffffffffffffffffffffffffff166005600084815260200190815260200160002060030160009054906101000a900473ffffffffffffffffffffffffffffffffffffffff1673ffffffffffffffffffffffffffffffffffffffff1614611bdb576040517f08c379a0000000000000000000000000000000000000000000000000000000008152600401611bd290612bb7565b60405180910390fd5b60008111611c1e576040517f08c379a0000000000000000000000000000000000000000000000000000000008152600401611c1590612c57565b60405180910390fd5b806005600084815260200190815260200160002060050181905550611c41612603565b5050565b3373ffffffffffffffffffffffffffffffffffffffff16600460009054906101000a900473ffffffffffffffffffffffffffffffffffffffff1673ffffffffffffffffffffffffffffffffffffffff1614611cd5576040517f08c379a0000000000000000000000000000000000000000000000000000000008152600401611ccc90612b57565b60405180910390fd5b611cdf60026125ed565b565b60606000611cef600161258f565b905060008060005b83811015611d98578573ffffffffffffffffffffffffffffffffffffffff1660056000600184611d279190612d3d565b815260200190815260200160002060040160009054906101000a900473ffffffffffffffffffffffffffffffffffffffff1673ffffffffffffffffffffffffffffffffffffffff161415611d8557600183611d829190612d3d565b92505b8080611d9090612eac565b915050611cf7565b5060008267ffffffffffffffff811115611ddb577f4e487b7100000000000000000000000000000000000000000000000000000000600052604160045260246000fd5b604051908082528060200260200182016040528015611e1457816020015b611e0161264f565b815260200190600190039081611df95790505b50905060005b84811015612070578673ffffffffffffffffffffffffffffffffffffffff1660056000600184611e4a9190612d3d565b815260200190815260200160002060040160009054906101000a900473ffffffffffffffffffffffffffffffffffffffff1673ffffffffffffffffffffffffffffffffffffffff16141561205d576000600182611ea79190612d3d565b90506000600560008381526020019081526020016000209050806040518060e0016040529081600082015481526020016001820160009054906101000a900473ffffffffffffffffffffffffffffffffffffffff1673ffffffffffffffffffffffffffffffffffffffff1673ffffffffffffffffffffffffffffffffffffffff168152602001600282015481526020016003820160009054906101000a900473ffffffffffffffffffffffffffffffffffffffff1673ffffffffffffffffffffffffffffffffffffffff1673ffffffffffffffffffffffffffffffffffffffff1681526020016004820160009054906101000a900473ffffffffffffffffffffffffffffffffffffffff1673ffffffffffffffffffffffffffffffffffffffff1673ffffffffffffffffffffffffffffffffffffffff168152602001600582015481526020016006820160009054906101000a900460ff161515151581525050848681518110612040577f4e487b7100000000000000000000000000000000000000000000000000000000600052603260045260246000fd5b60200260200101819052506001856120589190612d3d565b945050505b808061206890612eac565b915050611e1a565b5080945050505050919050565b6060600061208b600161258f565b90506000808267ffffffffffffffff8111156120d0577f4e487b7100000000000000000000000000000000000000000000000000000000600052604160045260246000fd5b60405190808252806020026020018201604052801561210957816020015b6120f661264f565b8152602001906001900390816120ee5790505b50905060005b838110156122ee5760006001826121269190612d3d565b90506000600560008381526020019081526020016000209050806040518060e0016040529081600082015481526020016001820160009054906101000a900473ffffffffffffffffffffffffffffffffffffffff1673ffffffffffffffffffffffffffffffffffffffff1673ffffffffffffffffffffffffffffffffffffffff168152602001600282015481526020016003820160009054906101000a900473ffffffffffffffffffffffffffffffffffffffff1673ffffffffffffffffffffffffffffffffffffffff1673ffffffffffffffffffffffffffffffffffffffff1681526020016004820160009054906101000a900473ffffffffffffffffffffffffffffffffffffffff1673ffffffffffffffffffffffffffffffffffffffff1673ffffffffffffffffffffffffffffffffffffffff168152602001600582015481526020016006820160009054906101000a900460ff1615151515815250508486815181106122bf577f4e487b7100000000000000000000000000000000000000000000000000000000600052603260045260246000fd5b60200260200101819052506001856122d79190612d3d565b9450505080806122e690612eac565b91505061210f565b5080935050505090565b3373ffffffffffffffffffffffffffffffffffffffff16600460009054906101000a900473ffffffffffffffffffffffffffffffffffffffff1673ffffffffffffffffffffffffffffffffffffffff1614612388576040517f08c379a000000000000000000000000000000000000000000000000000000000815260040161237f90612b57565b60405180910390fd5b6123926001612533565b565b61239c61259d565b3373ffffffffffffffffffffffffffffffffffffffff16600460009054906101000a900473ffffffffffffffffffffffffffffffffffffffff1673ffffffffffffffffffffffffffffffffffffffff161461242c576040517f08c379a000000000000000000000000000000000000000000000000000000000815260040161242390612b57565b60405180910390fd5b600115156005600083815260200190815260200160002060060160009054906101000a900460ff1615151415612467576124666002612533565b5b600560008281526020019081526020016000206000808201600090556001820160006101000a81549073ffffffffffffffffffffffffffffffffffffffff021916905560028201600090556003820160006101000a81549073ffffffffffffffffffffffffffffffffffffffff02191690556004820160006101000a81549073ffffffffffffffffffffffffffffffffffffffff021916905560058201600090556006820160006101000a81549060ff021916905550506125286001612533565b612530612603565b50565b6000816000015490506000811161257f576040517f08c379a000000000000000000000000000000000000000000000000000000000815260040161257690612b37565b60405180910390fd5b6001810382600001819055505050565b600081600001549050919050565b600260005414156125e3576040517f08c379a00000000000000000000000000000000000000000000000000000000081526004016125da90612c37565b60405180910390fd5b6002600081905550565b6001816000016000828254019250508190555050565b6001600081905550565b6000818361261b9190612dc4565b905092915050565b600081836126319190612d93565b905092915050565b600081836126479190612e1e565b905092915050565b6040518060e0016040528060008152602001600073ffffffffffffffffffffffffffffffffffffffff16815260200160008152602001600073ffffffffffffffffffffffffffffffffffffffff168152602001600073ffffffffffffffffffffffffffffffffffffffff168152602001600081526020016000151581525090565b6000813590506126df816131d1565b92915050565b6000813590506126f4816131e8565b92915050565b60006020828403121561270c57600080fd5b600061271a848285016126d0565b91505092915050565b6000806040838503121561273657600080fd5b6000612744858286016126d0565b9250506020612755858286016126e5565b9150509250929050565b60008060006060848603121561277457600080fd5b6000612782868287016126d0565b9350506020612793868287016126e5565b92505060406127a4868287016126e5565b9150509250925092565b6000602082840312156127c057600080fd5b60006127ce848285016126e5565b91505092915050565b600080604083850312156127ea57600080fd5b60006127f8858286016126e5565b9250506020612809858286016126e5565b9150509250929050565b600061281f8383612a32565b60e08301905092915050565b61283481612e64565b82525050565b61284381612e52565b82525050565b61285281612e52565b82525050565b600061286382612d03565b61286d8185612d1b565b935061287883612cf3565b8060005b838110156128a95781516128908882612813565b975061289b83612d0e565b92505060018101905061287c565b5085935050505092915050565b6128bf81612e76565b82525050565b6128ce81612e76565b82525050565b60006128e1601b83612d2c565b91506128ec82612f53565b602082019050919050565b6000612904603183612d2c565b915061290f82612f7c565b604082019050919050565b6000612927604083612d2c565b915061293282612fcb565b604082019050919050565b600061294a602683612d2c565b91506129558261301a565b604082019050919050565b600061296d602a83612d2c565b915061297882613069565b604082019050919050565b6000612990601083612d2c565b915061299b826130b8565b602082019050919050565b60006129b3603083612d2c565b91506129be826130e1565b604082019050919050565b60006129d6603c83612d2c565b91506129e182613130565b604082019050919050565b60006129f9601f83612d2c565b9150612a048261317f565b602082019050919050565b6000612a1c601c83612d2c565b9150612a27826131a8565b602082019050919050565b60e082016000820151612a486000850182612ac0565b506020820151612a5b602085018261283a565b506040820151612a6e6040850182612ac0565b506060820151612a81606085018261282b565b506080820151612a94608085018261282b565b5060a0820151612aa760a0850182612ac0565b5060c0820151612aba60c08501826128b6565b50505050565b612ac981612ea2565b82525050565b612ad881612ea2565b82525050565b6000606082019050612af36000830186612849565b612b006020830185612849565b612b0d6040830184612acf565b949350505050565b60006020820190508181036000830152612b2f8184612858565b905092915050565b60006020820190508181036000830152612b50816128d4565b9050919050565b60006020820190508181036000830152612b70816128f7565b9050919050565b60006020820190508181036000830152612b908161291a565b9050919050565b60006020820190508181036000830152612bb08161293d565b9050919050565b60006020820190508181036000830152612bd081612960565b9050919050565b60006020820190508181036000830152612bf081612983565b9050919050565b60006020820190508181036000830152612c10816129a6565b9050919050565b60006020820190508181036000830152612c30816129c9565b9050919050565b60006020820190508181036000830152612c50816129ec565b9050919050565b60006020820190508181036000830152612c7081612a0f565b9050919050565b6000602082019050612c8c6000830184612acf565b92915050565b600060c082019050612ca76000830189612acf565b612cb46020830188612849565b612cc16040830187612849565b612cce6060830186612849565b612cdb6080830185612acf565b612ce860a08301846128c5565b979650505050505050565b6000819050602082019050919050565b600081519050919050565b6000602082019050919050565b600082825260208201905092915050565b600082825260208201905092915050565b6000612d4882612ea2565b9150612d5383612ea2565b9250827fffffffffffffffffffffffffffffffffffffffffffffffffffffffffffffffff03821115612d8857612d87612ef5565b5b828201905092915050565b6000612d9e82612ea2565b9150612da983612ea2565b925082612db957612db8612f24565b5b828204905092915050565b6000612dcf82612ea2565b9150612dda83612ea2565b9250817fffffffffffffffffffffffffffffffffffffffffffffffffffffffffffffffff0483118215151615612e1357612e12612ef5565b5b828202905092915050565b6000612e2982612ea2565b9150612e3483612ea2565b925082821015612e4757612e46612ef5565b5b828203905092915050565b6000612e5d82612e82565b9050919050565b6000612e6f82612e82565b9050919050565b60008115159050919050565b600073ffffffffffffffffffffffffffffffffffffffff82169050919050565b6000819050919050565b6000612eb782612ea2565b91507fffffffffffffffffffffffffffffffffffffffffffffffffffffffffffffffff821415612eea57612ee9612ef5565b5b600182019050919050565b7f4e487b7100000000000000000000000000000000000000000000000000000000600052601160045260246000fd5b7f4e487b7100000000000000000000000000000000000000000000000000000000600052601260045260246000fd5b7f436f756e7465723a2064656372656d656e74206f766572666c6f770000000000600082015250565b7f4f6e6c79206d61726b6574706c616365206f776e65722063616e20706572666f60008201527f726d2074686973206f7065726174696f6e000000000000000000000000000000602082015250565b7f506c65617365207375626d6974207468652061736b696e67207072696365206960008201527f6e206f7264657220746f20636f6d706c65746520746865207075726368617365602082015250565b7f546865206974656d206e6565647320746f206265206c697374656420746f206260008201527f6520736f6c640000000000000000000000000000000000000000000000000000602082015250565b7f4f6e6c79206974656d206f776e65722063616e20706572666f726d207468697360008201527f206f7065726174696f6e00000000000000000000000000000000000000000000602082015250565b7f546f6b656e20494420696e76616c696400000000000000000000000000000000600082015250565b7f4f6e6c79206d61726b6574706c616365206f776e65722063616e20757064617460008201527f65206c697374696e672070726963652e00000000000000000000000000000000602082015250565b7f4f6e6c79206d61726b6574706c616365206f776e65722063616e20637265617460008201527f65206e6577204e4654206d61726b6574206173736f63696174696f6e00000000602082015250565b7f5265656e7472616e637947756172643a207265656e7472616e742063616c6c00600082015250565b7f5072696365206d757374206265206174206c6561737420312077656900000000600082015250565b6131da81612e52565b81146131e557600080fd5b50565b6131f181612ea2565b81146131fc57600080fd5b5056fea264697066735822122016c3b246effa7f40a817059520f2f98169736ba56ac5a3b828176e544b2538f064736f6c63430008040033",
  "linkReferences": {},
  "deployedLinkReferences": {}
}