{
  "_format": "hh-sol-artifact-1",
  "contractName": "NFTMarketplace",
  "sourceName": "contracts/NFTMarketplace.sol",
  "abi": [
    {
      "inputs": [],
      "stateMutability": "nonpayable",
      "type": "constructor"
    },
    {
      "anonymous": false,
      "inputs": [
        {
          "indexed": false,
          "internalType": "uint256",
          "name": "itemId",
          "type": "uint256"
        },
        {
          "indexed": false,
          "internalType": "address",
          "name": "nftContract",
          "type": "address"
        },
        {
          "indexed": true,
          "internalType": "uint256",
          "name": "tokenId",
          "type": "uint256"
        },
        {
          "indexed": false,
          "internalType": "address",
          "name": "seller",
          "type": "address"
        },
        {
          "indexed": false,
          "internalType": "address",
          "name": "owner",
          "type": "address"
        },
        {
          "indexed": false,
          "internalType": "uint256",
          "name": "price",
          "type": "uint256"
        },
        {
          "indexed": false,
          "internalType": "bool",
          "name": "sold",
          "type": "bool"
        },
        {
          "indexed": false,
          "internalType": "bool",
          "name": "presale",
          "type": "bool"
        }
      ],
      "name": "MarketItemCreated",
      "type": "event"
    },
    {
      "inputs": [
        {
          "internalType": "address",
          "name": "nftContract",
          "type": "address"
        },
        {
          "internalType": "uint256[]",
          "name": "tokenIds",
          "type": "uint256[]"
        },
        {
          "internalType": "uint256[]",
          "name": "prices",
          "type": "uint256[]"
        }
      ],
      "name": "batchListMarketItems",
      "outputs": [],
      "stateMutability": "payable",
      "type": "function"
    },
    {
      "inputs": [
        {
          "internalType": "uint256",
          "name": "tokenId",
          "type": "uint256"
        },
        {
          "internalType": "uint256",
          "name": "price",
          "type": "uint256"
        }
      ],
      "name": "changePrice",
      "outputs": [],
      "stateMutability": "nonpayable",
      "type": "function"
    },
    {
      "inputs": [],
      "name": "decreaseItemIds",
      "outputs": [],
      "stateMutability": "nonpayable",
      "type": "function"
    },
    {
      "inputs": [],
      "name": "decreaseItemsSold",
      "outputs": [],
      "stateMutability": "nonpayable",
      "type": "function"
    },
    {
      "inputs": [
        {
          "internalType": "uint256",
          "name": "tokenId",
          "type": "uint256"
        }
      ],
      "name": "delistNFT",
      "outputs": [],
      "stateMutability": "payable",
      "type": "function"
    },
    {
      "inputs": [],
      "name": "fetchAllMarketItems",
      "outputs": [
        {
          "components": [
            {
              "internalType": "uint256",
              "name": "itemId",
              "type": "uint256"
            },
            {
              "internalType": "address",
              "name": "nftContract",
              "type": "address"
            },
            {
              "internalType": "uint256",
              "name": "tokenId",
              "type": "uint256"
            },
            {
              "internalType": "address payable",
              "name": "seller",
              "type": "address"
            },
            {
              "internalType": "address payable",
              "name": "owner",
              "type": "address"
            },
            {
              "internalType": "uint256",
              "name": "price",
              "type": "uint256"
            },
            {
              "internalType": "bool",
              "name": "sold",
              "type": "bool"
            },
            {
              "internalType": "bool",
              "name": "presale",
              "type": "bool"
            }
          ],
          "internalType": "struct NFTMarketplace.MarketItem[]",
          "name": "",
          "type": "tuple[]"
        }
      ],
      "stateMutability": "view",
      "type": "function"
    },
    {
      "inputs": [],
      "name": "fetchItemsListed",
      "outputs": [
        {
          "components": [
            {
              "internalType": "uint256",
              "name": "itemId",
              "type": "uint256"
            },
            {
              "internalType": "address",
              "name": "nftContract",
              "type": "address"
            },
            {
              "internalType": "uint256",
              "name": "tokenId",
              "type": "uint256"
            },
            {
              "internalType": "address payable",
              "name": "seller",
              "type": "address"
            },
            {
              "internalType": "address payable",
              "name": "owner",
              "type": "address"
            },
            {
              "internalType": "uint256",
              "name": "price",
              "type": "uint256"
            },
            {
              "internalType": "bool",
              "name": "sold",
              "type": "bool"
            },
            {
              "internalType": "bool",
              "name": "presale",
              "type": "bool"
            }
          ],
          "internalType": "struct NFTMarketplace.MarketItem[]",
          "name": "",
          "type": "tuple[]"
        }
      ],
      "stateMutability": "view",
      "type": "function"
    },
    {
      "inputs": [],
      "name": "fetchMarketItems",
      "outputs": [
        {
          "components": [
            {
              "internalType": "uint256",
              "name": "itemId",
              "type": "uint256"
            },
            {
              "internalType": "address",
              "name": "nftContract",
              "type": "address"
            },
            {
              "internalType": "uint256",
              "name": "tokenId",
              "type": "uint256"
            },
            {
              "internalType": "address payable",
              "name": "seller",
              "type": "address"
            },
            {
              "internalType": "address payable",
              "name": "owner",
              "type": "address"
            },
            {
              "internalType": "uint256",
              "name": "price",
              "type": "uint256"
            },
            {
              "internalType": "bool",
              "name": "sold",
              "type": "bool"
            },
            {
              "internalType": "bool",
              "name": "presale",
              "type": "bool"
            }
          ],
          "internalType": "struct NFTMarketplace.MarketItem[]",
          "name": "",
          "type": "tuple[]"
        }
      ],
      "stateMutability": "view",
      "type": "function"
    },
    {
      "inputs": [],
      "name": "fetchMyNFTs",
      "outputs": [
        {
          "components": [
            {
              "internalType": "uint256",
              "name": "itemId",
              "type": "uint256"
            },
            {
              "internalType": "address",
              "name": "nftContract",
              "type": "address"
            },
            {
              "internalType": "uint256",
              "name": "tokenId",
              "type": "uint256"
            },
            {
              "internalType": "address payable",
              "name": "seller",
              "type": "address"
            },
            {
              "internalType": "address payable",
              "name": "owner",
              "type": "address"
            },
            {
              "internalType": "uint256",
              "name": "price",
              "type": "uint256"
            },
            {
              "internalType": "bool",
              "name": "sold",
              "type": "bool"
            },
            {
              "internalType": "bool",
              "name": "presale",
              "type": "bool"
            }
          ],
          "internalType": "struct NFTMarketplace.MarketItem[]",
          "name": "",
          "type": "tuple[]"
        }
      ],
      "stateMutability": "view",
      "type": "function"
    },
    {
      "inputs": [
        {
          "internalType": "address",
          "name": "userAddress",
          "type": "address"
        }
      ],
      "name": "fetchNFTsByUserAddress",
      "outputs": [
        {
          "components": [
            {
              "internalType": "uint256",
              "name": "itemId",
              "type": "uint256"
            },
            {
              "internalType": "address",
              "name": "nftContract",
              "type": "address"
            },
            {
              "internalType": "uint256",
              "name": "tokenId",
              "type": "uint256"
            },
            {
              "internalType": "address payable",
              "name": "seller",
              "type": "address"
            },
            {
              "internalType": "address payable",
              "name": "owner",
              "type": "address"
            },
            {
              "internalType": "uint256",
              "name": "price",
              "type": "uint256"
            },
            {
              "internalType": "bool",
              "name": "sold",
              "type": "bool"
            },
            {
              "internalType": "bool",
              "name": "presale",
              "type": "bool"
            }
          ],
          "internalType": "struct NFTMarketplace.MarketItem[]",
          "name": "",
          "type": "tuple[]"
        }
      ],
      "stateMutability": "view",
      "type": "function"
    },
    {
      "inputs": [],
      "name": "getListingPrice",
      "outputs": [
        {
          "internalType": "uint256",
          "name": "",
          "type": "uint256"
        }
      ],
      "stateMutability": "view",
      "type": "function"
    },
    {
      "inputs": [],
      "name": "increaseItemIds",
      "outputs": [],
      "stateMutability": "nonpayable",
      "type": "function"
    },
    {
      "inputs": [],
      "name": "increaseItemsSold",
      "outputs": [],
      "stateMutability": "nonpayable",
      "type": "function"
    },
    {
      "inputs": [
        {
          "internalType": "address",
          "name": "nftContract",
          "type": "address"
        },
        {
          "internalType": "uint256",
          "name": "tokenId",
          "type": "uint256"
        },
        {
          "internalType": "uint256",
          "name": "price",
          "type": "uint256"
        }
      ],
      "name": "listMarketItem",
      "outputs": [],
      "stateMutability": "payable",
      "type": "function"
    },
    {
      "inputs": [
        {
          "internalType": "address",
          "name": "nftContract",
          "type": "address"
        },
        {
          "internalType": "address",
          "name": "nftOwner",
          "type": "address"
        },
        {
          "internalType": "uint256",
          "name": "tokenId",
          "type": "uint256"
        }
      ],
      "name": "listMarketItemToOwner",
      "outputs": [],
      "stateMutability": "payable",
      "type": "function"
    },
    {
      "inputs": [
        {
          "internalType": "uint256",
          "name": "tokenId",
          "type": "uint256"
        }
      ],
      "name": "purchaseItem",
      "outputs": [],
      "stateMutability": "payable",
      "type": "function"
    },
    {
      "inputs": [
        {
          "internalType": "uint256",
          "name": "tokenId",
          "type": "uint256"
        },
        {
          "internalType": "uint256",
          "name": "price",
          "type": "uint256"
        }
      ],
      "name": "resellToken",
      "outputs": [],
      "stateMutability": "payable",
      "type": "function"
    },
    {
      "inputs": [
        {
          "internalType": "bool",
          "name": "_presaleEnabled",
          "type": "bool"
        }
      ],
      "name": "setPresaleEnabled",
      "outputs": [],
      "stateMutability": "nonpayable",
      "type": "function"
    },
    {
      "inputs": [
        {
          "internalType": "address",
          "name": "toAddress",
          "type": "address"
        },
        {
          "internalType": "uint256",
          "name": "tokenId",
          "type": "uint256"
        }
      ],
      "name": "transferTo",
      "outputs": [],
      "stateMutability": "payable",
      "type": "function"
    },
    {
      "inputs": [
        {
          "internalType": "uint256",
          "name": "_listingPrice",
          "type": "uint256"
        }
      ],
      "name": "updateListingPrice",
      "outputs": [],
      "stateMutability": "payable",
      "type": "function"
    }
  ],
  "bytecode": "0x6080604052600380556001600460146101000a81548160ff02191690831515021790555034801561002f57600080fd5b50600160008190555033600460006101000a81548173ffffffffffffffffffffffffffffffffffffffff021916908373ffffffffffffffffffffffffffffffffffffffff16021790555061419a806100886000396000f3fe60806040526004361061011f5760003560e01c8063b3de019c116100a0578063d38ea5bf11610064578063d38ea5bf1461030f578063df2998111461032b578063dfb6452b14610368578063e219fc7514610393578063e818dc8a146103af5761011f565b8063b3de019c1461026e578063bb89e74c14610297578063c10225b8146102ae578063cb917b9c146102d7578063cb953eb9146102f35761011f565b80632ccb1b30116100e75780632ccb1b30146101d85780632f45fade146101f457806345f8fa801461021057806353844fb21461023b578063ae677aa3146102525761011f565b80630865d17a146101245780630f08efe01461013b57806312e8558514610166578063202e374014610191578063213c4e1a146101bc575b600080fd5b34801561013057600080fd5b506101396103c6565b005b34801561014757600080fd5b50610150610462565b60405161015d919061386d565b60405180910390f35b34801561017257600080fd5b5061017b610793565b60405161018891906139ef565b60405180910390f35b34801561019d57600080fd5b506101a661079d565b6040516101b3919061386d565b60405180910390f35b6101d660048036038101906101d19190613438565b610b53565b005b6101f260048036038101906101ed91906133fc565b610ef0565b005b61020e6004803603810190610209919061332e565b6110a2565b005b34801561021c57600080fd5b50610225611407565b604051610232919061386d565b60405180910390f35b34801561024757600080fd5b506102506117bd565b005b61026c600480360381019061026791906134b0565b611859565b005b34801561027a57600080fd5b50610295600480360381019061029091906134d9565b6118f3565b005b3480156102a357600080fd5b506102ac611a09565b005b3480156102ba57600080fd5b506102d560048036038101906102d09190613487565b611aa5565b005b6102f160048036038101906102ec91906134b0565b611b52565b005b61030d6004803603810190610308919061337d565b611d91565b005b610329600480360381019061032491906134b0565b6122d9565b005b34801561033757600080fd5b50610352600480360381019061034d9190613305565b6126a8565b60405161035f919061386d565b60405180910390f35b34801561037457600080fd5b5061037d612a60565b60405161038a919061386d565b60405180910390f35b6103ad60048036038101906103a891906134d9565b612cf7565b005b3480156103bb57600080fd5b506103c4612fed565b005b3373ffffffffffffffffffffffffffffffffffffffff16600460009054906101000a900473ffffffffffffffffffffffffffffffffffffffff1673ffffffffffffffffffffffffffffffffffffffff1614610456576040517f08c379a000000000000000000000000000000000000000000000000000000000815260040161044d906138af565b60405180910390fd5b6104606002613089565b565b6060600061047060016130e5565b9050600061047e60026130e5565b61048860016130e5565b6104929190613c64565b90506000808267ffffffffffffffff8111156104d7577f4e487b7100000000000000000000000000000000000000000000000000000000600052604160045260246000fd5b60405190808252806020026020018201604052801561051057816020015b6104fd6131a5565b8152602001906001900390816104f55790505b50905060005b84811015610788573073ffffffffffffffffffffffffffffffffffffffff16600560006001846105469190613b83565b815260200190815260200160002060040160009054906101000a900473ffffffffffffffffffffffffffffffffffffffff1673ffffffffffffffffffffffffffffffffffffffff1614156107755760006001826105a39190613b83565b905060006005600083815260200190815260200160002090508060405180610100016040529081600082015481526020016001820160009054906101000a900473ffffffffffffffffffffffffffffffffffffffff1673ffffffffffffffffffffffffffffffffffffffff1673ffffffffffffffffffffffffffffffffffffffff168152602001600282015481526020016003820160009054906101000a900473ffffffffffffffffffffffffffffffffffffffff1673ffffffffffffffffffffffffffffffffffffffff1673ffffffffffffffffffffffffffffffffffffffff1681526020016004820160009054906101000a900473ffffffffffffffffffffffffffffffffffffffff1673ffffffffffffffffffffffffffffffffffffffff1673ffffffffffffffffffffffffffffffffffffffff168152602001600582015481526020016006820160009054906101000a900460ff161515151581526020016006820160019054906101000a900460ff161515151581525050848681518110610758577f4e487b7100000000000000000000000000000000000000000000000000000000600052603260045260246000fd5b60200260200101819052506001856107709190613b83565b945050505b808061078090613d6b565b915050610516565b508094505050505090565b6000600354905090565b606060006107ab60016130e5565b905060008060005b83811015610854573373ffffffffffffffffffffffffffffffffffffffff16600560006001846107e39190613b83565b815260200190815260200160002060040160009054906101000a900473ffffffffffffffffffffffffffffffffffffffff1673ffffffffffffffffffffffffffffffffffffffff1614156108415760018361083e9190613b83565b92505b808061084c90613d6b565b9150506107b3565b5060008267ffffffffffffffff811115610897577f4e487b7100000000000000000000000000000000000000000000000000000000600052604160045260246000fd5b6040519080825280602002602001820160405280156108d057816020015b6108bd6131a5565b8152602001906001900390816108b55790505b50905060005b84811015610b48573373ffffffffffffffffffffffffffffffffffffffff16600560006001846109069190613b83565b815260200190815260200160002060040160009054906101000a900473ffffffffffffffffffffffffffffffffffffffff1673ffffffffffffffffffffffffffffffffffffffff161415610b355760006001826109639190613b83565b905060006005600083815260200190815260200160002090508060405180610100016040529081600082015481526020016001820160009054906101000a900473ffffffffffffffffffffffffffffffffffffffff1673ffffffffffffffffffffffffffffffffffffffff1673ffffffffffffffffffffffffffffffffffffffff168152602001600282015481526020016003820160009054906101000a900473ffffffffffffffffffffffffffffffffffffffff1673ffffffffffffffffffffffffffffffffffffffff1673ffffffffffffffffffffffffffffffffffffffff1681526020016004820160009054906101000a900473ffffffffffffffffffffffffffffffffffffffff1673ffffffffffffffffffffffffffffffffffffffff1673ffffffffffffffffffffffffffffffffffffffff168152602001600582015481526020016006820160009054906101000a900460ff161515151581526020016006820160019054906101000a900460ff161515151581525050848681518110610b18577f4e487b7100000000000000000000000000000000000000000000000000000000600052603260045260246000fd5b6020026020010181905250600185610b309190613b83565b945050505b8080610b4090613d6b565b9150506108d6565b508094505050505090565b610b5b6130f3565b3373ffffffffffffffffffffffffffffffffffffffff16600460009054906101000a900473ffffffffffffffffffffffffffffffffffffffff1673ffffffffffffffffffffffffffffffffffffffff1614610beb576040517f08c379a0000000000000000000000000000000000000000000000000000000008152600401610be29061398f565b60405180910390fd5b60008111610c2e576040517f08c379a0000000000000000000000000000000000000000000000000000000008152600401610c25906139cf565b60405180910390fd5b610c386001613143565b6000610c4460016130e5565b90506040518061010001604052808281526020018573ffffffffffffffffffffffffffffffffffffffff1681526020018481526020013373ffffffffffffffffffffffffffffffffffffffff1681526020013073ffffffffffffffffffffffffffffffffffffffff168152602001838152602001600015158152602001600460149054906101000a900460ff161515815250600560008581526020019081526020016000206000820151816000015560208201518160010160006101000a81548173ffffffffffffffffffffffffffffffffffffffff021916908373ffffffffffffffffffffffffffffffffffffffff1602179055506040820151816002015560608201518160030160006101000a81548173ffffffffffffffffffffffffffffffffffffffff021916908373ffffffffffffffffffffffffffffffffffffffff16021790555060808201518160040160006101000a81548173ffffffffffffffffffffffffffffffffffffffff021916908373ffffffffffffffffffffffffffffffffffffffff16021790555060a0820151816005015560c08201518160060160006101000a81548160ff02191690831515021790555060e08201518160060160016101000a81548160ff0219169083151502179055509050508373ffffffffffffffffffffffffffffffffffffffff166323b872dd3330866040518463ffffffff1660e01b8152600401610e5c93929190613836565b600060405180830381600087803b158015610e7657600080fd5b505af1158015610e8a573d6000803e3d6000fd5b50505050827fc99151f4453170a67bc7441775fde1a3bc3220c06645df1121e703aab5e7da5d82863330876000600460149054906101000a900460ff16604051610eda9796959493929190613a79565b60405180910390a250610eeb613159565b505050565b610ef86130f3565b3373ffffffffffffffffffffffffffffffffffffffff166005600083815260200190815260200160002060040160009054906101000a900473ffffffffffffffffffffffffffffffffffffffff1673ffffffffffffffffffffffffffffffffffffffff1614610f9c576040517f08c379a0000000000000000000000000000000000000000000000000000000008152600401610f939061390f565b60405180910390fd5b816005600083815260200190815260200160002060040160006101000a81548173ffffffffffffffffffffffffffffffffffffffff021916908373ffffffffffffffffffffffffffffffffffffffff1602179055506005600082815260200190815260200160002060010160009054906101000a900473ffffffffffffffffffffffffffffffffffffffff1673ffffffffffffffffffffffffffffffffffffffff166323b872dd3384846040518463ffffffff1660e01b815260040161106493929190613836565b600060405180830381600087803b15801561107e57600080fd5b505af1158015611092573d6000803e3d6000fd5b5050505061109e613159565b5050565b6110aa6130f3565b3373ffffffffffffffffffffffffffffffffffffffff16600460009054906101000a900473ffffffffffffffffffffffffffffffffffffffff1673ffffffffffffffffffffffffffffffffffffffff161461113a576040517f08c379a00000000000000000000000000000000000000000000000000000000081526004016111319061398f565b60405180910390fd5b6111446002613143565b61114e6001613143565b600061115a60016130e5565b90506040518061010001604052808281526020018573ffffffffffffffffffffffffffffffffffffffff1681526020018381526020018473ffffffffffffffffffffffffffffffffffffffff1681526020018473ffffffffffffffffffffffffffffffffffffffff16815260200160018152602001600115158152602001600460149054906101000a900460ff161515815250600560008481526020019081526020016000206000820151816000015560208201518160010160006101000a81548173ffffffffffffffffffffffffffffffffffffffff021916908373ffffffffffffffffffffffffffffffffffffffff1602179055506040820151816002015560608201518160030160006101000a81548173ffffffffffffffffffffffffffffffffffffffff021916908373ffffffffffffffffffffffffffffffffffffffff16021790555060808201518160040160006101000a81548173ffffffffffffffffffffffffffffffffffffffff021916908373ffffffffffffffffffffffffffffffffffffffff16021790555060a0820151816005015560c08201518160060160006101000a81548160ff02191690831515021790555060e08201518160060160016101000a81548160ff0219169083151502179055509050508373ffffffffffffffffffffffffffffffffffffffff166323b872dd3385856040518463ffffffff1660e01b815260040161137393929190613836565b600060405180830381600087803b15801561138d57600080fd5b505af11580156113a1573d6000803e3d6000fd5b50505050817fc99151f4453170a67bc7441775fde1a3bc3220c06645df1121e703aab5e7da5d82868687600180600460149054906101000a900460ff166040516113f19796959493929190613a0a565b60405180910390a250611402613159565b505050565b6060600061141560016130e5565b905060008060005b838110156114be573373ffffffffffffffffffffffffffffffffffffffff166005600060018461144d9190613b83565b815260200190815260200160002060030160009054906101000a900473ffffffffffffffffffffffffffffffffffffffff1673ffffffffffffffffffffffffffffffffffffffff1614156114ab576001836114a89190613b83565b92505b80806114b690613d6b565b91505061141d565b5060008267ffffffffffffffff811115611501577f4e487b7100000000000000000000000000000000000000000000000000000000600052604160045260246000fd5b60405190808252806020026020018201604052801561153a57816020015b6115276131a5565b81526020019060019003908161151f5790505b50905060005b848110156117b2573373ffffffffffffffffffffffffffffffffffffffff16600560006001846115709190613b83565b815260200190815260200160002060030160009054906101000a900473ffffffffffffffffffffffffffffffffffffffff1673ffffffffffffffffffffffffffffffffffffffff16141561179f5760006001826115cd9190613b83565b905060006005600083815260200190815260200160002090508060405180610100016040529081600082015481526020016001820160009054906101000a900473ffffffffffffffffffffffffffffffffffffffff1673ffffffffffffffffffffffffffffffffffffffff1673ffffffffffffffffffffffffffffffffffffffff168152602001600282015481526020016003820160009054906101000a900473ffffffffffffffffffffffffffffffffffffffff1673ffffffffffffffffffffffffffffffffffffffff1673ffffffffffffffffffffffffffffffffffffffff1681526020016004820160009054906101000a900473ffffffffffffffffffffffffffffffffffffffff1673ffffffffffffffffffffffffffffffffffffffff1673ffffffffffffffffffffffffffffffffffffffff168152602001600582015481526020016006820160009054906101000a900460ff161515151581526020016006820160019054906101000a900460ff161515151581525050848681518110611782577f4e487b7100000000000000000000000000000000000000000000000000000000600052603260045260246000fd5b602002602001018190525060018561179a9190613b83565b945050505b80806117aa90613d6b565b915050611540565b508094505050505090565b3373ffffffffffffffffffffffffffffffffffffffff16600460009054906101000a900473ffffffffffffffffffffffffffffffffffffffff1673ffffffffffffffffffffffffffffffffffffffff161461184d576040517f08c379a0000000000000000000000000000000000000000000000000000000008152600401611844906138af565b60405180910390fd5b6118576001613143565b565b3373ffffffffffffffffffffffffffffffffffffffff16600460009054906101000a900473ffffffffffffffffffffffffffffffffffffffff1673ffffffffffffffffffffffffffffffffffffffff16146118e9576040517f08c379a00000000000000000000000000000000000000000000000000000000081526004016118e09061396f565b60405180910390fd5b8060038190555050565b6118fb6130f3565b3373ffffffffffffffffffffffffffffffffffffffff166005600084815260200190815260200160002060030160009054906101000a900473ffffffffffffffffffffffffffffffffffffffff1673ffffffffffffffffffffffffffffffffffffffff161461199f576040517f08c379a00000000000000000000000000000000000000000000000000000000081526004016119969061390f565b60405180910390fd5b600081116119e2576040517f08c379a00000000000000000000000000000000000000000000000000000000081526004016119d9906139cf565b60405180910390fd5b806005600084815260200190815260200160002060050181905550611a05613159565b5050565b3373ffffffffffffffffffffffffffffffffffffffff16600460009054906101000a900473ffffffffffffffffffffffffffffffffffffffff1673ffffffffffffffffffffffffffffffffffffffff1614611a99576040517f08c379a0000000000000000000000000000000000000000000000000000000008152600401611a90906138af565b60405180910390fd5b611aa36002613143565b565b3373ffffffffffffffffffffffffffffffffffffffff16600460009054906101000a900473ffffffffffffffffffffffffffffffffffffffff1673ffffffffffffffffffffffffffffffffffffffff1614611b35576040517f08c379a0000000000000000000000000000000000000000000000000000000008152600401611b2c9061396f565b60405180910390fd5b80600460146101000a81548160ff02191690831515021790555050565b611b5a6130f3565b3373ffffffffffffffffffffffffffffffffffffffff166005600083815260200190815260200160002060030160009054906101000a900473ffffffffffffffffffffffffffffffffffffffff1673ffffffffffffffffffffffffffffffffffffffff1614611bfe576040517f08c379a0000000000000000000000000000000000000000000000000000000008152600401611bf59061390f565b60405180910390fd5b60016005600083815260200190815260200160002060060160006101000a81548160ff021916908315150217905550336005600083815260200190815260200160002060030160006101000a81548173ffffffffffffffffffffffffffffffffffffffff021916908373ffffffffffffffffffffffffffffffffffffffff160217905550336005600083815260200190815260200160002060040160006101000a81548173ffffffffffffffffffffffffffffffffffffffff021916908373ffffffffffffffffffffffffffffffffffffffff160217905550611ce16002613143565b6005600082815260200190815260200160002060010160009054906101000a900473ffffffffffffffffffffffffffffffffffffffff1673ffffffffffffffffffffffffffffffffffffffff166323b872dd3033846040518463ffffffff1660e01b8152600401611d5493929190613836565b600060405180830381600087803b158015611d6e57600080fd5b505af1158015611d82573d6000803e3d6000fd5b50505050611d8e613159565b50565b611d996130f3565b3373ffffffffffffffffffffffffffffffffffffffff16600460009054906101000a900473ffffffffffffffffffffffffffffffffffffffff1673ffffffffffffffffffffffffffffffffffffffff1614611e29576040517f08c379a0000000000000000000000000000000000000000000000000000000008152600401611e209061398f565b60405180910390fd5b8051825114611e6d576040517f08c379a0000000000000000000000000000000000000000000000000000000008152600401611e649061394f565b60405180910390fd5b60005b82518110156122cb57611e836002613143565b611e8d6001613143565b6000611e9960016130e5565b90506040518061010001604052808281526020018673ffffffffffffffffffffffffffffffffffffffff168152602001858481518110611f02577f4e487b7100000000000000000000000000000000000000000000000000000000600052603260045260246000fd5b602002602001015181526020013373ffffffffffffffffffffffffffffffffffffffff1681526020013073ffffffffffffffffffffffffffffffffffffffff168152602001848481518110611f80577f4e487b7100000000000000000000000000000000000000000000000000000000600052603260045260246000fd5b60200260200101518152602001600015158152602001600460149054906101000a900460ff16151581525060056000868581518110611fe8577f4e487b7100000000000000000000000000000000000000000000000000000000600052603260045260246000fd5b602002602001015181526020019081526020016000206000820151816000015560208201518160010160006101000a81548173ffffffffffffffffffffffffffffffffffffffff021916908373ffffffffffffffffffffffffffffffffffffffff1602179055506040820151816002015560608201518160030160006101000a81548173ffffffffffffffffffffffffffffffffffffffff021916908373ffffffffffffffffffffffffffffffffffffffff16021790555060808201518160040160006101000a81548173ffffffffffffffffffffffffffffffffffffffff021916908373ffffffffffffffffffffffffffffffffffffffff16021790555060a0820151816005015560c08201518160060160006101000a81548160ff02191690831515021790555060e08201518160060160016101000a81548160ff0219169083151502179055509050508473ffffffffffffffffffffffffffffffffffffffff166323b872dd333087868151811061218b577f4e487b7100000000000000000000000000000000000000000000000000000000600052603260045260246000fd5b60200260200101516040518463ffffffff1660e01b81526004016121b193929190613836565b600060405180830381600087803b1580156121cb57600080fd5b505af11580156121df573d6000803e3d6000fd5b5050505083828151811061221c577f4e487b7100000000000000000000000000000000000000000000000000000000600052603260045260246000fd5b60200260200101517fc99151f4453170a67bc7441775fde1a3bc3220c06645df1121e703aab5e7da5d82873330888881518110612282577f4e487b7100000000000000000000000000000000000000000000000000000000600052603260045260246000fd5b60200260200101516000600460149054906101000a900460ff166040516122af9796959493929190613a79565b60405180910390a25080806122c390613d6b565b915050611e70565b506122d4613159565b505050565b6122e16130f3565b60006005600083815260200190815260200160002060050154905060006005600084815260200190815260200160002060030160009054906101000a900473ffffffffffffffffffffffffffffffffffffffff169050813414612379576040517f08c379a0000000000000000000000000000000000000000000000000000000008152600401612370906138cf565b60405180910390fd5b3073ffffffffffffffffffffffffffffffffffffffff166005600085815260200190815260200160002060040160009054906101000a900473ffffffffffffffffffffffffffffffffffffffff1673ffffffffffffffffffffffffffffffffffffffff161461241d576040517f08c379a0000000000000000000000000000000000000000000000000000000008152600401612414906138ef565b60405180910390fd5b336005600085815260200190815260200160002060040160006101000a81548173ffffffffffffffffffffffffffffffffffffffff021916908373ffffffffffffffffffffffffffffffffffffffff16021790555060016005600085815260200190815260200160002060060160006101000a81548160ff02191690831515021790555060006005600085815260200190815260200160002060030160006101000a81548173ffffffffffffffffffffffffffffffffffffffff021916908373ffffffffffffffffffffffffffffffffffffffff1602179055506125016002613143565b6005600084815260200190815260200160002060010160009054906101000a900473ffffffffffffffffffffffffffffffffffffffff1673ffffffffffffffffffffffffffffffffffffffff166323b872dd3033866040518463ffffffff1660e01b815260040161257493929190613836565b600060405180830381600087803b15801561258e57600080fd5b505af11580156125a2573d6000803e3d6000fd5b5050505060006125d060646125c26003548661316390919063ffffffff16565b61317990919063ffffffff16565b905060006125e7828561318f90919063ffffffff16565b9050600460009054906101000a900473ffffffffffffffffffffffffffffffffffffffff1673ffffffffffffffffffffffffffffffffffffffff166108fc839081150290604051600060405180830381858888f19350505050158015612651573d6000803e3d6000fd5b508273ffffffffffffffffffffffffffffffffffffffff166108fc829081150290604051600060405180830381858888f19350505050158015612698573d6000803e3d6000fd5b50505050506126a5613159565b50565b606060006126b660016130e5565b905060008060005b8381101561275f578573ffffffffffffffffffffffffffffffffffffffff16600560006001846126ee9190613b83565b815260200190815260200160002060040160009054906101000a900473ffffffffffffffffffffffffffffffffffffffff1673ffffffffffffffffffffffffffffffffffffffff16141561274c576001836127499190613b83565b92505b808061275790613d6b565b9150506126be565b5060008267ffffffffffffffff8111156127a2577f4e487b7100000000000000000000000000000000000000000000000000000000600052604160045260246000fd5b6040519080825280602002602001820160405280156127db57816020015b6127c86131a5565b8152602001906001900390816127c05790505b50905060005b84811015612a53578673ffffffffffffffffffffffffffffffffffffffff16600560006001846128119190613b83565b815260200190815260200160002060040160009054906101000a900473ffffffffffffffffffffffffffffffffffffffff1673ffffffffffffffffffffffffffffffffffffffff161415612a4057600060018261286e9190613b83565b905060006005600083815260200190815260200160002090508060405180610100016040529081600082015481526020016001820160009054906101000a900473ffffffffffffffffffffffffffffffffffffffff1673ffffffffffffffffffffffffffffffffffffffff1673ffffffffffffffffffffffffffffffffffffffff168152602001600282015481526020016003820160009054906101000a900473ffffffffffffffffffffffffffffffffffffffff1673ffffffffffffffffffffffffffffffffffffffff1673ffffffffffffffffffffffffffffffffffffffff1681526020016004820160009054906101000a900473ffffffffffffffffffffffffffffffffffffffff1673ffffffffffffffffffffffffffffffffffffffff1673ffffffffffffffffffffffffffffffffffffffff168152602001600582015481526020016006820160009054906101000a900460ff161515151581526020016006820160019054906101000a900460ff161515151581525050848681518110612a23577f4e487b7100000000000000000000000000000000000000000000000000000000600052603260045260246000fd5b6020026020010181905250600185612a3b9190613b83565b945050505b8080612a4b90613d6b565b9150506127e1565b5080945050505050919050565b60606000612a6e60016130e5565b90506000808267ffffffffffffffff811115612ab3577f4e487b7100000000000000000000000000000000000000000000000000000000600052604160045260246000fd5b604051908082528060200260200182016040528015612aec57816020015b612ad96131a5565b815260200190600190039081612ad15790505b50905060005b83811015612ced576000600182612b099190613b83565b905060006005600083815260200190815260200160002090508060405180610100016040529081600082015481526020016001820160009054906101000a900473ffffffffffffffffffffffffffffffffffffffff1673ffffffffffffffffffffffffffffffffffffffff1673ffffffffffffffffffffffffffffffffffffffff168152602001600282015481526020016003820160009054906101000a900473ffffffffffffffffffffffffffffffffffffffff1673ffffffffffffffffffffffffffffffffffffffff1673ffffffffffffffffffffffffffffffffffffffff1681526020016004820160009054906101000a900473ffffffffffffffffffffffffffffffffffffffff1673ffffffffffffffffffffffffffffffffffffffff1673ffffffffffffffffffffffffffffffffffffffff168152602001600582015481526020016006820160009054906101000a900460ff161515151581526020016006820160019054906101000a900460ff161515151581525050848681518110612cbe577f4e487b7100000000000000000000000000000000000000000000000000000000600052603260045260246000fd5b6020026020010181905250600185612cd69190613b83565b945050508080612ce590613d6b565b915050612af2565b5080935050505090565b612cff6130f3565b600082118015612d185750612d1460016130e5565b8211155b612d57576040517f08c379a0000000000000000000000000000000000000000000000000000000008152600401612d4e9061392f565b60405180910390fd5b60008111612d9a576040517f08c379a0000000000000000000000000000000000000000000000000000000008152600401612d91906139cf565b60405180910390fd5b3373ffffffffffffffffffffffffffffffffffffffff166005600084815260200190815260200160002060040160009054906101000a900473ffffffffffffffffffffffffffffffffffffffff1673ffffffffffffffffffffffffffffffffffffffff1614612e3e576040517f08c379a0000000000000000000000000000000000000000000000000000000008152600401612e359061390f565b60405180910390fd5b60006005600084815260200190815260200160002060060160006101000a81548160ff021916908315150217905550806005600084815260200190815260200160002060050181905550336005600084815260200190815260200160002060030160006101000a81548173ffffffffffffffffffffffffffffffffffffffff021916908373ffffffffffffffffffffffffffffffffffffffff160217905550306005600084815260200190815260200160002060040160006101000a81548173ffffffffffffffffffffffffffffffffffffffff021916908373ffffffffffffffffffffffffffffffffffffffff160217905550612f3c6002613089565b6005600083815260200190815260200160002060010160009054906101000a900473ffffffffffffffffffffffffffffffffffffffff1673ffffffffffffffffffffffffffffffffffffffff166323b872dd3330856040518463ffffffff1660e01b8152600401612faf93929190613836565b600060405180830381600087803b158015612fc957600080fd5b505af1158015612fdd573d6000803e3d6000fd5b50505050612fe9613159565b5050565b3373ffffffffffffffffffffffffffffffffffffffff16600460009054906101000a900473ffffffffffffffffffffffffffffffffffffffff1673ffffffffffffffffffffffffffffffffffffffff161461307d576040517f08c379a0000000000000000000000000000000000000000000000000000000008152600401613074906138af565b60405180910390fd5b6130876001613089565b565b600081600001549050600081116130d5576040517f08c379a00000000000000000000000000000000000000000000000000000000081526004016130cc9061388f565b60405180910390fd5b6001810382600001819055505050565b600081600001549050919050565b60026000541415613139576040517f08c379a0000000000000000000000000000000000000000000000000000000008152600401613130906139af565b60405180910390fd5b6002600081905550565b6001816000016000828254019250508190555050565b6001600081905550565b600081836131719190613c0a565b905092915050565b600081836131879190613bd9565b905092915050565b6000818361319d9190613c64565b905092915050565b60405180610100016040528060008152602001600073ffffffffffffffffffffffffffffffffffffffff16815260200160008152602001600073ffffffffffffffffffffffffffffffffffffffff168152602001600073ffffffffffffffffffffffffffffffffffffffff168152602001600081526020016000151581526020016000151581525090565b600061324361323e84613b0d565b613ae8565b9050808382526020820190508285602086028201111561326257600080fd5b60005b85811015613292578161327888826132f0565b845260208401935060208301925050600181019050613265565b5050509392505050565b6000813590506132ab8161411f565b92915050565b600082601f8301126132c257600080fd5b81356132d2848260208601613230565b91505092915050565b6000813590506132ea81614136565b92915050565b6000813590506132ff8161414d565b92915050565b60006020828403121561331757600080fd5b60006133258482850161329c565b91505092915050565b60008060006060848603121561334357600080fd5b60006133518682870161329c565b93505060206133628682870161329c565b9250506040613373868287016132f0565b9150509250925092565b60008060006060848603121561339257600080fd5b60006133a08682870161329c565b935050602084013567ffffffffffffffff8111156133bd57600080fd5b6133c9868287016132b1565b925050604084013567ffffffffffffffff8111156133e657600080fd5b6133f2868287016132b1565b9150509250925092565b6000806040838503121561340f57600080fd5b600061341d8582860161329c565b925050602061342e858286016132f0565b9150509250929050565b60008060006060848603121561344d57600080fd5b600061345b8682870161329c565b935050602061346c868287016132f0565b925050604061347d868287016132f0565b9150509250925092565b60006020828403121561349957600080fd5b60006134a7848285016132db565b91505092915050565b6000602082840312156134c257600080fd5b60006134d0848285016132f0565b91505092915050565b600080604083850312156134ec57600080fd5b60006134fa858286016132f0565b925050602061350b858286016132f0565b9150509250929050565b60006135218383613776565b6101008301905092915050565b61353781613cf2565b82525050565b61354681613caa565b82525050565b61355581613c98565b82525050565b61356481613c98565b82525050565b600061357582613b49565b61357f8185613b61565b935061358a83613b39565b8060005b838110156135bb5781516135a28882613515565b97506135ad83613b54565b92505060018101905061358e565b5085935050505092915050565b6135d181613cbc565b82525050565b6135e081613cbc565b82525050565b6135ef81613d04565b82525050565b6000613602601b83613b72565b915061360d82613e52565b602082019050919050565b6000613625603183613b72565b915061363082613e7b565b604082019050919050565b6000613648604083613b72565b915061365382613eca565b604082019050919050565b600061366b602683613b72565b915061367682613f19565b604082019050919050565b600061368e602a83613b72565b915061369982613f68565b604082019050919050565b60006136b1601083613b72565b91506136bc82613fb7565b602082019050919050565b60006136d4602b83613b72565b91506136df82613fe0565b604082019050919050565b60006136f7603083613b72565b91506137028261402f565b604082019050919050565b600061371a603c83613b72565b91506137258261407e565b604082019050919050565b600061373d601f83613b72565b9150613748826140cd565b602082019050919050565b6000613760601c83613b72565b915061376b826140f6565b602082019050919050565b6101008201600082015161378d6000850182613818565b5060208201516137a0602085018261354c565b5060408201516137b36040850182613818565b5060608201516137c6606085018261353d565b5060808201516137d9608085018261353d565b5060a08201516137ec60a0850182613818565b5060c08201516137ff60c08501826135c8565b5060e082015161381260e08501826135c8565b50505050565b61382181613ce8565b82525050565b61383081613ce8565b82525050565b600060608201905061384b600083018661355b565b613858602083018561355b565b6138656040830184613827565b949350505050565b60006020820190508181036000830152613887818461356a565b905092915050565b600060208201905081810360008301526138a8816135f5565b9050919050565b600060208201905081810360008301526138c881613618565b9050919050565b600060208201905081810360008301526138e88161363b565b9050919050565b600060208201905081810360008301526139088161365e565b9050919050565b6000602082019050818103600083015261392881613681565b9050919050565b60006020820190508181036000830152613948816136a4565b9050919050565b60006020820190508181036000830152613968816136c7565b9050919050565b60006020820190508181036000830152613988816136ea565b9050919050565b600060208201905081810360008301526139a88161370d565b9050919050565b600060208201905081810360008301526139c881613730565b9050919050565b600060208201905081810360008301526139e881613753565b9050919050565b6000602082019050613a046000830184613827565b92915050565b600060e082019050613a1f600083018a613827565b613a2c602083018961355b565b613a39604083018861352e565b613a46606083018761352e565b613a5360808301866135e6565b613a6060a08301856135d7565b613a6d60c08301846135d7565b98975050505050505050565b600060e082019050613a8e600083018a613827565b613a9b602083018961355b565b613aa8604083018861355b565b613ab5606083018761355b565b613ac26080830186613827565b613acf60a08301856135d7565b613adc60c08301846135d7565b98975050505050505050565b6000613af2613b03565b9050613afe8282613d3a565b919050565b6000604051905090565b600067ffffffffffffffff821115613b2857613b27613e12565b5b602082029050602081019050919050565b6000819050602082019050919050565b600081519050919050565b6000602082019050919050565b600082825260208201905092915050565b600082825260208201905092915050565b6000613b8e82613ce8565b9150613b9983613ce8565b9250827fffffffffffffffffffffffffffffffffffffffffffffffffffffffffffffffff03821115613bce57613bcd613db4565b5b828201905092915050565b6000613be482613ce8565b9150613bef83613ce8565b925082613bff57613bfe613de3565b5b828204905092915050565b6000613c1582613ce8565b9150613c2083613ce8565b9250817fffffffffffffffffffffffffffffffffffffffffffffffffffffffffffffffff0483118215151615613c5957613c58613db4565b5b828202905092915050565b6000613c6f82613ce8565b9150613c7a83613ce8565b925082821015613c8d57613c8c613db4565b5b828203905092915050565b6000613ca382613cc8565b9050919050565b6000613cb582613cc8565b9050919050565b60008115159050919050565b600073ffffffffffffffffffffffffffffffffffffffff82169050919050565b6000819050919050565b6000613cfd82613d16565b9050919050565b6000613d0f82613ce8565b9050919050565b6000613d2182613d28565b9050919050565b6000613d3382613cc8565b9050919050565b613d4382613e41565b810181811067ffffffffffffffff82111715613d6257613d61613e12565b5b80604052505050565b6000613d7682613ce8565b91507fffffffffffffffffffffffffffffffffffffffffffffffffffffffffffffffff821415613da957613da8613db4565b5b600182019050919050565b7f4e487b7100000000000000000000000000000000000000000000000000000000600052601160045260246000fd5b7f4e487b7100000000000000000000000000000000000000000000000000000000600052601260045260246000fd5b7f4e487b7100000000000000000000000000000000000000000000000000000000600052604160045260246000fd5b6000601f19601f8301169050919050565b7f436f756e7465723a2064656372656d656e74206f766572666c6f770000000000600082015250565b7f4f6e6c79206d61726b6574706c616365206f776e65722063616e20706572666f60008201527f726d2074686973206f7065726174696f6e000000000000000000000000000000602082015250565b7f506c65617365207375626d6974207468652061736b696e67207072696365206960008201527f6e206f7264657220746f20636f6d706c65746520746865207075726368617365602082015250565b7f546865206974656d206e6565647320746f206265206c697374656420746f206260008201527f6520736f6c640000000000000000000000000000000000000000000000000000602082015250565b7f4f6e6c79206974656d206f776e65722063616e20706572666f726d207468697360008201527f206f7065726174696f6e00000000000000000000000000000000000000000000602082015250565b7f546f6b656e20494420696e76616c696400000000000000000000000000000000600082015250565b7f546f6b656e49647320616e6420707269636573206d757374206265207468652060008201527f73616d65206c656e677468000000000000000000000000000000000000000000602082015250565b7f4f6e6c79206d61726b6574706c616365206f776e65722063616e20757064617460008201527f65206c697374696e672070726963652e00000000000000000000000000000000602082015250565b7f4f6e6c79206d61726b6574706c616365206f776e65722063616e20637265617460008201527f65206e6577204e4654206d61726b6574206173736f63696174696f6e00000000602082015250565b7f5265656e7472616e637947756172643a207265656e7472616e742063616c6c00600082015250565b7f5072696365206d757374206265206174206c6561737420312077656900000000600082015250565b61412881613c98565b811461413357600080fd5b50565b61413f81613cbc565b811461414a57600080fd5b50565b61415681613ce8565b811461416157600080fd5b5056fea26469706673582212203f65ba2b17f0a05c947928e956caaa8718bb4c2d0e9ef60b60d2c6d98e9725c664736f6c63430008040033",
  "linkReferences": {},
  "deployedLinkReferences": {}
}