{
  "_format": "hh-sol-artifact-1",
  "contractName": "NFTMarketplace",
  "sourceName": "contracts/NFTMarketplace.sol",
  "abi": [
    {
      "inputs": [],
      "stateMutability": "nonpayable",
      "type": "constructor"
    },
    {
      "anonymous": false,
      "inputs": [
        {
          "indexed": false,
          "internalType": "address",
          "name": "nftContract",
          "type": "address"
        },
        {
          "indexed": true,
          "internalType": "uint256",
          "name": "tokenId",
          "type": "uint256"
        },
        {
          "indexed": false,
          "internalType": "address",
          "name": "seller",
          "type": "address"
        }
      ],
      "name": "MarketItemCanceled",
      "type": "event"
    },
    {
      "anonymous": false,
      "inputs": [
        {
          "indexed": false,
          "internalType": "uint256",
          "name": "itemId",
          "type": "uint256"
        },
        {
          "indexed": false,
          "internalType": "address",
          "name": "nftContract",
          "type": "address"
        },
        {
          "indexed": true,
          "internalType": "uint256",
          "name": "tokenId",
          "type": "uint256"
        },
        {
          "indexed": false,
          "internalType": "address",
          "name": "seller",
          "type": "address"
        },
        {
          "indexed": false,
          "internalType": "address",
          "name": "owner",
          "type": "address"
        },
        {
          "indexed": false,
          "internalType": "uint256",
          "name": "price",
          "type": "uint256"
        },
        {
          "indexed": false,
          "internalType": "bool",
          "name": "sold",
          "type": "bool"
        }
      ],
      "name": "MarketItemCreated",
      "type": "event"
    },
    {
      "inputs": [
        {
          "internalType": "address",
          "name": "nftContract",
          "type": "address"
        },
        {
          "internalType": "uint256",
          "name": "tokenId",
          "type": "uint256"
        }
      ],
      "name": "cancelMarketItem",
      "outputs": [],
      "stateMutability": "nonpayable",
      "type": "function"
    },
    {
      "inputs": [
        {
          "internalType": "address",
          "name": "nftContract",
          "type": "address"
        },
        {
          "internalType": "uint256",
          "name": "tokenId",
          "type": "uint256"
        },
        {
          "internalType": "uint256",
          "name": "price",
          "type": "uint256"
        }
      ],
      "name": "createMarketItem",
      "outputs": [],
      "stateMutability": "payable",
      "type": "function"
    },
    {
      "inputs": [
        {
          "internalType": "address",
          "name": "nftContract",
          "type": "address"
        },
        {
          "internalType": "uint256",
          "name": "tokenId",
          "type": "uint256"
        }
      ],
      "name": "createMarketSale",
      "outputs": [],
      "stateMutability": "payable",
      "type": "function"
    },
    {
      "inputs": [],
      "name": "fetchItemsListed",
      "outputs": [
        {
          "components": [
            {
              "internalType": "uint256",
              "name": "itemId",
              "type": "uint256"
            },
            {
              "internalType": "address",
              "name": "nftContract",
              "type": "address"
            },
            {
              "internalType": "uint256",
              "name": "tokenId",
              "type": "uint256"
            },
            {
              "internalType": "address payable",
              "name": "seller",
              "type": "address"
            },
            {
              "internalType": "address payable",
              "name": "owner",
              "type": "address"
            },
            {
              "internalType": "uint256",
              "name": "price",
              "type": "uint256"
            },
            {
              "internalType": "bool",
              "name": "sold",
              "type": "bool"
            }
          ],
          "internalType": "struct NFTMarketplace.MarketItem[]",
          "name": "",
          "type": "tuple[]"
        }
      ],
      "stateMutability": "view",
      "type": "function"
    },
    {
      "inputs": [],
      "name": "fetchMarketItems",
      "outputs": [
        {
          "components": [
            {
              "internalType": "uint256",
              "name": "itemId",
              "type": "uint256"
            },
            {
              "internalType": "address",
              "name": "nftContract",
              "type": "address"
            },
            {
              "internalType": "uint256",
              "name": "tokenId",
              "type": "uint256"
            },
            {
              "internalType": "address payable",
              "name": "seller",
              "type": "address"
            },
            {
              "internalType": "address payable",
              "name": "owner",
              "type": "address"
            },
            {
              "internalType": "uint256",
              "name": "price",
              "type": "uint256"
            },
            {
              "internalType": "bool",
              "name": "sold",
              "type": "bool"
            }
          ],
          "internalType": "struct NFTMarketplace.MarketItem[]",
          "name": "",
          "type": "tuple[]"
        }
      ],
      "stateMutability": "view",
      "type": "function"
    },
    {
      "inputs": [],
      "name": "fetchMyNFTs",
      "outputs": [
        {
          "components": [
            {
              "internalType": "uint256",
              "name": "itemId",
              "type": "uint256"
            },
            {
              "internalType": "address",
              "name": "nftContract",
              "type": "address"
            },
            {
              "internalType": "uint256",
              "name": "tokenId",
              "type": "uint256"
            },
            {
              "internalType": "address payable",
              "name": "seller",
              "type": "address"
            },
            {
              "internalType": "address payable",
              "name": "owner",
              "type": "address"
            },
            {
              "internalType": "uint256",
              "name": "price",
              "type": "uint256"
            },
            {
              "internalType": "bool",
              "name": "sold",
              "type": "bool"
            }
          ],
          "internalType": "struct NFTMarketplace.MarketItem[]",
          "name": "",
          "type": "tuple[]"
        }
      ],
      "stateMutability": "view",
      "type": "function"
    },
    {
      "inputs": [
        {
          "internalType": "address",
          "name": "userAddress",
          "type": "address"
        }
      ],
      "name": "fetchNFTsByUserAddress",
      "outputs": [
        {
          "components": [
            {
              "internalType": "uint256",
              "name": "itemId",
              "type": "uint256"
            },
            {
              "internalType": "address",
              "name": "nftContract",
              "type": "address"
            },
            {
              "internalType": "uint256",
              "name": "tokenId",
              "type": "uint256"
            },
            {
              "internalType": "address payable",
              "name": "seller",
              "type": "address"
            },
            {
              "internalType": "address payable",
              "name": "owner",
              "type": "address"
            },
            {
              "internalType": "uint256",
              "name": "price",
              "type": "uint256"
            },
            {
              "internalType": "bool",
              "name": "sold",
              "type": "bool"
            }
          ],
          "internalType": "struct NFTMarketplace.MarketItem[]",
          "name": "",
          "type": "tuple[]"
        }
      ],
      "stateMutability": "view",
      "type": "function"
    },
    {
      "inputs": [],
      "name": "getListingPrice",
      "outputs": [
        {
          "internalType": "uint256",
          "name": "",
          "type": "uint256"
        }
      ],
      "stateMutability": "view",
      "type": "function"
    },
    {
      "inputs": [
        {
          "internalType": "address",
          "name": "nftContract",
          "type": "address"
        },
        {
          "internalType": "uint256",
          "name": "tokenId",
          "type": "uint256"
        },
        {
          "internalType": "uint256",
          "name": "price",
          "type": "uint256"
        }
      ],
      "name": "resellToken",
      "outputs": [],
      "stateMutability": "payable",
      "type": "function"
    },
    {
      "inputs": [
        {
          "internalType": "address",
          "name": "nftContract",
          "type": "address"
        },
        {
          "internalType": "uint256",
          "name": "tokenId",
          "type": "uint256"
        }
      ],
      "name": "unListNFT",
      "outputs": [],
      "stateMutability": "payable",
      "type": "function"
    },
    {
      "inputs": [
        {
          "internalType": "uint256",
          "name": "_listingPrice",
          "type": "uint256"
        }
      ],
      "name": "updateListingPrice",
      "outputs": [],
      "stateMutability": "payable",
      "type": "function"
    }
  ],
  "bytecode": "0x60806040526658d15e1762800060045534801561001b57600080fd5b50600160008190555033600560006101000a81548173ffffffffffffffffffffffffffffffffffffffff021916908373ffffffffffffffffffffffffffffffffffffffff160217905550612959806100746000396000f3fe60806040526004361061009c5760003560e01c8063ae677aa311610064578063ae677aa314610169578063b23e1ad914610185578063b3e3c42f146101a1578063c23b139e146101ca578063df299811146101e6578063ef76f64a146102235761009c565b80630f08efe0146100a157806312e85585146100cc578063202e3740146100f757806345f8fa801461012257806358eb2df51461014d575b600080fd5b3480156100ad57600080fd5b506100b661023f565b6040516100c3919061225e565b60405180910390f35b3480156100d857600080fd5b506100e1610554565b6040516100ee91906123e0565b60405180910390f35b34801561010357600080fd5b5061010c61055e565b604051610119919061225e565b60405180910390f35b34801561012e57600080fd5b506101376108f8565b604051610144919061225e565b60405180910390f35b61016760048036038101906101629190611e98565b610c92565b005b610183600480360381019061017e9190611ee7565b61102a565b005b61019f600480360381019061019a9190611e98565b6110c4565b005b3480156101ad57600080fd5b506101c860048036038101906101c39190611e5c565b61131e565b005b6101e460048036038101906101df9190611e5c565b6115b7565b005b3480156101f257600080fd5b5061020d60048036038101906102089190611e33565b61190e565b60405161021a919061225e565b60405180910390f35b61023d60048036038101906102389190611e5c565b611caa565b005b6060600061024d6001611cae565b9050600061025b6002611cae565b6102656001611cae565b61026f91906124fc565b90506000808267ffffffffffffffff8111156102b4577f4e487b7100000000000000000000000000000000000000000000000000000000600052604160045260246000fd5b6040519080825280602002602001820160405280156102ed57816020015b6102da611d88565b8152602001906001900390816102d25790505b50905060005b84811015610549573073ffffffffffffffffffffffffffffffffffffffff166006600060018461032391906124a6565b815260200190815260200160002060040160009054906101000a900473ffffffffffffffffffffffffffffffffffffffff1673ffffffffffffffffffffffffffffffffffffffff16141561053657600060018261038091906124a6565b90506000600660008381526020019081526020016000209050806040518060e0016040529081600082015481526020016001820160009054906101000a900473ffffffffffffffffffffffffffffffffffffffff1673ffffffffffffffffffffffffffffffffffffffff1673ffffffffffffffffffffffffffffffffffffffff168152602001600282015481526020016003820160009054906101000a900473ffffffffffffffffffffffffffffffffffffffff1673ffffffffffffffffffffffffffffffffffffffff1673ffffffffffffffffffffffffffffffffffffffff1681526020016004820160009054906101000a900473ffffffffffffffffffffffffffffffffffffffff1673ffffffffffffffffffffffffffffffffffffffff1673ffffffffffffffffffffffffffffffffffffffff168152602001600582015481526020016006820160009054906101000a900460ff161515151581525050848681518110610519577f4e487b7100000000000000000000000000000000000000000000000000000000600052603260045260246000fd5b602002602001018190525060018561053191906124a6565b945050505b80806105419061258a565b9150506102f3565b508094505050505090565b6000600454905090565b6060600061056c6001611cae565b905060008060005b83811015610615573373ffffffffffffffffffffffffffffffffffffffff16600660006001846105a491906124a6565b815260200190815260200160002060040160009054906101000a900473ffffffffffffffffffffffffffffffffffffffff1673ffffffffffffffffffffffffffffffffffffffff161415610602576001836105ff91906124a6565b92505b808061060d9061258a565b915050610574565b5060008267ffffffffffffffff811115610658577f4e487b7100000000000000000000000000000000000000000000000000000000600052604160045260246000fd5b60405190808252806020026020018201604052801561069157816020015b61067e611d88565b8152602001906001900390816106765790505b50905060005b848110156108ed573373ffffffffffffffffffffffffffffffffffffffff16600660006001846106c791906124a6565b815260200190815260200160002060040160009054906101000a900473ffffffffffffffffffffffffffffffffffffffff1673ffffffffffffffffffffffffffffffffffffffff1614156108da57600060018261072491906124a6565b90506000600660008381526020019081526020016000209050806040518060e0016040529081600082015481526020016001820160009054906101000a900473ffffffffffffffffffffffffffffffffffffffff1673ffffffffffffffffffffffffffffffffffffffff1673ffffffffffffffffffffffffffffffffffffffff168152602001600282015481526020016003820160009054906101000a900473ffffffffffffffffffffffffffffffffffffffff1673ffffffffffffffffffffffffffffffffffffffff1673ffffffffffffffffffffffffffffffffffffffff1681526020016004820160009054906101000a900473ffffffffffffffffffffffffffffffffffffffff1673ffffffffffffffffffffffffffffffffffffffff1673ffffffffffffffffffffffffffffffffffffffff168152602001600582015481526020016006820160009054906101000a900460ff1615151515815250508486815181106108bd577f4e487b7100000000000000000000000000000000000000000000000000000000600052603260045260246000fd5b60200260200101819052506001856108d591906124a6565b945050505b80806108e59061258a565b915050610697565b508094505050505090565b606060006109066001611cae565b905060008060005b838110156109af573373ffffffffffffffffffffffffffffffffffffffff166006600060018461093e91906124a6565b815260200190815260200160002060030160009054906101000a900473ffffffffffffffffffffffffffffffffffffffff1673ffffffffffffffffffffffffffffffffffffffff16141561099c5760018361099991906124a6565b92505b80806109a79061258a565b91505061090e565b5060008267ffffffffffffffff8111156109f2577f4e487b7100000000000000000000000000000000000000000000000000000000600052604160045260246000fd5b604051908082528060200260200182016040528015610a2b57816020015b610a18611d88565b815260200190600190039081610a105790505b50905060005b84811015610c87573373ffffffffffffffffffffffffffffffffffffffff1660066000600184610a6191906124a6565b815260200190815260200160002060030160009054906101000a900473ffffffffffffffffffffffffffffffffffffffff1673ffffffffffffffffffffffffffffffffffffffff161415610c74576000600182610abe91906124a6565b90506000600660008381526020019081526020016000209050806040518060e0016040529081600082015481526020016001820160009054906101000a900473ffffffffffffffffffffffffffffffffffffffff1673ffffffffffffffffffffffffffffffffffffffff1673ffffffffffffffffffffffffffffffffffffffff168152602001600282015481526020016003820160009054906101000a900473ffffffffffffffffffffffffffffffffffffffff1673ffffffffffffffffffffffffffffffffffffffff1673ffffffffffffffffffffffffffffffffffffffff1681526020016004820160009054906101000a900473ffffffffffffffffffffffffffffffffffffffff1673ffffffffffffffffffffffffffffffffffffffff1673ffffffffffffffffffffffffffffffffffffffff168152602001600582015481526020016006820160009054906101000a900460ff161515151581525050848681518110610c57577f4e487b7100000000000000000000000000000000000000000000000000000000600052603260045260246000fd5b6020026020010181905250600185610c6f91906124a6565b945050505b8080610c7f9061258a565b915050610a31565b508094505050505090565b610c9a611cbc565b3373ffffffffffffffffffffffffffffffffffffffff16600560009054906101000a900473ffffffffffffffffffffffffffffffffffffffff1673ffffffffffffffffffffffffffffffffffffffff1614610d2a576040517f08c379a0000000000000000000000000000000000000000000000000000000008152600401610d2190612360565b60405180910390fd5b60008111610d6d576040517f08c379a0000000000000000000000000000000000000000000000000000000008152600401610d64906123c0565b60405180910390fd5b6004543414610db1576040517f08c379a0000000000000000000000000000000000000000000000000000000008152600401610da890612320565b60405180910390fd5b610dbb6001611d0c565b6000610dc76001611cae565b90506040518060e001604052808281526020018573ffffffffffffffffffffffffffffffffffffffff1681526020018481526020013373ffffffffffffffffffffffffffffffffffffffff1681526020013073ffffffffffffffffffffffffffffffffffffffff16815260200183815260200160001515815250600660008581526020019081526020016000206000820151816000015560208201518160010160006101000a81548173ffffffffffffffffffffffffffffffffffffffff021916908373ffffffffffffffffffffffffffffffffffffffff1602179055506040820151816002015560608201518160030160006101000a81548173ffffffffffffffffffffffffffffffffffffffff021916908373ffffffffffffffffffffffffffffffffffffffff16021790555060808201518160040160006101000a81548173ffffffffffffffffffffffffffffffffffffffff021916908373ffffffffffffffffffffffffffffffffffffffff16021790555060a0820151816005015560c08201518160060160006101000a81548160ff0219169083151502179055509050508373ffffffffffffffffffffffffffffffffffffffff166323b872dd3330866040518463ffffffff1660e01b8152600401610fa793929190612227565b600060405180830381600087803b158015610fc157600080fd5b505af1158015610fd5573d6000803e3d6000fd5b50505050827f045dfa01dcba2b36aba1d3dc4a874f4b0c5d2fbeb8d2c4b34a7d88c8d8f929d182863330876000604051611014969594939291906123fb565b60405180910390a250611025611d22565b505050565b3373ffffffffffffffffffffffffffffffffffffffff16600560009054906101000a900473ffffffffffffffffffffffffffffffffffffffff1673ffffffffffffffffffffffffffffffffffffffff16146110ba576040517f08c379a00000000000000000000000000000000000000000000000000000000081526004016110b190612340565b60405180910390fd5b8060048190555050565b3373ffffffffffffffffffffffffffffffffffffffff166006600084815260200190815260200160002060040160009054906101000a900473ffffffffffffffffffffffffffffffffffffffff1673ffffffffffffffffffffffffffffffffffffffff1614611168576040517f08c379a000000000000000000000000000000000000000000000000000000000815260040161115f90612300565b60405180910390fd5b60045434146111ac576040517f08c379a00000000000000000000000000000000000000000000000000000000081526004016111a390612320565b60405180910390fd5b60006006600084815260200190815260200160002060060160006101000a81548160ff021916908315150217905550806006600084815260200190815260200160002060050181905550336006600084815260200190815260200160002060030160006101000a81548173ffffffffffffffffffffffffffffffffffffffff021916908373ffffffffffffffffffffffffffffffffffffffff160217905550306006600084815260200190815260200160002060040160006101000a81548173ffffffffffffffffffffffffffffffffffffffff021916908373ffffffffffffffffffffffffffffffffffffffff1602179055506112aa6002611d2c565b8273ffffffffffffffffffffffffffffffffffffffff166323b872dd3330856040518463ffffffff1660e01b81526004016112e793929190612227565b600060405180830381600087803b15801561130157600080fd5b505af1158015611315573d6000803e3d6000fd5b50505050505050565b3373ffffffffffffffffffffffffffffffffffffffff166006600083815260200190815260200160002060030160009054906101000a900473ffffffffffffffffffffffffffffffffffffffff1673ffffffffffffffffffffffffffffffffffffffff16146113c2576040517f08c379a00000000000000000000000000000000000000000000000000000000081526004016113b9906122a0565b60405180910390fd5b6006600082815260200190815260200160002060060160009054906101000a900460ff1615611426576040517f08c379a000000000000000000000000000000000000000000000000000000000815260040161141d906123a0565b60405180910390fd5b60006006600083815260200190815260200160002060060160006101000a81548160ff02191690831515021790555060006006600083815260200190815260200160002060030160006101000a81548173ffffffffffffffffffffffffffffffffffffffff021916908373ffffffffffffffffffffffffffffffffffffffff160217905550336006600083815260200190815260200160002060040160006101000a81548173ffffffffffffffffffffffffffffffffffffffff021916908373ffffffffffffffffffffffffffffffffffffffff1602179055508173ffffffffffffffffffffffffffffffffffffffff166323b872dd3033846040518463ffffffff1660e01b815260040161153d93929190612227565b600060405180830381600087803b15801561155757600080fd5b505af115801561156b573d6000803e3d6000fd5b505050506115796003611d0c565b807f40b2823ad79cf4027d7a0948c1617f490020bda4c8768b86430d96b0fb9dfb6f83336040516115ab9291906121fe565b60405180910390a25050565b6115bf611cbc565b60006006600083815260200190815260200160002060050154905060006006600084815260200190815260200160002060030160009054906101000a900473ffffffffffffffffffffffffffffffffffffffff169050813414611657576040517f08c379a000000000000000000000000000000000000000000000000000000000815260040161164e906122c0565b60405180910390fd5b3073ffffffffffffffffffffffffffffffffffffffff166006600085815260200190815260200160002060040160009054906101000a900473ffffffffffffffffffffffffffffffffffffffff1673ffffffffffffffffffffffffffffffffffffffff16146116fb576040517f08c379a00000000000000000000000000000000000000000000000000000000081526004016116f2906122e0565b60405180910390fd5b336006600085815260200190815260200160002060040160006101000a81548173ffffffffffffffffffffffffffffffffffffffff021916908373ffffffffffffffffffffffffffffffffffffffff16021790555060016006600085815260200190815260200160002060060160006101000a81548160ff02191690831515021790555060006006600085815260200190815260200160002060030160006101000a81548173ffffffffffffffffffffffffffffffffffffffff021916908373ffffffffffffffffffffffffffffffffffffffff1602179055506117df6002611d0c565b8373ffffffffffffffffffffffffffffffffffffffff166323b872dd3033866040518463ffffffff1660e01b815260040161181c93929190612227565b600060405180830381600087803b15801561183657600080fd5b505af115801561184a573d6000803e3d6000fd5b50505050600560009054906101000a900473ffffffffffffffffffffffffffffffffffffffff1673ffffffffffffffffffffffffffffffffffffffff166108fc6004549081150290604051600060405180830381858888f193505050501580156118b8573d6000803e3d6000fd5b508073ffffffffffffffffffffffffffffffffffffffff166108fc349081150290604051600060405180830381858888f193505050501580156118ff573d6000803e3d6000fd5b50505061190a611d22565b5050565b6060600061191c6001611cae565b905060008060005b838110156119c5578573ffffffffffffffffffffffffffffffffffffffff166006600060018461195491906124a6565b815260200190815260200160002060040160009054906101000a900473ffffffffffffffffffffffffffffffffffffffff1673ffffffffffffffffffffffffffffffffffffffff1614156119b2576001836119af91906124a6565b92505b80806119bd9061258a565b915050611924565b5060008267ffffffffffffffff811115611a08577f4e487b7100000000000000000000000000000000000000000000000000000000600052604160045260246000fd5b604051908082528060200260200182016040528015611a4157816020015b611a2e611d88565b815260200190600190039081611a265790505b50905060005b84811015611c9d578673ffffffffffffffffffffffffffffffffffffffff1660066000600184611a7791906124a6565b815260200190815260200160002060040160009054906101000a900473ffffffffffffffffffffffffffffffffffffffff1673ffffffffffffffffffffffffffffffffffffffff161415611c8a576000600182611ad491906124a6565b90506000600660008381526020019081526020016000209050806040518060e0016040529081600082015481526020016001820160009054906101000a900473ffffffffffffffffffffffffffffffffffffffff1673ffffffffffffffffffffffffffffffffffffffff1673ffffffffffffffffffffffffffffffffffffffff168152602001600282015481526020016003820160009054906101000a900473ffffffffffffffffffffffffffffffffffffffff1673ffffffffffffffffffffffffffffffffffffffff1673ffffffffffffffffffffffffffffffffffffffff1681526020016004820160009054906101000a900473ffffffffffffffffffffffffffffffffffffffff1673ffffffffffffffffffffffffffffffffffffffff1673ffffffffffffffffffffffffffffffffffffffff168152602001600582015481526020016006820160009054906101000a900460ff161515151581525050848681518110611c6d577f4e487b7100000000000000000000000000000000000000000000000000000000600052603260045260246000fd5b6020026020010181905250600185611c8591906124a6565b945050505b8080611c959061258a565b915050611a47565b5080945050505050919050565b5050565b600081600001549050919050565b60026000541415611d02576040517f08c379a0000000000000000000000000000000000000000000000000000000008152600401611cf990612380565b60405180910390fd5b6002600081905550565b6001816000016000828254019250508190555050565b6001600081905550565b60008160000154905060008111611d78576040517f08c379a0000000000000000000000000000000000000000000000000000000008152600401611d6f90612280565b60405180910390fd5b6001810382600001819055505050565b6040518060e0016040528060008152602001600073ffffffffffffffffffffffffffffffffffffffff16815260200160008152602001600073ffffffffffffffffffffffffffffffffffffffff168152602001600073ffffffffffffffffffffffffffffffffffffffff168152602001600081526020016000151581525090565b600081359050611e18816128f5565b92915050565b600081359050611e2d8161290c565b92915050565b600060208284031215611e4557600080fd5b6000611e5384828501611e09565b91505092915050565b60008060408385031215611e6f57600080fd5b6000611e7d85828601611e09565b9250506020611e8e85828601611e1e565b9150509250929050565b600080600060608486031215611ead57600080fd5b6000611ebb86828701611e09565b9350506020611ecc86828701611e1e565b9250506040611edd86828701611e1e565b9150509250925092565b600060208284031215611ef957600080fd5b6000611f0784828501611e1e565b91505092915050565b6000611f1c8383612152565b60e08301905092915050565b611f3181612542565b82525050565b611f4081612530565b82525050565b611f4f81612530565b82525050565b6000611f608261246c565b611f6a8185612484565b9350611f758361245c565b8060005b83811015611fa6578151611f8d8882611f10565b9750611f9883612477565b925050600181019050611f79565b5085935050505092915050565b611fbc81612554565b82525050565b611fcb81612554565b82525050565b6000611fde601b83612495565b9150611fe982612602565b602082019050919050565b6000612001602e83612495565b915061200c8261262b565b604082019050919050565b6000612024604083612495565b915061202f8261267a565b604082019050919050565b6000612047602683612495565b9150612052826126c9565b604082019050919050565b600061206a602a83612495565b915061207582612718565b604082019050919050565b600061208d602483612495565b915061209882612767565b604082019050919050565b60006120b0603083612495565b91506120bb826127b6565b604082019050919050565b60006120d3603c83612495565b91506120de82612805565b604082019050919050565b60006120f6601f83612495565b915061210182612854565b602082019050919050565b6000612119603483612495565b91506121248261287d565b604082019050919050565b600061213c601c83612495565b9150612147826128cc565b602082019050919050565b60e08201600082015161216860008501826121e0565b50602082015161217b6020850182611f37565b50604082015161218e60408501826121e0565b5060608201516121a16060850182611f28565b5060808201516121b46080850182611f28565b5060a08201516121c760a08501826121e0565b5060c08201516121da60c0850182611fb3565b50505050565b6121e981612580565b82525050565b6121f881612580565b82525050565b60006040820190506122136000830185611f46565b6122206020830184611f46565b9392505050565b600060608201905061223c6000830186611f46565b6122496020830185611f46565b61225660408301846121ef565b949350505050565b600060208201905081810360008301526122788184611f55565b905092915050565b6000602082019050818103600083015261229981611fd1565b9050919050565b600060208201905081810360008301526122b981611ff4565b9050919050565b600060208201905081810360008301526122d981612017565b9050919050565b600060208201905081810360008301526122f98161203a565b9050919050565b600060208201905081810360008301526123198161205d565b9050919050565b6000602082019050818103600083015261233981612080565b9050919050565b60006020820190508181036000830152612359816120a3565b9050919050565b60006020820190508181036000830152612379816120c6565b9050919050565b60006020820190508181036000830152612399816120e9565b9050919050565b600060208201905081810360008301526123b98161210c565b9050919050565b600060208201905081810360008301526123d98161212f565b9050919050565b60006020820190506123f560008301846121ef565b92915050565b600060c08201905061241060008301896121ef565b61241d6020830188611f46565b61242a6040830187611f46565b6124376060830186611f46565b61244460808301856121ef565b61245160a0830184611fc2565b979650505050505050565b6000819050602082019050919050565b600081519050919050565b6000602082019050919050565b600082825260208201905092915050565b600082825260208201905092915050565b60006124b182612580565b91506124bc83612580565b9250827fffffffffffffffffffffffffffffffffffffffffffffffffffffffffffffffff038211156124f1576124f06125d3565b5b828201905092915050565b600061250782612580565b915061251283612580565b925082821015612525576125246125d3565b5b828203905092915050565b600061253b82612560565b9050919050565b600061254d82612560565b9050919050565b60008115159050919050565b600073ffffffffffffffffffffffffffffffffffffffff82169050919050565b6000819050919050565b600061259582612580565b91507fffffffffffffffffffffffffffffffffffffffffffffffffffffffffffffffff8214156125c8576125c76125d3565b5b600182019050919050565b7f4e487b7100000000000000000000000000000000000000000000000000000000600052601160045260246000fd5b7f436f756e7465723a2064656372656d656e74206f766572666c6f770000000000600082015250565b7f4f6e6c79207468652073656c6c65722063616e2063616e63656c20746865207360008201527f616c65206f6620746865204e4654000000000000000000000000000000000000602082015250565b7f506c65617365207375626d6974207468652061736b696e67207072696365206960008201527f6e206f7264657220746f20636f6d706c65746520746865207075726368617365602082015250565b7f546865206974656d206e6565647320746f206265206c697374656420746f206260008201527f6520736f6c640000000000000000000000000000000000000000000000000000602082015250565b7f4f6e6c79206974656d206f776e65722063616e20706572666f726d207468697360008201527f206f7065726174696f6e00000000000000000000000000000000000000000000602082015250565b7f5072696365206d75737420626520657175616c20746f206c697374696e67207060008201527f7269636500000000000000000000000000000000000000000000000000000000602082015250565b7f4f6e6c79206d61726b6574706c616365206f776e65722063616e20757064617460008201527f65206c697374696e672070726963652e00000000000000000000000000000000602082015250565b7f4f6e6c79206d61726b6574706c616365206f776e65722063616e20637265617460008201527f65206e6577204e4654206d61726b6574206173736f63696174696f6e00000000602082015250565b7f5265656e7472616e637947756172643a207265656e7472616e742063616c6c00600082015250565b7f546865204e46542068617320616c7265616479206265656e20736f6c6420616e60008201527f642063616e6e6f742062652063616e63656c6564000000000000000000000000602082015250565b7f5072696365206d757374206265206174206c6561737420312077656900000000600082015250565b6128fe81612530565b811461290957600080fd5b50565b61291581612580565b811461292057600080fd5b5056fea2646970667358221220d3915dd6d1d1b9ed638a609f25854fd039d6284339b5eb27b7765a403562627964736f6c63430008040033",
  "linkReferences": {},
  "deployedLinkReferences": {}
}